{
  "_format": "hh-sol-artifact-1",
  "contractName": "Adventure",
  "sourceName": "contracts/ottopia/Adventure.sol",
  "abi": [
    {
      "anonymous": false,
      "inputs": [
        {
          "indexed": false,
          "internalType": "address",
          "name": "previousAdmin",
          "type": "address"
        },
        {
          "indexed": false,
          "internalType": "address",
          "name": "newAdmin",
          "type": "address"
        }
      ],
      "name": "AdminChanged",
      "type": "event"
    },
    {
      "anonymous": false,
      "inputs": [
        {
          "indexed": true,
          "internalType": "address",
          "name": "beacon",
          "type": "address"
        }
      ],
      "name": "BeaconUpgraded",
      "type": "event"
    },
    {
      "anonymous": false,
      "inputs": [
        {
          "indexed": true,
          "internalType": "uint256",
          "name": "passId",
          "type": "uint256"
        },
        {
          "indexed": true,
          "internalType": "uint256",
          "name": "ottoId",
          "type": "uint256"
        }
      ],
      "name": "Departure",
      "type": "event"
    },
    {
      "anonymous": false,
      "inputs": [
        {
          "indexed": true,
          "internalType": "uint256",
          "name": "passId",
          "type": "uint256"
        },
        {
          "indexed": true,
          "internalType": "uint256",
          "name": "ottoId",
          "type": "uint256"
        },
        {
          "indexed": false,
          "internalType": "bool",
          "name": "success",
          "type": "bool"
        }
      ],
      "name": "Finish",
      "type": "event"
    },
    {
      "anonymous": false,
      "inputs": [
        {
          "indexed": false,
          "internalType": "uint8",
          "name": "version",
          "type": "uint8"
        }
      ],
      "name": "Initialized",
      "type": "event"
    },
    {
      "anonymous": false,
      "inputs": [
        {
          "indexed": true,
          "internalType": "uint256",
          "name": "passId",
          "type": "uint256"
        },
        {
          "indexed": true,
          "internalType": "uint256",
          "name": "ottoId",
          "type": "uint256"
        }
      ],
      "name": "PassUpdated",
      "type": "event"
    },
    {
      "anonymous": false,
      "inputs": [
        {
          "indexed": true,
          "internalType": "uint256",
          "name": "passId",
          "type": "uint256"
        },
        {
          "indexed": true,
          "internalType": "uint256",
          "name": "ottoId",
          "type": "uint256"
        },
        {
          "indexed": false,
          "internalType": "uint256[]",
          "name": "potions",
          "type": "uint256[]"
        }
      ],
      "name": "PotionsUsed",
      "type": "event"
    },
    {
      "anonymous": false,
      "inputs": [
        {
          "indexed": true,
          "internalType": "uint256",
          "name": "ottoId",
          "type": "uint256"
        },
        {
          "indexed": false,
          "internalType": "uint256",
          "name": "restingUntil",
          "type": "uint256"
        },
        {
          "indexed": false,
          "internalType": "uint256",
          "name": "delta",
          "type": "uint256"
        }
      ],
      "name": "RestingUntilUpdated",
      "type": "event"
    },
    {
      "anonymous": false,
      "inputs": [
        {
          "indexed": true,
          "internalType": "uint256",
          "name": "passId",
          "type": "uint256"
        },
        {
          "indexed": true,
          "internalType": "uint256",
          "name": "ottoId",
          "type": "uint256"
        }
      ],
      "name": "Revive",
      "type": "event"
    },
    {
      "anonymous": false,
      "inputs": [
        {
          "indexed": true,
          "internalType": "bytes32",
          "name": "role",
          "type": "bytes32"
        },
        {
          "indexed": true,
          "internalType": "bytes32",
          "name": "previousAdminRole",
          "type": "bytes32"
        },
        {
          "indexed": true,
          "internalType": "bytes32",
          "name": "newAdminRole",
          "type": "bytes32"
        }
      ],
      "name": "RoleAdminChanged",
      "type": "event"
    },
    {
      "anonymous": false,
      "inputs": [
        {
          "indexed": true,
          "internalType": "bytes32",
          "name": "role",
          "type": "bytes32"
        },
        {
          "indexed": true,
          "internalType": "address",
          "name": "account",
          "type": "address"
        },
        {
          "indexed": true,
          "internalType": "address",
          "name": "sender",
          "type": "address"
        }
      ],
      "name": "RoleGranted",
      "type": "event"
    },
    {
      "anonymous": false,
      "inputs": [
        {
          "indexed": true,
          "internalType": "bytes32",
          "name": "role",
          "type": "bytes32"
        },
        {
          "indexed": true,
          "internalType": "address",
          "name": "account",
          "type": "address"
        },
        {
          "indexed": true,
          "internalType": "address",
          "name": "sender",
          "type": "address"
        }
      ],
      "name": "RoleRevoked",
      "type": "event"
    },
    {
      "anonymous": false,
      "inputs": [
        {
          "indexed": true,
          "internalType": "address",
          "name": "wallet",
          "type": "address"
        },
        {
          "indexed": false,
          "internalType": "uint256",
          "name": "from",
          "type": "uint256"
        },
        {
          "indexed": false,
          "internalType": "uint256",
          "name": "to",
          "type": "uint256"
        }
      ],
      "name": "TcpChanged",
      "type": "event"
    },
    {
      "anonymous": false,
      "inputs": [
        {
          "indexed": true,
          "internalType": "address",
          "name": "implementation",
          "type": "address"
        }
      ],
      "name": "Upgraded",
      "type": "event"
    },
    {
      "inputs": [],
      "name": "CLAM",
      "outputs": [
        {
          "internalType": "contract IERC20",
          "name": "",
          "type": "address"
        }
      ],
      "stateMutability": "view",
      "type": "function"
    },
    {
      "inputs": [],
      "name": "DEFAULT_ADMIN_ROLE",
      "outputs": [
        {
          "internalType": "bytes32",
          "name": "",
          "type": "bytes32"
        }
      ],
      "stateMutability": "view",
      "type": "function"
    },
    {
      "inputs": [],
      "name": "ITEM",
      "outputs": [
        {
          "internalType": "contract IERC1155Preset",
          "name": "",
          "type": "address"
        }
      ],
      "stateMutability": "view",
      "type": "function"
    },
    {
      "inputs": [],
      "name": "MANAGER_ROLE",
      "outputs": [
        {
          "internalType": "bytes32",
          "name": "",
          "type": "bytes32"
        }
      ],
      "stateMutability": "view",
      "type": "function"
    },
    {
      "inputs": [],
      "name": "ONE_HUNDRED_PERCENT",
      "outputs": [
        {
          "internalType": "uint256",
          "name": "",
          "type": "uint256"
        }
      ],
      "stateMutability": "view",
      "type": "function"
    },
    {
      "inputs": [],
      "name": "OTTO",
      "outputs": [
        {
          "internalType": "contract IOttoDiamondERC721",
          "name": "",
          "type": "address"
        }
      ],
      "stateMutability": "view",
      "type": "function"
    },
    {
      "inputs": [],
      "name": "PASS",
      "outputs": [
        {
          "internalType": "contract IAdventurePassERC721",
          "name": "",
          "type": "address"
        }
      ],
      "stateMutability": "view",
      "type": "function"
    },
    {
      "inputs": [],
      "name": "POTION_EFFECT_MANAGER_ROLE",
      "outputs": [
        {
          "internalType": "bytes32",
          "name": "",
          "type": "bytes32"
        }
      ],
      "stateMutability": "view",
      "type": "function"
    },
    {
      "inputs": [],
      "name": "RAND",
      "outputs": [
        {
          "internalType": "contract IRand",
          "name": "",
          "type": "address"
        }
      ],
      "stateMutability": "view",
      "type": "function"
    },
    {
      "inputs": [],
      "name": "STORE",
      "outputs": [
        {
          "internalType": "contract IOttopiaStore",
          "name": "",
          "type": "address"
        }
      ],
      "stateMutability": "view",
      "type": "function"
    },
    {
      "inputs": [
        {
          "internalType": "address",
          "name": "",
          "type": "address"
        }
      ],
      "name": "accumulativeTcp",
      "outputs": [
        {
          "internalType": "uint256",
          "name": "",
          "type": "uint256"
        }
      ],
      "stateMutability": "view",
      "type": "function"
    },
    {
      "inputs": [
        {
          "internalType": "uint256",
          "name": "ottoId_",
          "type": "uint256"
        }
      ],
      "name": "canFinishAt",
      "outputs": [
        {
          "internalType": "uint256",
          "name": "",
          "type": "uint256"
        }
      ],
      "stateMutability": "view",
      "type": "function"
    },
    {
      "inputs": [
        {
          "internalType": "uint256",
          "name": "ottoId_",
          "type": "uint256"
        },
        {
          "internalType": "uint256",
          "name": "locId_",
          "type": "uint256"
        },
        {
          "internalType": "uint256",
          "name": "duration_",
          "type": "uint256"
        },
        {
          "components": [
            {
              "internalType": "enum ItemActionType",
              "name": "typ",
              "type": "uint8"
            },
            {
              "internalType": "uint256",
              "name": "itemId",
              "type": "uint256"
            },
            {
              "internalType": "uint256",
              "name": "fromOttoId",
              "type": "uint256"
            }
          ],
          "internalType": "struct IOttoWearingFacet.ItemActionInput[]",
          "name": "inputs_",
          "type": "tuple[]"
        },
        {
          "components": [
            {
              "internalType": "string",
              "name": "nonce",
              "type": "string"
            },
            {
              "internalType": "bytes32",
              "name": "digest",
              "type": "bytes32"
            },
            {
              "internalType": "bytes",
              "name": "signed",
              "type": "bytes"
            }
          ],
          "internalType": "struct Adventure.Signature",
          "name": "sig_",
          "type": "tuple"
        }
      ],
      "name": "departure",
      "outputs": [],
      "stateMutability": "nonpayable",
      "type": "function"
    },
    {
      "inputs": [
        {
          "internalType": "uint256",
          "name": "ottoId_",
          "type": "uint256"
        }
      ],
      "name": "expMultiplierOf",
      "outputs": [
        {
          "internalType": "uint32",
          "name": "",
          "type": "uint32"
        }
      ],
      "stateMutability": "view",
      "type": "function"
    },
    {
      "inputs": [
        {
          "internalType": "uint256",
          "name": "ottoId_",
          "type": "uint256"
        },
        {
          "internalType": "uint256",
          "name": "cooldown_",
          "type": "uint256"
        },
        {
          "internalType": "uint256",
          "name": "sr_",
          "type": "uint256"
        },
        {
          "components": [
            {
              "internalType": "uint32",
              "name": "exp",
              "type": "uint32"
            },
            {
              "internalType": "uint32",
              "name": "ap",
              "type": "uint32"
            },
            {
              "internalType": "uint32",
              "name": "tcp",
              "type": "uint32"
            },
            {
              "internalType": "uint256[]",
              "name": "items",
              "type": "uint256[]"
            }
          ],
          "internalType": "struct Adventure.Rewards",
          "name": "rewards_",
          "type": "tuple"
        },
        {
          "internalType": "bool",
          "name": "immediately_",
          "type": "bool"
        },
        {
          "internalType": "uint256[]",
          "name": "potions_",
          "type": "uint256[]"
        },
        {
          "components": [
            {
              "internalType": "string",
              "name": "nonce",
              "type": "string"
            },
            {
              "internalType": "bytes32",
              "name": "digest",
              "type": "bytes32"
            },
            {
              "internalType": "bytes",
              "name": "signed",
              "type": "bytes"
            }
          ],
          "internalType": "struct Adventure.Signature",
          "name": "sig_",
          "type": "tuple"
        }
      ],
      "name": "finish",
      "outputs": [],
      "stateMutability": "nonpayable",
      "type": "function"
    },
    {
      "inputs": [
        {
          "internalType": "uint256",
          "name": "passId_",
          "type": "uint256"
        }
      ],
      "name": "finishFee",
      "outputs": [
        {
          "internalType": "uint256",
          "name": "",
          "type": "uint256"
        }
      ],
      "stateMutability": "view",
      "type": "function"
    },
    {
      "inputs": [],
      "name": "finishImmediatelyProduct",
      "outputs": [
        {
          "internalType": "uint256",
          "name": "",
          "type": "uint256"
        }
      ],
      "stateMutability": "view",
      "type": "function"
    },
    {
      "inputs": [
        {
          "internalType": "bytes32",
          "name": "role",
          "type": "bytes32"
        }
      ],
      "name": "getRoleAdmin",
      "outputs": [
        {
          "internalType": "bytes32",
          "name": "",
          "type": "bytes32"
        }
      ],
      "stateMutability": "view",
      "type": "function"
    },
    {
      "inputs": [
        {
          "internalType": "bytes32",
          "name": "role",
          "type": "bytes32"
        },
        {
          "internalType": "address",
          "name": "account",
          "type": "address"
        }
      ],
      "name": "grantRole",
      "outputs": [],
      "stateMutability": "nonpayable",
      "type": "function"
    },
    {
      "inputs": [
        {
          "internalType": "bytes32",
          "name": "role",
          "type": "bytes32"
        },
        {
          "internalType": "address",
          "name": "account",
          "type": "address"
        }
      ],
      "name": "hasRole",
      "outputs": [
        {
          "internalType": "bool",
          "name": "",
          "type": "bool"
        }
      ],
      "stateMutability": "view",
      "type": "function"
    },
    {
      "inputs": [
        {
          "internalType": "address",
          "name": "rand_",
          "type": "address"
        },
        {
          "internalType": "address",
          "name": "pass_",
          "type": "address"
        },
        {
          "internalType": "address",
          "name": "otto_",
          "type": "address"
        },
        {
          "internalType": "address",
          "name": "item_",
          "type": "address"
        },
        {
          "internalType": "address",
          "name": "clam_",
          "type": "address"
        },
        {
          "internalType": "address",
          "name": "store_",
          "type": "address"
        },
        {
          "internalType": "address",
          "name": "signer_",
          "type": "address"
        }
      ],
      "name": "initialize",
      "outputs": [],
      "stateMutability": "nonpayable",
      "type": "function"
    },
    {
      "inputs": [
        {
          "internalType": "uint256",
          "name": "ottoId_",
          "type": "uint256"
        }
      ],
      "name": "itemAmountMultiplierOf",
      "outputs": [
        {
          "internalType": "uint32",
          "name": "",
          "type": "uint32"
        }
      ],
      "stateMutability": "view",
      "type": "function"
    },
    {
      "inputs": [
        {
          "internalType": "uint256",
          "name": "ottoId_",
          "type": "uint256"
        }
      ],
      "name": "latestPassOf",
      "outputs": [
        {
          "components": [
            {
              "internalType": "uint256",
              "name": "locId",
              "type": "uint256"
            },
            {
              "internalType": "uint256",
              "name": "ottoId",
              "type": "uint256"
            },
            {
              "internalType": "uint256",
              "name": "departureAt",
              "type": "uint256"
            },
            {
              "internalType": "uint256",
              "name": "canFinishAt",
              "type": "uint256"
            },
            {
              "internalType": "uint256",
              "name": "finishedAt",
              "type": "uint256"
            },
            {
              "internalType": "uint256",
              "name": "seed",
              "type": "uint256"
            },
            {
              "internalType": "bool",
              "name": "success",
              "type": "bool"
            },
            {
              "internalType": "bool",
              "name": "revived",
              "type": "bool"
            },
            {
              "components": [
                {
                  "internalType": "uint32",
                  "name": "exp",
                  "type": "uint32"
                },
                {
                  "internalType": "uint32",
                  "name": "ap",
                  "type": "uint32"
                },
                {
                  "internalType": "uint32",
                  "name": "tcp",
                  "type": "uint32"
                },
                {
                  "internalType": "uint256[]",
                  "name": "items",
                  "type": "uint256[]"
                }
              ],
              "internalType": "struct Adventure.Rewards",
              "name": "rewards",
              "type": "tuple"
            },
            {
              "internalType": "uint32",
              "name": "expMultiplier",
              "type": "uint32"
            },
            {
              "internalType": "uint32",
              "name": "itemAmountMultiplier",
              "type": "uint32"
            }
          ],
          "internalType": "struct Adventure.Pass",
          "name": "",
          "type": "tuple"
        }
      ],
      "stateMutability": "view",
      "type": "function"
    },
    {
      "inputs": [
        {
          "internalType": "address",
          "name": "",
          "type": "address"
        },
        {
          "internalType": "address",
          "name": "",
          "type": "address"
        },
        {
          "internalType": "uint256[]",
          "name": "",
          "type": "uint256[]"
        },
        {
          "internalType": "uint256[]",
          "name": "",
          "type": "uint256[]"
        },
        {
          "internalType": "bytes",
          "name": "",
          "type": "bytes"
        }
      ],
      "name": "onERC1155BatchReceived",
      "outputs": [
        {
          "internalType": "bytes4",
          "name": "",
          "type": "bytes4"
        }
      ],
      "stateMutability": "nonpayable",
      "type": "function"
    },
    {
      "inputs": [
        {
          "internalType": "address",
          "name": "",
          "type": "address"
        },
        {
          "internalType": "address",
          "name": "",
          "type": "address"
        },
        {
          "internalType": "uint256",
          "name": "",
          "type": "uint256"
        },
        {
          "internalType": "uint256",
          "name": "",
          "type": "uint256"
        },
        {
          "internalType": "bytes",
          "name": "",
          "type": "bytes"
        }
      ],
      "name": "onERC1155Received",
      "outputs": [
        {
          "internalType": "bytes4",
          "name": "",
          "type": "bytes4"
        }
      ],
      "stateMutability": "nonpayable",
      "type": "function"
    },
    {
      "inputs": [
        {
          "internalType": "address",
          "name": "",
          "type": "address"
        },
        {
          "internalType": "address",
          "name": "",
          "type": "address"
        },
        {
          "internalType": "uint256",
          "name": "",
          "type": "uint256"
        },
        {
          "internalType": "bytes",
          "name": "",
          "type": "bytes"
        }
      ],
      "name": "onERC721Received",
      "outputs": [
        {
          "internalType": "bytes4",
          "name": "",
          "type": "bytes4"
        }
      ],
      "stateMutability": "pure",
      "type": "function"
    },
    {
      "inputs": [
        {
          "internalType": "uint256",
          "name": "passId_",
          "type": "uint256"
        }
      ],
      "name": "pass",
      "outputs": [
        {
          "components": [
            {
              "internalType": "uint256",
              "name": "locId",
              "type": "uint256"
            },
            {
              "internalType": "uint256",
              "name": "ottoId",
              "type": "uint256"
            },
            {
              "internalType": "uint256",
              "name": "departureAt",
              "type": "uint256"
            },
            {
              "internalType": "uint256",
              "name": "canFinishAt",
              "type": "uint256"
            },
            {
              "internalType": "uint256",
              "name": "finishedAt",
              "type": "uint256"
            },
            {
              "internalType": "uint256",
              "name": "seed",
              "type": "uint256"
            },
            {
              "internalType": "bool",
              "name": "success",
              "type": "bool"
            },
            {
              "internalType": "bool",
              "name": "revived",
              "type": "bool"
            },
            {
              "components": [
                {
                  "internalType": "uint32",
                  "name": "exp",
                  "type": "uint32"
                },
                {
                  "internalType": "uint32",
                  "name": "ap",
                  "type": "uint32"
                },
                {
                  "internalType": "uint32",
                  "name": "tcp",
                  "type": "uint32"
                },
                {
                  "internalType": "uint256[]",
                  "name": "items",
                  "type": "uint256[]"
                }
              ],
              "internalType": "struct Adventure.Rewards",
              "name": "rewards",
              "type": "tuple"
            },
            {
              "internalType": "uint32",
              "name": "expMultiplier",
              "type": "uint32"
            },
            {
              "internalType": "uint32",
              "name": "itemAmountMultiplier",
              "type": "uint32"
            }
          ],
          "internalType": "struct Adventure.Pass",
          "name": "",
          "type": "tuple"
        }
      ],
      "stateMutability": "view",
      "type": "function"
    },
    {
      "inputs": [],
      "name": "proxiableUUID",
      "outputs": [
        {
          "internalType": "bytes32",
          "name": "",
          "type": "bytes32"
        }
      ],
      "stateMutability": "view",
      "type": "function"
    },
    {
      "inputs": [
        {
          "internalType": "bytes32",
          "name": "role",
          "type": "bytes32"
        },
        {
          "internalType": "address",
          "name": "account",
          "type": "address"
        }
      ],
      "name": "renounceRole",
      "outputs": [],
      "stateMutability": "nonpayable",
      "type": "function"
    },
    {
      "inputs": [
        {
          "internalType": "uint256",
          "name": "",
          "type": "uint256"
        }
      ],
      "name": "restingUntil",
      "outputs": [
        {
          "internalType": "uint256",
          "name": "",
          "type": "uint256"
        }
      ],
      "stateMutability": "view",
      "type": "function"
    },
    {
      "inputs": [
        {
          "internalType": "uint256",
          "name": "ottoId_",
          "type": "uint256"
        }
      ],
      "name": "revive",
      "outputs": [],
      "stateMutability": "nonpayable",
      "type": "function"
    },
    {
      "inputs": [],
      "name": "reviveProduct",
      "outputs": [
        {
          "internalType": "uint256",
          "name": "",
          "type": "uint256"
        }
      ],
      "stateMutability": "view",
      "type": "function"
    },
    {
      "inputs": [
        {
          "internalType": "bytes32",
          "name": "role",
          "type": "bytes32"
        },
        {
          "internalType": "address",
          "name": "account",
          "type": "address"
        }
      ],
      "name": "revokeRole",
      "outputs": [],
      "stateMutability": "nonpayable",
      "type": "function"
    },
    {
      "inputs": [
        {
          "internalType": "uint256",
          "name": "ottoId",
          "type": "uint256"
        },
        {
          "internalType": "uint32",
          "name": "multiplier",
          "type": "uint32"
        }
      ],
      "name": "setExpMultiplier",
      "outputs": [],
      "stateMutability": "nonpayable",
      "type": "function"
    },
    {
      "inputs": [
        {
          "internalType": "uint256",
          "name": "ottoId",
          "type": "uint256"
        },
        {
          "internalType": "uint32",
          "name": "multiplier",
          "type": "uint32"
        }
      ],
      "name": "setItemAmountMultiplier",
      "outputs": [],
      "stateMutability": "nonpayable",
      "type": "function"
    },
    {
      "inputs": [
        {
          "internalType": "uint256",
          "name": "ottoId",
          "type": "uint256"
        },
        {
          "internalType": "uint256",
          "name": "sec",
          "type": "uint256"
        }
      ],
      "name": "shortenCooldown",
      "outputs": [],
      "stateMutability": "nonpayable",
      "type": "function"
    },
    {
      "inputs": [
        {
          "internalType": "uint256",
          "name": "ottoId",
          "type": "uint256"
        },
        {
          "internalType": "uint256",
          "name": "sec",
          "type": "uint256"
        }
      ],
      "name": "shortenDuration",
      "outputs": [],
      "stateMutability": "nonpayable",
      "type": "function"
    },
    {
      "inputs": [],
      "name": "signer",
      "outputs": [
        {
          "internalType": "address",
          "name": "",
          "type": "address"
        }
      ],
      "stateMutability": "view",
      "type": "function"
    },
    {
      "inputs": [
        {
          "internalType": "address",
          "name": "owner_",
          "type": "address"
        }
      ],
      "name": "stakedOttosOf",
      "outputs": [
        {
          "internalType": "uint256[]",
          "name": "",
          "type": "uint256[]"
        }
      ],
      "stateMutability": "view",
      "type": "function"
    },
    {
      "inputs": [
        {
          "internalType": "bytes4",
          "name": "interfaceId",
          "type": "bytes4"
        }
      ],
      "name": "supportsInterface",
      "outputs": [
        {
          "internalType": "bool",
          "name": "",
          "type": "bool"
        }
      ],
      "stateMutability": "view",
      "type": "function"
    },
    {
      "inputs": [
        {
          "internalType": "address",
          "name": "newImplementation",
          "type": "address"
        }
      ],
      "name": "upgradeTo",
      "outputs": [],
      "stateMutability": "nonpayable",
      "type": "function"
    },
    {
      "inputs": [
        {
          "internalType": "address",
          "name": "newImplementation",
          "type": "address"
        },
        {
          "internalType": "bytes",
          "name": "data",
          "type": "bytes"
        }
      ],
      "name": "upgradeToAndCall",
      "outputs": [],
      "stateMutability": "payable",
      "type": "function"
    },
    {
      "inputs": [
        {
          "internalType": "uint256",
          "name": "ottoId_",
          "type": "uint256"
        },
        {
          "internalType": "uint256[]",
          "name": "potions_",
          "type": "uint256[]"
        }
      ],
      "name": "usePotions",
      "outputs": [],
      "stateMutability": "nonpayable",
      "type": "function"
    },
    {
      "inputs": [
        {
          "internalType": "bytes",
          "name": "",
          "type": "bytes"
        }
      ],
      "name": "usedSignatures",
      "outputs": [
        {
          "internalType": "bool",
          "name": "",
          "type": "bool"
        }
      ],
      "stateMutability": "view",
      "type": "function"
    }
  ],
  "bytecode": "0x60a06040523060805234801561001457600080fd5b506080516157f26200004d60003960008181610fd501528181611015015281816110cb0152818161110b015261119a01526157f26000f3fe6080604052600436106102675760003560e01c806382dfe8be11610144578063c4b9cd46116100b6578063e37313421161007a578063e3731342146107b0578063e949580e146107d1578063ec651ee01461080d578063ec87621c1461082d578063edebf9af14610861578063f23a6e611461088357600080fd5b8063c4b9cd461461070b578063cfbbbd9e1461072c578063d547741f1461074d578063d67c99611461076d578063dd0081c71461079a57600080fd5b8063a217fddf11610108578063a217fddf14610656578063a75873651461066b578063ada2bebd1461068b578063bc197c81146106ab578063bc9a8754146106cb578063c48dc9a0146106eb57600080fd5b806382dfe8be1461059b5780638baecc21146105bb5780638def1527146105db57806391d14854146106085780639786afdd1461062857600080fd5b8063323fd6a3116101dd5780634f1ef286116101a15780634f1ef286146104e35780634f7efc45146104f6578063507f14651461051757806352d1902d146105385780636b4016671461054d5780636b8f95741461057b57600080fd5b8063323fd6a31461042e578063358764761461044e57806336568abe1461046e5780633659cfe61461048e5780634bec0713146104ae57600080fd5b8063150b7a021161022f578063150b7a021461031f57806315979dcf146103645780631e36cb3014610384578063238ac933146103bd578063248a9ca3146103de5780632f2ff15d1461040e57600080fd5b806301ffc9a71461026c5780630364b132146102a15780630586e006146102c35780630a021cb5146102f15780630d6c8e2914610308575b600080fd5b34801561027857600080fd5b5061028c610287366004614400565b6108af565b60405190151581526020015b60405180910390f35b3480156102ad57600080fd5b506102c16102bc36600461442a565b610910565b005b3480156102cf57600080fd5b506102e36102de36600461444c565b610aa8565b604051908152602001610298565b3480156102fd57600080fd5b506102e361013b5481565b34801561031457600080fd5b506102e361013a5481565b34801561032b57600080fd5b5061034b61033a36600461447a565b630a85bd0160e11b95945050505050565b6040516001600160e01b03199091168152602001610298565b34801561037057600080fd5b506102c161037f36600461442a565b610b44565b34801561039057600080fd5b5061012d546103a5906001600160a01b031681565b6040516001600160a01b039091168152602001610298565b3480156103c957600080fd5b50610133546103a5906001600160a01b031681565b3480156103ea57600080fd5b506102e36103f936600461444c565b60009081526065602052604090206001015490565b34801561041a57600080fd5b506102c1610429366004614518565b610c33565b34801561043a57600080fd5b506102e361044936600461444c565b610c5d565b34801561045a57600080fd5b506102c1610469366004614548565b610c72565b34801561047a57600080fd5b506102c1610489366004614518565b610f4c565b34801561049a57600080fd5b506102c16104a93660046145de565b610fca565b3480156104ba57600080fd5b506104ce6104c936600461444c565b6110aa565b60405163ffffffff9091168152602001610298565b6102c16104f13660046146d8565b6110c0565b34801561050257600080fd5b50610130546103a5906001600160a01b031681565b34801561052357600080fd5b50610132546103a5906001600160a01b031681565b34801561054457600080fd5b506102e361118d565b34801561055957600080fd5b506102e36105683660046145de565b6101386020526000908152604090205481565b34801561058757600080fd5b506104ce61059636600461444c565b611240565b3480156105a757600080fd5b506102c16105b6366004614740565b611256565b3480156105c757600080fd5b506102c16105d636600461444c565b611396565b3480156105e757600080fd5b506105fb6105f63660046145de565b611838565b60405161029891906147a7565b34801561061457600080fd5b5061028c610623366004614518565b6119e2565b34801561063457600080fd5b506102e361064336600461444c565b6101376020526000908152604090205481565b34801561066257600080fd5b506102e3600081565b34801561067757600080fd5b506102c16106863660046147d2565b611a0d565b34801561069757600080fd5b506102c16106a6366004614740565b611efd565b3480156106b757600080fd5b5061034b6106c6366004614915565b612047565b3480156106d757600080fd5b506102c16106e63660046149c2565b6120aa565b3480156106f757600080fd5b506102c1610706366004614a5b565b61247b565b34801561071757600080fd5b50610131546103a5906001600160a01b031681565b34801561073857600080fd5b5061012e546103a5906001600160a01b031681565b34801561075957600080fd5b506102c1610768366004614518565b6129ee565b34801561077957600080fd5b5061078d61078836600461444c565b612a13565b6040516102989190614b8b565b3480156107a657600080fd5b506102e361271081565b3480156107bc57600080fd5b5061012f546103a5906001600160a01b031681565b3480156107dd57600080fd5b5061028c6107ec366004614c44565b80516020818301810180516101348252928201919093012091525460ff1681565b34801561081957600080fd5b5061078d61082836600461444c565b612b50565b34801561083957600080fd5b506102e37f241ecf16d79d0f8dbfb92cbc07fe17840425976cf0667f022fe9877caa831b0881565b34801561086d57600080fd5b506102e360008051602061575683398151915281565b34801561088f57600080fd5b5061034b61089e366004614c80565b63f23a6e6160e01b95945050505050565b60006001600160e01b03198216630271189760e51b14806108e057506001600160e01b03198216630a85bd0160e11b145b806108fb57506001600160e01b0319821663bc5491e760e01b145b8061090a575061090a82612b71565b92915050565b610928600080516020615756833981519152336119e2565b61094d5760405162461bcd60e51b815260040161094490614ce8565b60405180910390fd5b61012f546040516331a9108f60e11b815260048101849052839130916001600160a01b0390911690636352211e9060240160206040518083038186803b15801561099657600080fd5b505afa1580156109aa573d6000803e3d6000fd5b505050506040513d601f19601f820116820180604052508101906109ce9190614d1f565b6001600160a01b0316146109f45760405162461bcd60e51b815260040161094490614d3c565b6109fd83610c5d565b4210610a3e5760405162461bcd60e51b815260206004820152601060248201526f185b1c9958591e48199a5b9a5cda195960821b6044820152606401610944565b600083815261013560209081526040808320548084526101369092528220600301805491928592610a70908490614d7c565b9091555050604051849082907fb416aaf8d55fcf0b33c789213a27623364c82eb2db850de1d92b42489ecbe27390600090a350505050565b610131546040805163313ce56760e01b815290516000926001600160a01b03169163313ce567916004808301926020929190829003018186803b158015610aee57600080fd5b505afa158015610b02573d6000803e3d6000fd5b505050506040513d601f19601f82011682018060405250810190610b269190614d93565b610b3190600a614e9a565b610b3a83612ba6565b61090a9190614ea9565b610b5c600080516020615756833981519152336119e2565b610b785760405162461bcd60e51b815260040161094490614ce8565b6000828152610137602052604090205482904210610bc65760405162461bcd60e51b815260206004820152600b60248201526a6e6f742072657374696e6760a81b6044820152606401610944565b60008381526101376020526040902054610be1908390614d7c565b600084815261013760209081526040918290208390558151928352820184905284917f2aff368645352ad8a2630c4a667820502831b7fbdd5e8ff9196913b7d4f38e62910160405180910390a2505050565b600082815260656020526040902060010154610c4e81612db5565b610c588383612dbf565b505050565b6000610c6882612b50565b6060015192915050565b600054610100900460ff1615808015610c925750600054600160ff909116105b80610cac5750303b158015610cac575060005460ff166001145b610d0f5760405162461bcd60e51b815260206004820152602e60248201527f496e697469616c697a61626c653a20636f6e747261637420697320616c72656160448201526d191e481a5b9a5d1a585b1a5e995960921b6064820152608401610944565b6000805460ff191660011790558015610d32576000805461ff0019166101001790555b610d3a612e45565b61012d80546001600160a01b03199081166001600160a01b038b81169190911790925561012e805482168a841617905561012f8054821689841690811790915561013080548316898516908117909155610131805484168986161790556101328054841688861617905561013380549093169386169390931790915560405163a22cb46560e01b815260048101919091526001602482015263a22cb46590604401600060405180830381600087803b158015610df557600080fd5b505af1158015610e09573d6000803e3d6000fd5b505061013960209081527f506f8016fb61431a428418726bcc9b708269404d55d37e9f3e5f83a08169a3968054600160ff1991821681179092557f42a1e2e9d0b375f19678b1ba36e623fcd14d7d07c42a210c024c6c3fd8f2132880548216831790557f8cc65597596677b5f0553dc4419ff2072d7c1a42afbfbef56099513b9cd72ab580548216831790557f603022a54cf111b8a8c388e3a4414c5e33d20187405d1429693b1ab823730958805482168317905562ff00ae6000527f667d91eaa21f234bd97539b86ebbb50b4ba52cffea315f22f1dd6556a4d8329a80549091169091179055601f61013a5561013b5550508015610f42576000805461ff0019169055604051600181527f7f26b83ff96e1f2b6a682f133852f6798a09c465da95921460cefb38474024989060200160405180910390a15b5050505050505050565b6001600160a01b0381163314610fbc5760405162461bcd60e51b815260206004820152602f60248201527f416363657373436f6e74726f6c3a2063616e206f6e6c792072656e6f756e636560448201526e103937b632b9903337b91039b2b63360891b6064820152608401610944565b610fc68282612eb3565b5050565b306001600160a01b037f00000000000000000000000000000000000000000000000000000000000000001614156110135760405162461bcd60e51b815260040161094490614ec8565b7f00000000000000000000000000000000000000000000000000000000000000006001600160a01b031661105c600080516020615776833981519152546001600160a01b031690565b6001600160a01b0316146110825760405162461bcd60e51b815260040161094490614f14565b61108b81612f1a565b604080516000808252602082019092526110a791839190612f25565b50565b60006110b582612b50565b610120015192915050565b306001600160a01b037f00000000000000000000000000000000000000000000000000000000000000001614156111095760405162461bcd60e51b815260040161094490614ec8565b7f00000000000000000000000000000000000000000000000000000000000000006001600160a01b0316611152600080516020615776833981519152546001600160a01b031690565b6001600160a01b0316146111785760405162461bcd60e51b815260040161094490614f14565b61118182612f1a565b610fc682826001612f25565b6000306001600160a01b037f0000000000000000000000000000000000000000000000000000000000000000161461122d5760405162461bcd60e51b815260206004820152603860248201527f555550535570677261646561626c653a206d757374206e6f742062652063616c60448201527f6c6564207468726f7567682064656c656761746563616c6c00000000000000006064820152608401610944565b5060008051602061577683398151915290565b600061124b82612b50565b610140015192915050565b61126e600080516020615756833981519152336119e2565b61128a5760405162461bcd60e51b815260040161094490614ce8565b61012f546040516331a9108f60e11b815260048101849052839130916001600160a01b0390911690636352211e9060240160206040518083038186803b1580156112d357600080fd5b505afa1580156112e7573d6000803e3d6000fd5b505050506040513d601f19601f8201168201806040525081019061130b9190614d1f565b6001600160a01b0316146113315760405162461bcd60e51b815260040161094490614d3c565b60008381526101356020908152604080832054808452610136909252808320600901805463ffffffff191663ffffffff8716179055519091859183917fb416aaf8d55fcf0b33c789213a27623364c82eb2db850de1d92b42489ecbe27391a350505050565b3233146113b55760405162461bcd60e51b815260040161094490614f60565b61012f546040516331a9108f60e11b815260048101839052829133916001600160a01b0390911690636352211e9060240160206040518083038186803b1580156113fe57600080fd5b505afa158015611412573d6000803e3d6000fd5b505050506040513d601f19601f820116820180604052508101906114369190614d1f565b6001600160a01b03161461148c5760405162461bcd60e51b815260206004820152601860248201527f63616c6c6572206973206e6f74206f74746f206f776e657200000000000000006044820152606401610944565b6000818152610135602090815260408083205483526101369091529020600401546114ec5760405162461bcd60e51b815260206004820152601060248201526f1b9bdd08199a5b9a5cda1959081e595d60821b6044820152606401610944565b60008181526101356020908152604080832054835261013690915290206006015460ff161561154a5760405162461bcd60e51b815260206004820152600a6024820152691b9bdd0819985a5b195960b21b6044820152606401610944565b600081815261013560209081526040808320548352610136909152902060060154610100900460ff16156115b25760405162461bcd60e51b815260206004820152600f60248201526e185b1c9958591e481c995d9a5d9959608a1b6044820152606401610944565b600082815261013560209081526040808320548084526101369092528083206101325461013a54925163e60a309560e01b81529394919391926001600160a01b039091169163e60a30959161160d9160040190815260200190565b60206040518083038186803b15801561162557600080fd5b505afa158015611639573d6000803e3d6000fd5b505050506040513d601f19601f8201168201806040525081019061165d9190614f81565b610131546040516323b872dd60e01b81529192506001600160a01b0316906323b872dd9061169390339030908690600401614f9a565b602060405180830381600087803b1580156116ad57600080fd5b505af11580156116c1573d6000803e3d6000fd5b505050506040513d601f19601f820116820180604052508101906116e59190614fbe565b50610131546101325460405163095ea7b360e01b81526001600160a01b0391821660048201526024810184905291169063095ea7b390604401602060405180830381600087803b15801561173857600080fd5b505af115801561174c573d6000803e3d6000fd5b505050506040513d601f19601f820116820180604052508101906117709190614fbe565b506101325461013a5460405163a59ac6dd60e01b81523360048201526024810191909152600160448201526001600160a01b039091169063a59ac6dd90606401600060405180830381600087803b1580156117ca57600080fd5b505af11580156117de573d6000803e3d6000fd5b50505060068301805461ff0019166101001790555060018201546118019061309f565b600182015460405184907fa78677222d515efffcb323b960622c3e2bff3331916798f375b592c2a07f6c5a90600090a35050505050565b61012e546040516370a0823160e01b81526001600160a01b0383811660048301526060926000929116906370a082319060240160206040518083038186803b15801561188357600080fd5b505afa158015611897573d6000803e3d6000fd5b505050506040513d601f19601f820116820180604052508101906118bb9190614f81565b90506000816001600160401b038111156118d7576118d76145fb565b604051908082528060200260200182016040528015611900578160200160208202803683370190505b50905060005b828110156119da5761012e54604051632f745c5960e01b81526001600160a01b0387811660048301526024820184905261013692600092911690632f745c599060440160206040518083038186803b15801561196157600080fd5b505afa158015611975573d6000803e3d6000fd5b505050506040513d601f19601f820116820180604052508101906119999190614f81565b8152602001908152602001600020600101548282815181106119bd576119bd614fdb565b6020908102919091010152806119d281614ff1565b915050611906565b509392505050565b60009182526065602090815260408084206001600160a01b0393909316845291905290205460ff1690565b323314611a2c5760405162461bcd60e51b815260040161094490614f60565b61012f546040516331a9108f60e11b81526004810188905287916001600160a01b031690636352211e9060240160206040518083038186803b158015611a7157600080fd5b505afa158015611a85573d6000803e3d6000fd5b505050506040513d601f19601f82011682018060405250810190611aa99190614d1f565b6001600160a01b0316336001600160a01b031614611afa5760405162461bcd60e51b815260206004820152600e60248201526d3737ba1037ba3a379037bbb732b960911b6044820152606401610944565b86600261012f54604051631b55247560e31b8152600481018490526001600160a01b039091169063daa923a89060240160206040518083038186803b158015611b4257600080fd5b505afa158015611b56573d6000803e3d6000fd5b505050506040513d601f19601f82011682018060405250810190611b7a9190615022565b6002811115611b8b57611b8b61500c565b14611bcc5760405162461bcd60e51b81526020600482015260116024820152701bdd1d1bc81b9bdd081cdd5b5b5bdb9959607a1b6044820152606401610944565b60008181526101376020526040902054421015611c1d5760405162461bcd60e51b815260206004820152600f60248201526e6f74746f2069732072657374696e6760881b6044820152606401610944565b600033308a8a8a8a8a604051602001611c37929190615074565b60408051601f19818403018152919052611c518a806150d3565b604051602001611c68989796959493929190615154565b604051602081830303815290604052805190602001209050611c8a8185613323565b6060808615611cad57611c9d88886134cc565b611ca788886135f1565b90925090505b815115611d3f5761012f54604051632184691360e21b81526001600160a01b0390911690638611a44c90611ce7908e9086906004016151be565b600060405180830381600087803b158015611d0157600080fd5b505af1158015611d15573d6000803e3d6000fd5b505050506040513d6000823e601f3d908101601f19168201604052611d3d9190810190615227565b505b61012f60009054906101000a90046001600160a01b03166001600160a01b03166342842e0e33308e6040518463ffffffff1660e01b8152600401611d8593929190614f9a565b600060405180830381600087803b158015611d9f57600080fd5b505af1158015611db3573d6000803e3d6000fd5b505061012e5460405163eaf10a7960e01b8152336004820152600093506001600160a01b03909116915063eaf10a7990602401602060405180830381600087803b158015611e0057600080fd5b505af1158015611e14573d6000803e3d6000fd5b505050506040513d601f19601f82011682018060405250810190611e389190614f81565b60008d81526101356020908152604080832084905583835261013690915290208c8155600181018e9055426002820181905591925090611e79908c906152e5565b6003820155611e8888806150d3565b611e91916152fd565b600582015560098101805467ffffffffffffffff1916640100000001179055825115611ec157611ec18d846120aa565b6040518d9083907fa0d4881b85ddd86cb82a5a9fa9f1d2d17f6f8baf850fd80aba2352e7f0651c0a90600090a350505050505050505050505050565b611f15600080516020615756833981519152336119e2565b611f315760405162461bcd60e51b815260040161094490614ce8565b61012f546040516331a9108f60e11b815260048101849052839130916001600160a01b0390911690636352211e9060240160206040518083038186803b158015611f7a57600080fd5b505afa158015611f8e573d6000803e3d6000fd5b505050506040513d601f19601f82011682018060405250810190611fb29190614d1f565b6001600160a01b031614611fd85760405162461bcd60e51b815260040161094490614d3c565b60008381526101356020908152604080832054808452610136909252808320600901805467ffffffff000000001916600160201b63ffffffff881602179055519091859183917fb416aaf8d55fcf0b33c789213a27623364c82eb2db850de1d92b42489ecbe27391a350505050565b610130546000906001600160a01b03163314156120985760405162461bcd60e51b815260206004820152600f60248201526e1b9bdd081a5b5c1b195b595b9d1959608a1b6044820152606401610944565b5063bc197c8160e01b95945050505050565b61012e5460008381526101356020526040908190205490516331a9108f60e11b8152600481019190915283916001600160a01b031690636352211e9060240160206040518083038186803b15801561210157600080fd5b505afa158015612115573d6000803e3d6000fd5b505050506040513d601f19601f820116820180604052508101906121399190614d1f565b6001600160a01b0316336001600160a01b03161461218a5760405162461bcd60e51b815260206004820152600e60248201526d3737ba103830b9b99037bbb732b960911b6044820152606401610944565b600082516001600160401b038111156121a5576121a56145fb565b6040519080825280602002602001820160405280156121fb57816020015b6121e86040805160608101909152806000815260200160008152602001600081525090565b8152602001906001900390816121c35790505b50905060005b835181101561239d57610139600085838151811061222157612221614fdb565b60209081029190910181015182528101919091526040016000205460ff166122805760405162461bcd60e51b81526020600482015260126024820152713737ba1030b63637bbb2b2103837ba34b7b760711b6044820152606401610944565b6101305484516001600160a01b039091169063f242432a90339030908890869081106122ae576122ae614fdb565b602002602001015160016040518563ffffffff1660e01b81526004016122d7949392919061531b565b600060405180830381600087803b1580156122f157600080fd5b505af1158015612305573d6000803e3d6000fd5b50505050600182828151811061231d5761231d614fdb565b602002602001015160000190600381111561233a5761233a61500c565b9081600381111561234d5761234d61500c565b8152505083818151811061236357612363614fdb565b602002602001015182828151811061237d5761237d614fdb565b60209081029190910181015101528061239581614ff1565b915050612201565b5061012f54604051632184691360e21b81526001600160a01b0390911690638611a44c906123d190879085906004016151be565b600060405180830381600087803b1580156123eb57600080fd5b505af11580156123ff573d6000803e3d6000fd5b505050506040513d6000823e601f3d908101601f191682016040526124279190810190615227565b50836101356000868152602001908152602001600020547f47bc31a6b4a60cc218f7ae4cfa11aa4b7c125108eb0379f9295ff469b4b5a85d8560405161246d91906147a7565b60405180910390a350505050565b32331461249a5760405162461bcd60e51b815260040161094490614f60565b61012e5460008981526101356020526040908190205490516331a9108f60e11b8152600481019190915289916001600160a01b031690636352211e9060240160206040518083038186803b1580156124f157600080fd5b505afa158015612505573d6000803e3d6000fd5b505050506040513d601f19601f820116820180604052508101906125299190614d1f565b6001600160a01b0316336001600160a01b03161461257a5760405162461bcd60e51b815260206004820152600e60248201526d3737ba103830b9b99037bbb732b960911b6044820152606401610944565b8661271081106125c15760405162461bcd60e51b8152602060048201526012602482015271696e76616c69642070657263656e7461676560701b6044820152606401610944565b61262d33308c8c8c8c6040516020016125da9190615389565b60408051601f198184030181529190528c8c8c6125f78d806150d3565b6040516020016126119b9a99989796959493929190615423565b6040516020818303038152906040528051906020012084613323565b60008a8152610135602090815260408083205480845261013690925290912087156126665761265b82613836565b4260038201556126a9565b85156126a9576126a98c8888808060200260200160405190810160405280939291908181526020018383602002808284376000920191909152506120aa92505050565b80600301544210156126ec5760405162461bcd60e51b815260206004820152600c60248201526b1b9bdd08199a5b9a5cda195960a21b6044820152606401610944565b61012e5460405163bc5e350160e01b8152600481018490526001600160a01b039091169063bc5e350190602401600060405180830381600087803b15801561273357600080fd5b505af1158015612747573d6000803e3d6000fd5b505050508a4261275791906152e5565b60008d81526101376020908152604091829020839055815192835282018d90528d917f2aff368645352ad8a2630c4a667820502831b7fbdd5e8ff9196913b7d4f38e62910160405180910390a261012d5460058201546000916001600160a01b03169063e90e5453906127ca89806150d3565b6127d3916152fd565b60405160e084901b6001600160e01b031916815260048101929092526024820152612710604482015260640160206040518083038186803b15801561281757600080fd5b505afa15801561282b573d6000803e3d6000fd5b505050506040513d601f19601f8201168201806040525081019061284f9190614f81565b60068301805460ff19168d831090811790915542600485015590915061287860208c018c6154c1565b60078401805463ffffffff191663ffffffff929092169190911790556128a460408c0160208d016154c1565b60078401805463ffffffff92909216600160201b0267ffffffff00000000199092169190911790556128dc60608c0160408d016154c1565b60078401805463ffffffff92909216600160401b026bffffffff00000000000000001990921691909117905561291560608c018c6154dc565b612923916008860191614307565b508015612933576129338e61309f565b61012f546001840154604051632142170760e11b81526001600160a01b03909216916342842e0e9161296b9130913391600401614f9a565b600060405180830381600087803b15801561298557600080fd5b505af1158015612999573d6000803e3d6000fd5b505050508260010154847f8ea2449beb83d5513bb48e5b3db8f9cc92644c8d2eb8ff20340ca4005d72380d836040516129d6911515815260200190565b60405180910390a35050505050505050505050505050565b600082815260656020526040902060010154612a0981612db5565b610c588383612eb3565b612a1b614352565b600082815261013660209081526040918290208251610160810184528154815260018201548184015260028201548185015260038201546060808301919091526004830154608080840191909152600584015460a0840152600684015460ff808216151560c08601526101009182900416151560e08501528651918201875260078501805463ffffffff8082168552600160201b82048116858a0152600160401b90910416838901526008860180548951818a0281018a01909a52808a5295989697928901969395919486019392909190830182828015612b1b57602002820191906000526020600020905b815481526020019060010190808311612b07575b5050509190925250505081526009919091015463ffffffff8082166020840152600160201b9091041660409091015292915050565b612b58614352565b6000828152610135602052604090205461090a90612a13565b60006001600160e01b03198216637965db0b60e01b148061090a57506301ffc9a760e01b6001600160e01b031983161461090a565b6000818152610136602090815260408083208151610160810183528154815260018201548185015260028201548184015260038201546060808301919091526004830154608080840191909152600584015460a0840152600684015460ff808216151560c08601526101009182900416151560e08501528551918201865260078501805463ffffffff8082168552600160201b82048116858b0152600160401b90910416838801526008860180548851818b0281018b019099528089528a99969893890196949592949286019392830182828015612ca357602002820191906000526020600020905b815481526020019060010190808311612c8f575b5050509190925250505081526009919091015463ffffffff8082166020840152600160201b909104166040909101526060810151909150600f90600090612ceb904290614d7c565b9050610e108111612cff57600191506119da565b611c208111612d1157600291506119da565b612a308111612d2357600391506119da565b6138408111612d3557600491506119da565b6146508111612d4757600591506119da565b6154608111612d5957600691506119da565b6162708111612d6b57600791506119da565b6170808111612d7d57600891506119da565b617e908111612d8f57600991506119da565b618ca08111612da157600b91506119da565b619ab081116119da5750600d949350505050565b6110a78133613b42565b612dc982826119e2565b610fc65760008281526065602090815260408083206001600160a01b03851684529091529020805460ff19166001179055612e013390565b6001600160a01b0316816001600160a01b0316837f2f8788117e7eff1d82e926ec794901d17c78024a50270940304540a733656f0d60405160405180910390a45050565b600054610100900460ff16612e6c5760405162461bcd60e51b815260040161094490615525565b612e74613ba6565b612e7c613ba6565b612e87600033613bcd565b612eb17f241ecf16d79d0f8dbfb92cbc07fe17840425976cf0667f022fe9877caa831b0833613bcd565b565b612ebd82826119e2565b15610fc65760008281526065602090815260408083206001600160a01b0385168085529252808320805460ff1916905551339285917ff6391f5c32d9c69d2a47ea670b442974b53935d1edc7fd64eb21e047a839171b9190a45050565b6110a7600033613b42565b7f4910fdfa16fed3260ed0e7147f7cc6da11a60208b5b9406d12a635614ffd91435460ff1615612f5857610c5883613bd7565b826001600160a01b03166352d1902d6040518163ffffffff1660e01b815260040160206040518083038186803b158015612f9157600080fd5b505afa925050508015612fc1575060408051601f3d908101601f19168201909252612fbe91810190614f81565b60015b6130245760405162461bcd60e51b815260206004820152602e60248201527f45524331393637557067726164653a206e657720696d706c656d656e7461746960448201526d6f6e206973206e6f74205555505360901b6064820152608401610944565b60008051602061577683398151915281146130935760405162461bcd60e51b815260206004820152602960248201527f45524331393637557067726164653a20756e737570706f727465642070726f786044820152681a58589b195555525160ba1b6064820152608401610944565b50610c58838383613c73565b6000818152610135602090815260408083205480845261013690925282206008810154919290916001600160401b038111156130dd576130dd6145fb565b604051908082528060200260200182016040528015613106578160200160208202803683370190505b50905060005b600883015481101561314957600182828151811061312c5761312c614fdb565b60209081029190910101528061314181614ff1565b91505061310c565b5061013054604051630fbfeffd60e11b81526001600160a01b0390911690631f7fdffa9061318290339060088701908690600401615570565b600060405180830381600087803b15801561319c57600080fd5b505af11580156131b0573d6000803e3d6000fd5b505061012f546007850154604051632df4b10560e11b81526004810189905263ffffffff90911660248201526001600160a01b039091169250635be9620a9150604401600060405180830381600087803b15801561320d57600080fd5b505af1158015613221573d6000803e3d6000fd5b505061012f54600785015460405163352d29dd60e21b815260048101899052600160201b90910463ffffffff1660248201526001600160a01b03909116925063d4b4a7749150604401600060405180830381600087803b15801561328457600080fd5b505af1158015613298573d6000803e3d6000fd5b50503360009081526101386020526040812080546007870154909450600160401b900463ffffffff169250906132ce83856152e5565b90915550503360008181526101386020908152604091829020548251858152918201527f9da713facf48895ba19508012989fd687575629f8a9dee5a45de3933a2f1f05e910160405180910390a25050505050565b61013461333360408301836150d3565b6040516133419291906155ef565b9081526040519081900360200190205460ff161561339a5760405162461bcd60e51b81526020600482015260166024820152751cda59db985d1d5c9948185b1c9958591e481d5cd95960521b6044820152606401610944565b60016101346133ac60408401846150d3565b6040516133ba9291906155ef565b9081526040805191829003602001909120805492151560ff1990931692909217909155613433906133ed908301836150d3565b8080601f01602080910402602001604051908101604052809392919081815260200183838082843760009201919091525061342d9250869150613c9e9050565b90613cf1565b610133546001600160a01b039081169116146134875760405162461bcd60e51b81526020600482015260136024820152720e6d2cedcc2e8eae4ca40dcdee840dac2e8c6d606b1b6044820152606401610944565b80602001358214610fc65760405162461bcd60e51b815260206004820152600f60248201526e0c8d2cecae6e840dad2e6dac2e8c6d608b1b6044820152606401610944565b60005b81811015610c585760008383838181106134eb576134eb614fdb565b61350192602060609092020190810191506155ff565b60038111156135125761351261500c565b14806135565750600183838381811061352d5761352d614fdb565b61354392602060609092020190810191506155ff565b60038111156135545761355461500c565b145b156135df57610130546001600160a01b031663f242432a333086868681811061358157613581614fdb565b9050606002016020013560016040518563ffffffff1660e01b81526004016135ac949392919061531b565b600060405180830381600087803b1580156135c657600080fd5b505af11580156135da573d6000803e3d6000fd5b505050505b806135e981614ff1565b9150506134cf565b6060806000805b8481101561366157600186868381811061361457613614614fdb565b61362a92602060609092020190810191506155ff565b600381111561363b5761363b61500c565b141561364f578161364b81614ff1565b9250505b8061365981614ff1565b9150506135f8565b506000816001600160401b0381111561367c5761367c6145fb565b6040519080825280602002602001820160405280156136a5578160200160208202803683370190505b50905060006136b48387614d7c565b6001600160401b038111156136cb576136cb6145fb565b60405190808252806020026020018201604052801561372157816020015b61370e6040805160608101909152806000815260200160008152602001600081525090565b8152602001906001900390816136e95790505b50905060008060005b888110156138245760018a8a8381811061374657613746614fdb565b61375c92602060609092020190810191506155ff565b600381111561376d5761376d61500c565b14156137be5789898281811061378557613785614fdb565b905060600201602001358584815181106137a1576137a1614fdb565b6020908102919091010152826137b681614ff1565b935050613812565b8989828181106137d0576137d0614fdb565b9050606002018036038101906137e6919061561a565b8483815181106137f8576137f8614fdb565b6020026020010181905250818061380e90614ff1565b9250505b8061381c81614ff1565b91505061372a565b509195509193505050505b9250929050565b61013160009054906101000a90046001600160a01b03166001600160a01b031663313ce5676040518163ffffffff1660e01b815260040160206040518083038186803b15801561388557600080fd5b505afa158015613899573d6000803e3d6000fd5b505050506040513d601f19601f820116820180604052508101906138bd9190614d93565b6138c890600a614e9a565b6101325461013b5460405163e60a309560e01b81526001600160a01b039092169163e60a3095916138ff9160040190815260200190565b60206040518083038186803b15801561391757600080fd5b505afa15801561392b573d6000803e3d6000fd5b505050506040513d601f19601f8201168201806040525081019061394f9190614f81565b146139945760405162461bcd60e51b81526020600482015260156024820152740cccaca40c8cac6d2dac2d8e640dad2e6dac2e8c6d605b1b6044820152606401610944565b600061399f82610aa8565b610131546040516323b872dd60e01b81529192506001600160a01b0316906323b872dd906139d590339030908690600401614f9a565b602060405180830381600087803b1580156139ef57600080fd5b505af1158015613a03573d6000803e3d6000fd5b505050506040513d601f19601f82011682018060405250810190613a279190614fbe565b50610131546101325460405163095ea7b360e01b81526001600160a01b0391821660048201526024810184905291169063095ea7b390604401602060405180830381600087803b158015613a7a57600080fd5b505af1158015613a8e573d6000803e3d6000fd5b505050506040513d601f19601f82011682018060405250810190613ab29190614fbe565b506101325461013b546001600160a01b039091169063a59ac6dd903390613ad886612ba6565b6040516001600160e01b031960e086901b1681526001600160a01b03909316600484015260248301919091526044820152606401600060405180830381600087803b158015613b2657600080fd5b505af1158015613b3a573d6000803e3d6000fd5b505050505050565b613b4c82826119e2565b610fc657613b64816001600160a01b03166014613d0d565b613b6f836020613d0d565b604051602001613b8092919061567a565b60408051601f198184030181529082905262461bcd60e51b8252610944916004016156ef565b600054610100900460ff16612eb15760405162461bcd60e51b815260040161094490615525565b610fc68282612dbf565b6001600160a01b0381163b613c445760405162461bcd60e51b815260206004820152602d60248201527f455243313936373a206e657720696d706c656d656e746174696f6e206973206e60448201526c1bdd08184818dbdb9d1c9858dd609a1b6064820152608401610944565b60008051602061577683398151915280546001600160a01b0319166001600160a01b0392909216919091179055565b613c7c83613eaf565b600082511180613c895750805b15610c5857613c988383613eef565b50505050565b6040517f19457468657265756d205369676e6564204d6573736167653a0a3332000000006020820152603c8101829052600090605c01604051602081830303815290604052805190602001209050919050565b6000806000613d008585613fe3565b915091506119da81614026565b60606000613d1c836002614ea9565b613d279060026152e5565b6001600160401b03811115613d3e57613d3e6145fb565b6040519080825280601f01601f191660200182016040528015613d68576020820181803683370190505b509050600360fc1b81600081518110613d8357613d83614fdb565b60200101906001600160f81b031916908160001a905350600f60fb1b81600181518110613db257613db2614fdb565b60200101906001600160f81b031916908160001a9053506000613dd6846002614ea9565b613de19060016152e5565b90505b6001811115613e59576f181899199a1a9b1b9c1cb0b131b232b360811b85600f1660108110613e1557613e15614fdb565b1a60f81b828281518110613e2b57613e2b614fdb565b60200101906001600160f81b031916908160001a90535060049490941c93613e5281615722565b9050613de4565b508315613ea85760405162461bcd60e51b815260206004820181905260248201527f537472696e67733a20686578206c656e67746820696e73756666696369656e746044820152606401610944565b9392505050565b613eb881613bd7565b6040516001600160a01b038216907fbc7cd75a20ee27fd9adebab32041f755214dbc6bffa90cc0225b39da2e5c2d3b90600090a250565b60606001600160a01b0383163b613f575760405162461bcd60e51b815260206004820152602660248201527f416464726573733a2064656c65676174652063616c6c20746f206e6f6e2d636f6044820152651b9d1c9858dd60d21b6064820152608401610944565b600080846001600160a01b031684604051613f729190615739565b600060405180830381855af49150503d8060008114613fad576040519150601f19603f3d011682016040523d82523d6000602084013e613fb2565b606091505b5091509150613fda8282604051806060016040528060278152602001615796602791396141e1565b95945050505050565b60008082516041141561401a5760208301516040840151606085015160001a61400e8782858561421a565b9450945050505061382f565b5060009050600261382f565b600081600481111561403a5761403a61500c565b14156140435750565b60018160048111156140575761405761500c565b14156140a55760405162461bcd60e51b815260206004820152601860248201527f45434453413a20696e76616c6964207369676e617475726500000000000000006044820152606401610944565b60028160048111156140b9576140b961500c565b14156141075760405162461bcd60e51b815260206004820152601f60248201527f45434453413a20696e76616c6964207369676e6174757265206c656e677468006044820152606401610944565b600381600481111561411b5761411b61500c565b14156141745760405162461bcd60e51b815260206004820152602260248201527f45434453413a20696e76616c6964207369676e6174757265202773272076616c604482015261756560f01b6064820152608401610944565b60048160048111156141885761418861500c565b14156110a75760405162461bcd60e51b815260206004820152602260248201527f45434453413a20696e76616c6964207369676e6174757265202776272076616c604482015261756560f01b6064820152608401610944565b606083156141f0575081613ea8565b8251156142005782518084602001fd5b8160405162461bcd60e51b815260040161094491906156ef565b6000807f7fffffffffffffffffffffffffffffff5d576e7357a4501ddfe92f46681b20a083111561425157506000905060036142fe565b8460ff16601b1415801561426957508460ff16601c14155b1561427a57506000905060046142fe565b6040805160008082526020820180845289905260ff881692820192909252606081018690526080810185905260019060a0016020604051602081039080840390855afa1580156142ce573d6000803e3d6000fd5b5050604051601f1901519150506001600160a01b0381166142f7576000600192509250506142fe565b9150600090505b94509492505050565b828054828255906000526020600020908101928215614342579160200282015b82811115614342578235825591602001919060010190614327565b5061434e9291506143eb565b5090565b6040518061016001604052806000815260200160008152602001600081526020016000815260200160008152602001600081526020016000151581526020016000151581526020016143d76040518060800160405280600063ffffffff168152602001600063ffffffff168152602001600063ffffffff168152602001606081525090565b815260006020820181905260409091015290565b5b8082111561434e57600081556001016143ec565b60006020828403121561441257600080fd5b81356001600160e01b031981168114613ea857600080fd5b6000806040838503121561443d57600080fd5b50508035926020909101359150565b60006020828403121561445e57600080fd5b5035919050565b6001600160a01b03811681146110a757600080fd5b60008060008060006080868803121561449257600080fd5b853561449d81614465565b945060208601356144ad81614465565b93506040860135925060608601356001600160401b03808211156144d057600080fd5b818801915088601f8301126144e457600080fd5b8135818111156144f357600080fd5b89602082850101111561450557600080fd5b9699959850939650602001949392505050565b6000806040838503121561452b57600080fd5b82359150602083013561453d81614465565b809150509250929050565b600080600080600080600060e0888a03121561456357600080fd5b873561456e81614465565b9650602088013561457e81614465565b9550604088013561458e81614465565b9450606088013561459e81614465565b935060808801356145ae81614465565b925060a08801356145be81614465565b915060c08801356145ce81614465565b8091505092959891949750929550565b6000602082840312156145f057600080fd5b8135613ea881614465565b634e487b7160e01b600052604160045260246000fd5b604080519081016001600160401b0381118282101715614633576146336145fb565b60405290565b604051601f8201601f191681016001600160401b0381118282101715614661576146616145fb565b604052919050565b600082601f83011261467a57600080fd5b81356001600160401b03811115614693576146936145fb565b6146a6601f8201601f1916602001614639565b8181528460208386010111156146bb57600080fd5b816020850160208301376000918101602001919091529392505050565b600080604083850312156146eb57600080fd5b82356146f681614465565b915060208301356001600160401b0381111561471157600080fd5b61471d85828601614669565b9150509250929050565b803563ffffffff8116811461473b57600080fd5b919050565b6000806040838503121561475357600080fd5b8235915061476360208401614727565b90509250929050565b600081518084526020808501945080840160005b8381101561479c57815187529582019590820190600101614780565b509495945050505050565b602081526000613ea8602083018461476c565b6000606082840312156147cc57600080fd5b50919050565b60008060008060008060a087890312156147eb57600080fd5b86359550602087013594506040870135935060608701356001600160401b038082111561481757600080fd5b818901915089601f83011261482b57600080fd5b81358181111561483a57600080fd5b8a602060608302850101111561484f57600080fd5b60208301955080945050608089013591508082111561486d57600080fd5b5061487a89828a016147ba565b9150509295509295509295565b60006001600160401b038211156148a0576148a06145fb565b5060051b60200190565b600082601f8301126148bb57600080fd5b813560206148d06148cb83614887565b614639565b82815260059290921b840181019181810190868411156148ef57600080fd5b8286015b8481101561490a57803583529183019183016148f3565b509695505050505050565b600080600080600060a0868803121561492d57600080fd5b853561493881614465565b9450602086013561494881614465565b935060408601356001600160401b038082111561496457600080fd5b61497089838a016148aa565b9450606088013591508082111561498657600080fd5b61499289838a016148aa565b935060808801359150808211156149a857600080fd5b506149b588828901614669565b9150509295509295909350565b600080604083850312156149d557600080fd5b8235915060208301356001600160401b038111156149f257600080fd5b61471d858286016148aa565b80151581146110a757600080fd5b803561473b816149fe565b60008083601f840112614a2957600080fd5b5081356001600160401b03811115614a4057600080fd5b6020830191508360208260051b850101111561382f57600080fd5b60008060008060008060008060e0898b031215614a7757600080fd5b88359750602089013596506040890135955060608901356001600160401b0380821115614aa357600080fd5b908a01906080828d031215614ab757600080fd5b819650614ac660808c01614a0c565b955060a08b0135915080821115614adc57600080fd5b614ae88c838d01614a17565b909550935060c08b0135915080821115614b0157600080fd5b50614b0e8b828c016147ba565b9150509295985092959890939650565b60006080830163ffffffff808451168552602081818601511681870152816040860151166040870152606085015191506080606087015282825180855260a0880191508284019450600093505b8084101561490a5784518252938201936001939093019290820190614b6b565b6020815281516020820152602082015160408201526040820151606082015260608201516080820152608082015160a082015260a082015160c0820152600060c0830151614bdd60e084018215159052565b5060e0830151610100614bf38185018315159052565b808501519150506101606101208181860152614c13610180860184614b1e565b90860151909250610140614c2e8682018363ffffffff169052565b9095015163ffffffff1693019290925250919050565b600060208284031215614c5657600080fd5b81356001600160401b03811115614c6c57600080fd5b614c7884828501614669565b949350505050565b600080600080600060a08688031215614c9857600080fd5b8535614ca381614465565b94506020860135614cb381614465565b9350604086013592506060860135915060808601356001600160401b03811115614cdc57600080fd5b6149b588828901614669565b60208082526019908201527f6e6f7420706f74696f6e20656666656374206d616e6167657200000000000000604082015260600190565b600060208284031215614d3157600080fd5b8151613ea881614465565b60208082526010908201526f6e6f7420696e20616476656e7475726560801b604082015260600190565b634e487b7160e01b600052601160045260246000fd5b600082821015614d8e57614d8e614d66565b500390565b600060208284031215614da557600080fd5b815160ff81168114613ea857600080fd5b600181815b80851115614df1578160001904821115614dd757614dd7614d66565b80851615614de457918102915b93841c9390800290614dbb565b509250929050565b600082614e085750600161090a565b81614e155750600061090a565b8160018114614e2b5760028114614e3557614e51565b600191505061090a565b60ff841115614e4657614e46614d66565b50506001821b61090a565b5060208310610133831016604e8410600b8410161715614e74575081810a61090a565b614e7e8383614db6565b8060001904821115614e9257614e92614d66565b029392505050565b6000613ea860ff841683614df9565b6000816000190483118215151615614ec357614ec3614d66565b500290565b6020808252602c908201527f46756e6374696f6e206d7573742062652063616c6c6564207468726f7567682060408201526b19195b1959d85d1958d85b1b60a21b606082015260800190565b6020808252602c908201527f46756e6374696f6e206d7573742062652063616c6c6564207468726f7567682060408201526b6163746976652070726f787960a01b606082015260800190565b6020808252600790820152666e6f7420454f4160c81b604082015260600190565b600060208284031215614f9357600080fd5b5051919050565b6001600160a01b039384168152919092166020820152604081019190915260600190565b600060208284031215614fd057600080fd5b8151613ea8816149fe565b634e487b7160e01b600052603260045260246000fd5b600060001982141561500557615005614d66565b5060010190565b634e487b7160e01b600052602160045260246000fd5b60006020828403121561503457600080fd5b815160038110613ea857600080fd5b80356004811061473b57600080fd5b6004811061507057634e487b7160e01b600052602160045260246000fd5b9052565b6020808252818101839052600090604080840186845b878110156150c6576150a48361509f84615043565b615052565b818501358386015283820135848401526060928301929091019060010161508a565b5090979650505050505050565b6000808335601e198436030181126150ea57600080fd5b8301803591506001600160401b0382111561510457600080fd5b60200191503681900382131561382f57600080fd5b60005b8381101561513457818101518382015260200161511c565b83811115613c985750506000910152565b81818437506000910190815290565b60006bffffffffffffffffffffffff19808b60601b168352808a60601b16601484015250876028830152866048830152856068830152845161519d816088850160208901615119565b82018385608883013760009301608801928352509098975050505050505050565b600060408083018584526020828186015281865180845260609350838701915082880160005b828110156152185781516151f9858251615052565b80860151858701528701518785015292850192908401906001016151e4565b50919998505050505050505050565b6000602080838503121561523a57600080fd5b82516001600160401b0381111561525057600080fd5b8301601f8101851361526157600080fd5b805161526f6148cb82614887565b81815260069190911b8201830190838101908783111561528e57600080fd5b928401925b828410156152da57604084890312156152ac5760008081fd5b6152b4614611565b84516152bf816149fe565b81528486015186820152825260409093019290840190615293565b979650505050505050565b600082198211156152f8576152f8614d66565b500190565b8035602083101561090a57600019602084900360031b1b1692915050565b6001600160a01b0394851681529290931660208301526040820152606081019190915260a06080820181905260009082015260c00190565b81835260006001600160fb1b0383111561536c57600080fd5b8260051b8083602087013760009401602001938452509192915050565b60208152600063ffffffff8061539e85614727565b166020840152806153b160208601614727565b166040840152806153c460408601614727565b166060840152506060830135601e198436030181126153e257600080fd5b830180356001600160401b038111156153fa57600080fd5b8060051b360385131561540c57600080fd5b608080850152613fda60a085018260208501615353565b60006bffffffffffffffffffffffff19808e60601b168352808d60601b166014840152508a6028830152896048830152886068830152875161546c816088850160208c01615119565b87151560f81b6088918401918201526001600160fb1b0386111561548f57600080fd5b8560051b80886089840137600091016089019081526154af818587615145565b9e9d5050505050505050505050505050565b6000602082840312156154d357600080fd5b613ea882614727565b6000808335601e198436030181126154f357600080fd5b8301803591506001600160401b0382111561550d57600080fd5b6020019150600581901b360382131561382f57600080fd5b6020808252602b908201527f496e697469616c697a61626c653a20636f6e7472616374206973206e6f74206960408201526a6e697469616c697a696e6760a81b606082015260800190565b6001600160a01b03841681526080602080830182905284549183018290526000858152818120909290919060a0850190845b818110156155be578454835260019485019492840192016155a2565b505084810360408601526155d2818761476c565b858103606090960195909552506000845290920195945050505050565b8183823760009101908152919050565b60006020828403121561561157600080fd5b613ea882615043565b60006060828403121561562c57600080fd5b604051606081018181106001600160401b038211171561564e5761564e6145fb565b60405261565a83615043565b815260208301356020820152604083013560408201528091505092915050565b7f416363657373436f6e74726f6c3a206163636f756e74200000000000000000008152600083516156b2816017850160208801615119565b7001034b99036b4b9b9b4b733903937b6329607d1b60179184019182015283516156e3816028840160208801615119565b01602801949350505050565b602081526000825180602084015261570e816040850160208701615119565b601f01601f19169190910160400192915050565b60008161573157615731614d66565b506000190190565b6000825161574b818460208701615119565b919091019291505056fe5ebb6fbab10c3645b459a56c9813f9542f8610dab78a48a3db3c3e48820ddf3a360894a13ba1a3210667c828492db98dca3e2076cc3735a920a3ca505d382bbc416464726573733a206c6f772d6c6576656c2064656c65676174652063616c6c206661696c6564a2646970667358221220b76258db5c217e745c4ca886c3f0f4fcbfb09654fa646902dca039459a02caae64736f6c63430008090033",
  "linkReferences": {},
  "deployedLinkReferences": {}
}