{
  "_format": "hh-sol-artifact-1",
  "contractName": "Foundry",
  "sourceName": "contracts/ottopia/Foundry.sol",
  "abi": [
    {
      "anonymous": false,
      "inputs": [
        {
          "indexed": true,
          "internalType": "uint256",
          "name": "id",
          "type": "uint256"
        },
        {
          "indexed": false,
          "internalType": "uint256[]",
          "name": "materials",
          "type": "uint256[]"
        },
        {
          "indexed": false,
          "internalType": "uint256[]",
          "name": "values",
          "type": "uint256[]"
        },
        {
          "indexed": false,
          "internalType": "uint256",
          "name": "result",
          "type": "uint256"
        },
        {
          "indexed": false,
          "internalType": "uint256",
          "name": "startedAt",
          "type": "uint256"
        },
        {
          "indexed": false,
          "internalType": "uint256",
          "name": "endedAt",
          "type": "uint256"
        },
        {
          "indexed": false,
          "internalType": "uint256",
          "name": "fishPrice",
          "type": "uint256"
        }
      ],
      "name": "AddFormula",
      "type": "event"
    },
    {
      "anonymous": false,
      "inputs": [
        {
          "indexed": false,
          "internalType": "address",
          "name": "previousAdmin",
          "type": "address"
        },
        {
          "indexed": false,
          "internalType": "address",
          "name": "newAdmin",
          "type": "address"
        }
      ],
      "name": "AdminChanged",
      "type": "event"
    },
    {
      "anonymous": false,
      "inputs": [
        {
          "indexed": true,
          "internalType": "address",
          "name": "beacon",
          "type": "address"
        }
      ],
      "name": "BeaconUpgraded",
      "type": "event"
    },
    {
      "anonymous": false,
      "inputs": [
        {
          "indexed": false,
          "internalType": "uint8",
          "name": "version",
          "type": "uint8"
        }
      ],
      "name": "Initialized",
      "type": "event"
    },
    {
      "anonymous": false,
      "inputs": [
        {
          "indexed": true,
          "internalType": "bytes32",
          "name": "role",
          "type": "bytes32"
        },
        {
          "indexed": true,
          "internalType": "bytes32",
          "name": "previousAdminRole",
          "type": "bytes32"
        },
        {
          "indexed": true,
          "internalType": "bytes32",
          "name": "newAdminRole",
          "type": "bytes32"
        }
      ],
      "name": "RoleAdminChanged",
      "type": "event"
    },
    {
      "anonymous": false,
      "inputs": [
        {
          "indexed": true,
          "internalType": "bytes32",
          "name": "role",
          "type": "bytes32"
        },
        {
          "indexed": true,
          "internalType": "address",
          "name": "account",
          "type": "address"
        },
        {
          "indexed": true,
          "internalType": "address",
          "name": "sender",
          "type": "address"
        }
      ],
      "name": "RoleGranted",
      "type": "event"
    },
    {
      "anonymous": false,
      "inputs": [
        {
          "indexed": true,
          "internalType": "bytes32",
          "name": "role",
          "type": "bytes32"
        },
        {
          "indexed": true,
          "internalType": "address",
          "name": "account",
          "type": "address"
        },
        {
          "indexed": true,
          "internalType": "address",
          "name": "sender",
          "type": "address"
        }
      ],
      "name": "RoleRevoked",
      "type": "event"
    },
    {
      "anonymous": false,
      "inputs": [
        {
          "indexed": true,
          "internalType": "uint256",
          "name": "id",
          "type": "uint256"
        },
        {
          "indexed": false,
          "internalType": "uint256[]",
          "name": "materials",
          "type": "uint256[]"
        },
        {
          "indexed": false,
          "internalType": "uint256[]",
          "name": "values",
          "type": "uint256[]"
        },
        {
          "indexed": false,
          "internalType": "uint256",
          "name": "result",
          "type": "uint256"
        },
        {
          "indexed": false,
          "internalType": "uint256",
          "name": "startedAt",
          "type": "uint256"
        },
        {
          "indexed": false,
          "internalType": "uint256",
          "name": "endedAt",
          "type": "uint256"
        },
        {
          "indexed": false,
          "internalType": "uint256",
          "name": "fishPrice",
          "type": "uint256"
        }
      ],
      "name": "SetFormula",
      "type": "event"
    },
    {
      "anonymous": false,
      "inputs": [
        {
          "indexed": true,
          "internalType": "address",
          "name": "implementation",
          "type": "address"
        }
      ],
      "name": "Upgraded",
      "type": "event"
    },
    {
      "inputs": [],
      "name": "DEFAULT_ADMIN_ROLE",
      "outputs": [
        {
          "internalType": "bytes32",
          "name": "",
          "type": "bytes32"
        }
      ],
      "stateMutability": "view",
      "type": "function"
    },
    {
      "inputs": [],
      "name": "FISH",
      "outputs": [
        {
          "internalType": "contract IERC20Burnable",
          "name": "",
          "type": "address"
        }
      ],
      "stateMutability": "view",
      "type": "function"
    },
    {
      "inputs": [],
      "name": "ITEM",
      "outputs": [
        {
          "internalType": "contract IERC1155Preset",
          "name": "",
          "type": "address"
        }
      ],
      "stateMutability": "view",
      "type": "function"
    },
    {
      "inputs": [],
      "name": "MANAGER_ROLE",
      "outputs": [
        {
          "internalType": "bytes32",
          "name": "",
          "type": "bytes32"
        }
      ],
      "stateMutability": "view",
      "type": "function"
    },
    {
      "inputs": [
        {
          "components": [
            {
              "internalType": "uint256[]",
              "name": "materials",
              "type": "uint256[]"
            },
            {
              "internalType": "uint256[]",
              "name": "values",
              "type": "uint256[]"
            },
            {
              "internalType": "uint256",
              "name": "result",
              "type": "uint256"
            },
            {
              "internalType": "uint256",
              "name": "startedAt",
              "type": "uint256"
            },
            {
              "internalType": "uint256",
              "name": "endedAt",
              "type": "uint256"
            },
            {
              "internalType": "uint256",
              "name": "fishPrice",
              "type": "uint256"
            }
          ],
          "internalType": "struct Foundry.Formula",
          "name": "formula_",
          "type": "tuple"
        }
      ],
      "name": "addFormula",
      "outputs": [],
      "stateMutability": "nonpayable",
      "type": "function"
    },
    {
      "inputs": [
        {
          "internalType": "uint256",
          "name": "formulaId",
          "type": "uint256"
        },
        {
          "internalType": "uint256",
          "name": "amount",
          "type": "uint256"
        }
      ],
      "name": "forge",
      "outputs": [],
      "stateMutability": "nonpayable",
      "type": "function"
    },
    {
      "inputs": [
        {
          "internalType": "uint256",
          "name": "id",
          "type": "uint256"
        }
      ],
      "name": "formula",
      "outputs": [
        {
          "components": [
            {
              "internalType": "uint256[]",
              "name": "materials",
              "type": "uint256[]"
            },
            {
              "internalType": "uint256[]",
              "name": "values",
              "type": "uint256[]"
            },
            {
              "internalType": "uint256",
              "name": "result",
              "type": "uint256"
            },
            {
              "internalType": "uint256",
              "name": "startedAt",
              "type": "uint256"
            },
            {
              "internalType": "uint256",
              "name": "endedAt",
              "type": "uint256"
            },
            {
              "internalType": "uint256",
              "name": "fishPrice",
              "type": "uint256"
            }
          ],
          "internalType": "struct Foundry.Formula",
          "name": "",
          "type": "tuple"
        }
      ],
      "stateMutability": "view",
      "type": "function"
    },
    {
      "inputs": [
        {
          "internalType": "bytes32",
          "name": "role",
          "type": "bytes32"
        }
      ],
      "name": "getRoleAdmin",
      "outputs": [
        {
          "internalType": "bytes32",
          "name": "",
          "type": "bytes32"
        }
      ],
      "stateMutability": "view",
      "type": "function"
    },
    {
      "inputs": [
        {
          "internalType": "bytes32",
          "name": "role",
          "type": "bytes32"
        },
        {
          "internalType": "address",
          "name": "account",
          "type": "address"
        }
      ],
      "name": "grantRole",
      "outputs": [],
      "stateMutability": "nonpayable",
      "type": "function"
    },
    {
      "inputs": [
        {
          "internalType": "bytes32",
          "name": "role",
          "type": "bytes32"
        },
        {
          "internalType": "address",
          "name": "account",
          "type": "address"
        }
      ],
      "name": "hasRole",
      "outputs": [
        {
          "internalType": "bool",
          "name": "",
          "type": "bool"
        }
      ],
      "stateMutability": "view",
      "type": "function"
    },
    {
      "inputs": [
        {
          "internalType": "address",
          "name": "item_",
          "type": "address"
        }
      ],
      "name": "initialize",
      "outputs": [],
      "stateMutability": "nonpayable",
      "type": "function"
    },
    {
      "inputs": [],
      "name": "proxiableUUID",
      "outputs": [
        {
          "internalType": "bytes32",
          "name": "",
          "type": "bytes32"
        }
      ],
      "stateMutability": "view",
      "type": "function"
    },
    {
      "inputs": [
        {
          "internalType": "bytes32",
          "name": "role",
          "type": "bytes32"
        },
        {
          "internalType": "address",
          "name": "account",
          "type": "address"
        }
      ],
      "name": "renounceRole",
      "outputs": [],
      "stateMutability": "nonpayable",
      "type": "function"
    },
    {
      "inputs": [
        {
          "internalType": "bytes32",
          "name": "role",
          "type": "bytes32"
        },
        {
          "internalType": "address",
          "name": "account",
          "type": "address"
        }
      ],
      "name": "revokeRole",
      "outputs": [],
      "stateMutability": "nonpayable",
      "type": "function"
    },
    {
      "inputs": [
        {
          "internalType": "address",
          "name": "fish_",
          "type": "address"
        }
      ],
      "name": "setFish",
      "outputs": [],
      "stateMutability": "nonpayable",
      "type": "function"
    },
    {
      "inputs": [
        {
          "internalType": "uint256",
          "name": "id",
          "type": "uint256"
        },
        {
          "components": [
            {
              "internalType": "uint256[]",
              "name": "materials",
              "type": "uint256[]"
            },
            {
              "internalType": "uint256[]",
              "name": "values",
              "type": "uint256[]"
            },
            {
              "internalType": "uint256",
              "name": "result",
              "type": "uint256"
            },
            {
              "internalType": "uint256",
              "name": "startedAt",
              "type": "uint256"
            },
            {
              "internalType": "uint256",
              "name": "endedAt",
              "type": "uint256"
            },
            {
              "internalType": "uint256",
              "name": "fishPrice",
              "type": "uint256"
            }
          ],
          "internalType": "struct Foundry.Formula",
          "name": "formula_",
          "type": "tuple"
        }
      ],
      "name": "setFormula",
      "outputs": [],
      "stateMutability": "nonpayable",
      "type": "function"
    },
    {
      "inputs": [
        {
          "internalType": "bytes4",
          "name": "interfaceId",
          "type": "bytes4"
        }
      ],
      "name": "supportsInterface",
      "outputs": [
        {
          "internalType": "bool",
          "name": "",
          "type": "bool"
        }
      ],
      "stateMutability": "view",
      "type": "function"
    },
    {
      "inputs": [],
      "name": "totalFormulas",
      "outputs": [
        {
          "internalType": "uint256",
          "name": "",
          "type": "uint256"
        }
      ],
      "stateMutability": "view",
      "type": "function"
    },
    {
      "inputs": [
        {
          "internalType": "address",
          "name": "newImplementation",
          "type": "address"
        }
      ],
      "name": "upgradeTo",
      "outputs": [],
      "stateMutability": "nonpayable",
      "type": "function"
    },
    {
      "inputs": [
        {
          "internalType": "address",
          "name": "newImplementation",
          "type": "address"
        },
        {
          "internalType": "bytes",
          "name": "data",
          "type": "bytes"
        }
      ],
      "name": "upgradeToAndCall",
      "outputs": [],
      "stateMutability": "payable",
      "type": "function"
    }
  ],
  "bytecode": "0x60a06040523060805234801561001457600080fd5b50608051611eaa61004c60003960008181610629015281816106690152818161093f0152818161097f0152610a0e0152611eaa6000f3fe60806040526004361061011f5760003560e01c806352d1902d116100a0578063c70bf94411610064578063c70bf94414610333578063d547741f14610353578063ec87621c14610373578063ef0b8784146103a7578063ffcff32c146103c757600080fd5b806352d1902d146102b257806391d14854146102c7578063a217fddf146102e7578063baf9ea4c146102fc578063c4d66de81461031357600080fd5b80633659cfe6116100e75780633659cfe6146102065780633cd7420614610226578063423ed5eb146102465780634f1ef286146102665780634f7efc451461027957600080fd5b806301ffc9a71461012457806314c0ffdc14610159578063248a9ca3146101865780632f2ff15d146101c457806336568abe146101e6575b600080fd5b34801561013057600080fd5b5061014461013f366004611642565b6103e8565b60405190151581526020015b60405180910390f35b34801561016557600080fd5b5061017961017436600461166c565b61041f565b60405161015091906116c0565b34801561019257600080fd5b506101b66101a136600461166c565b60009081526065602052604090206001015490565b604051908152602001610150565b3480156101d057600080fd5b506101e46101df36600461174a565b610576565b005b3480156101f257600080fd5b506101e461020136600461174a565b6105a0565b34801561021257600080fd5b506101e4610221366004611776565b61061e565b34801561023257600080fd5b506101e46102413660046117a9565b6106fe565b34801561025257600080fd5b506101e46102613660046117f0565b61081e565b6101e4610274366004611843565b610934565b34801561028557600080fd5b5061012d5461029a906001600160a01b031681565b6040516001600160a01b039091168152602001610150565b3480156102be57600080fd5b506101b6610a01565b3480156102d357600080fd5b506101446102e236600461174a565b610ab4565b3480156102f357600080fd5b506101b6600081565b34801561030857600080fd5b506101b661012f5481565b34801561031f57600080fd5b506101e461032e366004611776565b610adf565b34801561033f57600080fd5b506101e461034e366004611776565b610c0c565b34801561035f57600080fd5b506101e461036e36600461174a565b610c3a565b34801561037f57600080fd5b506101b67f241ecf16d79d0f8dbfb92cbc07fe17840425976cf0667f022fe9877caa831b0881565b3480156103b357600080fd5b506101e46103c2366004611905565b610c5f565b3480156103d357600080fd5b506101305461029a906001600160a01b031681565b60006001600160e01b03198216637965db0b60e01b148061041957506301ffc9a760e01b6001600160e01b03198316145b92915050565b6104586040518060c001604052806060815260200160608152602001600081526020016000815260200160008152602001600081525090565b8161012f5481106104845760405162461bcd60e51b815260040161047b90611927565b60405180910390fd5b600083815261012e60209081526040918290208251815460e09381028201840190945260c0810184815290939192849284918401828280156104e557602002820191906000526020600020905b8154815260200190600101908083116104d1575b505050505081526020016001820180548060200260200160405190810160405280929190818152602001828054801561053d57602002820191906000526020600020905b815481526020019060010190808311610529575b50505050508152602001600282015481526020016003820154815260200160048201548152602001600582015481525050915050919050565b60008281526065602052604090206001015461059181610eec565b61059b8383610ef6565b505050565b6001600160a01b03811633146106105760405162461bcd60e51b815260206004820152602f60248201527f416363657373436f6e74726f6c3a2063616e206f6e6c792072656e6f756e636560448201526e103937b632b9903337b91039b2b63360891b606482015260840161047b565b61061a8282610f7c565b5050565b306001600160a01b037f00000000000000000000000000000000000000000000000000000000000000001614156106675760405162461bcd60e51b815260040161047b90611950565b7f00000000000000000000000000000000000000000000000000000000000000006001600160a01b03166106b0600080516020611e2e833981519152546001600160a01b031690565b6001600160a01b0316146106d65760405162461bcd60e51b815260040161047b9061199c565b6106df81610fe3565b604080516000808252602082019092526106fb91839190610fee565b50565b610709600033611168565b8161012f54811061072c5760405162461bcd60e51b815260040161047b90611927565b61073960208301836119e8565b905061074583806119e8565b9050146107945760405162461bcd60e51b815260206004820152601b60248201527f696e76616c6964206d6174657269616c73206f722076616c7565730000000000604482015260640161047b565b600083815261012e6020526040902082906107af8282611aec565b5050600083815261012e6020526040908190206002810154600382015460048301546005840154945188957f7a253715d8536207b42c1cdd9d800fb9551c10ce4dc70eb22951c207c86658649561081195909460018601949193909290611bee565b60405180910390a2505050565b610829600033611168565b61083660208201826119e8565b905061084282806119e8565b9050146108915760405162461bcd60e51b815260206004820152601b60248201527f696e76616c6964206d6174657269616c73206f722076616c7565730000000000604482015260640161047b565b61012f54600081815261012e6020526040902082906108b08282611aec565b505061012f80549060006108c383611c39565b9091555050600081815261012e6020526040908190206002810154600382015460048301546005840154945186957f4b6ee5bcfedf6bb18e715e5a1bf5f389ef92b64266d17b015a93d048690cd4419561092895909460018601949193909290611bee565b60405180910390a25050565b306001600160a01b037f000000000000000000000000000000000000000000000000000000000000000016141561097d5760405162461bcd60e51b815260040161047b90611950565b7f00000000000000000000000000000000000000000000000000000000000000006001600160a01b03166109c6600080516020611e2e833981519152546001600160a01b031690565b6001600160a01b0316146109ec5760405162461bcd60e51b815260040161047b9061199c565b6109f582610fe3565b61061a82826001610fee565b6000306001600160a01b037f00000000000000000000000000000000000000000000000000000000000000001614610aa15760405162461bcd60e51b815260206004820152603860248201527f555550535570677261646561626c653a206d757374206e6f742062652063616c60448201527f6c6564207468726f7567682064656c656761746563616c6c0000000000000000606482015260840161047b565b50600080516020611e2e83398151915290565b60009182526065602090815260408084206001600160a01b0393909316845291905290205460ff1690565b600054610100900460ff1615808015610aff5750600054600160ff909116105b80610b195750303b158015610b19575060005460ff166001145b610b7c5760405162461bcd60e51b815260206004820152602e60248201527f496e697469616c697a61626c653a20636f6e747261637420697320616c72656160448201526d191e481a5b9a5d1a585b1a5e995960921b606482015260840161047b565b6000805460ff191660011790558015610b9f576000805461ff0019166101001790555b610ba76111cc565b61012d80546001600160a01b0319166001600160a01b038416179055801561061a576000805461ff0019169055604051600181527f7f26b83ff96e1f2b6a682f133852f6798a09c465da95921460cefb38474024989060200160405180910390a15050565b610c17600033611168565b61013080546001600160a01b0319166001600160a01b0392909216919091179055565b600082815260656020526040902060010154610c5581610eec565b61059b8383610f7c565b323314610ca35760405162461bcd60e51b815260206004820152601260248201527131b0b63632b91034b9903737ba103ab9b2b960711b604482015260640161047b565b8161012f548110610cc65760405162461bcd60e51b815260040161047b90611927565b600083815261012e602052604090206003015483904210801590610cfb5750600081815261012e602052604090206004015442105b610d3d5760405162461bcd60e51b8152602060048201526013602482015272696e65666665637469766520666f726d756c6160681b604482015260640161047b565b600084815261012e60205260408120905b84811015610dd35761012d54604051631ac8311560e21b81526001600160a01b0390911690636b20c45490610d8e90339086906001820190600401611c54565b600060405180830381600087803b158015610da857600080fd5b505af1158015610dbc573d6000803e3d6000fd5b505050508080610dcb90611c39565b915050610d4e565b50600581015415610e65576101305460058201546001600160a01b03909116906379cc6790903390610e06908890611a4f565b6040516001600160e01b031960e085901b1681526001600160a01b0390921660048301526024820152604401600060405180830381600087803b158015610e4c57600080fd5b505af1158015610e60573d6000803e3d6000fd5b505050505b61012d54600282015460405163731133e960e01b815233600482015260248101919091526044810186905260806064820152600060848201526001600160a01b039091169063731133e99060a401600060405180830381600087803b158015610ecd57600080fd5b505af1158015610ee1573d6000803e3d6000fd5b505050505050505050565b6106fb8133611168565b610f008282610ab4565b61061a5760008281526065602090815260408083206001600160a01b03851684529091529020805460ff19166001179055610f383390565b6001600160a01b0316816001600160a01b0316837f2f8788117e7eff1d82e926ec794901d17c78024a50270940304540a733656f0d60405160405180910390a45050565b610f868282610ab4565b1561061a5760008281526065602090815260408083206001600160a01b0385168085529252808320805460ff1916905551339285917ff6391f5c32d9c69d2a47ea670b442974b53935d1edc7fd64eb21e047a839171b9190a45050565b6106fb600033611168565b7f4910fdfa16fed3260ed0e7147f7cc6da11a60208b5b9406d12a635614ffd91435460ff16156110215761059b8361123a565b826001600160a01b03166352d1902d6040518163ffffffff1660e01b815260040160206040518083038186803b15801561105a57600080fd5b505afa92505050801561108a575060408051601f3d908101601f1916820190925261108791810190611c94565b60015b6110ed5760405162461bcd60e51b815260206004820152602e60248201527f45524331393637557067726164653a206e657720696d706c656d656e7461746960448201526d6f6e206973206e6f74205555505360901b606482015260840161047b565b600080516020611e2e833981519152811461115c5760405162461bcd60e51b815260206004820152602960248201527f45524331393637557067726164653a20756e737570706f727465642070726f786044820152681a58589b195555525160ba1b606482015260840161047b565b5061059b8383836112d6565b6111728282610ab4565b61061a5761118a816001600160a01b03166014611301565b611195836020611301565b6040516020016111a6929190611cd9565b60408051601f198184030181529082905262461bcd60e51b825261047b91600401611d4e565b600054610100900460ff166111f35760405162461bcd60e51b815260040161047b90611d81565b6111fb6114a4565b6112036114a4565b61120e6000336114cb565b6112387f241ecf16d79d0f8dbfb92cbc07fe17840425976cf0667f022fe9877caa831b08336114cb565b565b6001600160a01b0381163b6112a75760405162461bcd60e51b815260206004820152602d60248201527f455243313936373a206e657720696d706c656d656e746174696f6e206973206e60448201526c1bdd08184818dbdb9d1c9858dd609a1b606482015260840161047b565b600080516020611e2e83398151915280546001600160a01b0319166001600160a01b0392909216919091179055565b6112df836114d5565b6000825111806112ec5750805b1561059b576112fb8383611515565b50505050565b60606000611310836002611a4f565b61131b906002611dcc565b67ffffffffffffffff8111156113335761133361182d565b6040519080825280601f01601f19166020018201604052801561135d576020820181803683370190505b509050600360fc1b8160008151811061137857611378611de4565b60200101906001600160f81b031916908160001a905350600f60fb1b816001815181106113a7576113a7611de4565b60200101906001600160f81b031916908160001a90535060006113cb846002611a4f565b6113d6906001611dcc565b90505b600181111561144e576f181899199a1a9b1b9c1cb0b131b232b360811b85600f166010811061140a5761140a611de4565b1a60f81b82828151811061142057611420611de4565b60200101906001600160f81b031916908160001a90535060049490941c9361144781611dfa565b90506113d9565b50831561149d5760405162461bcd60e51b815260206004820181905260248201527f537472696e67733a20686578206c656e67746820696e73756666696369656e74604482015260640161047b565b9392505050565b600054610100900460ff166112385760405162461bcd60e51b815260040161047b90611d81565b61061a8282610ef6565b6114de8161123a565b6040516001600160a01b038216907fbc7cd75a20ee27fd9adebab32041f755214dbc6bffa90cc0225b39da2e5c2d3b90600090a250565b60606001600160a01b0383163b61157d5760405162461bcd60e51b815260206004820152602660248201527f416464726573733a2064656c65676174652063616c6c20746f206e6f6e2d636f6044820152651b9d1c9858dd60d21b606482015260840161047b565b600080846001600160a01b0316846040516115989190611e11565b600060405180830381855af49150503d80600081146115d3576040519150601f19603f3d011682016040523d82523d6000602084013e6115d8565b606091505b50915091506116008282604051806060016040528060278152602001611e4e60279139611609565b95945050505050565b6060831561161857508161149d565b8251156116285782518084602001fd5b8160405162461bcd60e51b815260040161047b9190611d4e565b60006020828403121561165457600080fd5b81356001600160e01b03198116811461149d57600080fd5b60006020828403121561167e57600080fd5b5035919050565b600081518084526020808501945080840160005b838110156116b557815187529582019590820190600101611699565b509495945050505050565b602081526000825160c060208401526116dc60e0840182611685565b90506020840151601f198483030160408501526116f98282611685565b9150506040840151606084015260608401516080840152608084015160a084015260a084015160c08401528091505092915050565b80356001600160a01b038116811461174557600080fd5b919050565b6000806040838503121561175d57600080fd5b8235915061176d6020840161172e565b90509250929050565b60006020828403121561178857600080fd5b61149d8261172e565b600060c082840312156117a357600080fd5b50919050565b600080604083850312156117bc57600080fd5b82359150602083013567ffffffffffffffff8111156117da57600080fd5b6117e685828601611791565b9150509250929050565b60006020828403121561180257600080fd5b813567ffffffffffffffff81111561181957600080fd5b61182584828501611791565b949350505050565b634e487b7160e01b600052604160045260246000fd5b6000806040838503121561185657600080fd5b61185f8361172e565b9150602083013567ffffffffffffffff8082111561187c57600080fd5b818501915085601f83011261189057600080fd5b8135818111156118a2576118a261182d565b604051601f8201601f19908116603f011681019083821181831017156118ca576118ca61182d565b816040528281528860208487010111156118e357600080fd5b8260208601602083013760006020848301015280955050505050509250929050565b6000806040838503121561191857600080fd5b50508035926020909101359150565b6020808252600f908201526e696e76616c696420666f726d756c6160881b604082015260600190565b6020808252602c908201527f46756e6374696f6e206d7573742062652063616c6c6564207468726f7567682060408201526b19195b1959d85d1958d85b1b60a21b606082015260800190565b6020808252602c908201527f46756e6374696f6e206d7573742062652063616c6c6564207468726f7567682060408201526b6163746976652070726f787960a01b606082015260800190565b6000808335601e198436030181126119ff57600080fd5b83018035915067ffffffffffffffff821115611a1a57600080fd5b6020019150600581901b3603821315611a3257600080fd5b9250929050565b634e487b7160e01b600052601160045260246000fd5b6000816000190483118215151615611a6957611a69611a39565b500290565b600160401b831115611a8257611a8261182d565b805483825580841015611ab9576000828152602081208581019083015b80821015611ab557828255600182019150611a9f565b5050505b5060008181526020812083915b85811015611ae4578235825560209092019160019182019101611ac6565b505050505050565b611af682836119e8565b600160401b811115611b0a57611b0a61182d565b825481845580821015611b41576000848152602081208381019083015b80821015611b3d57828255600182019150611b27565b5050505b5060008381526020902060005b82811015611b6c578335825560209093019260019182019101611b4e565b50505050611b7d60208301836119e8565b611b8b818360018601611a6e565b505060408201356002820155606082013560038201556080820135600482015560a082013560058201555050565b6000815480845260208085019450836000528060002060005b838110156116b557815487529582019560019182019101611bd2565b60c081526000611c0160c0830189611bb9565b8281036020840152611c138189611bb9565b9150508560408301528460608301528360808301528260a0830152979650505050505050565b6000600019821415611c4d57611c4d611a39565b5060010190565b6001600160a01b0384168152606060208201819052600090611c7890830185611bb9565b8281036040840152611c8a8185611bb9565b9695505050505050565b600060208284031215611ca657600080fd5b5051919050565b60005b83811015611cc8578181015183820152602001611cb0565b838111156112fb5750506000910152565b7f416363657373436f6e74726f6c3a206163636f756e7420000000000000000000815260008351611d11816017850160208801611cad565b7001034b99036b4b9b9b4b733903937b6329607d1b6017918401918201528351611d42816028840160208801611cad565b01602801949350505050565b6020815260008251806020840152611d6d816040850160208701611cad565b601f01601f19169190910160400192915050565b6020808252602b908201527f496e697469616c697a61626c653a20636f6e7472616374206973206e6f74206960408201526a6e697469616c697a696e6760a81b606082015260800190565b60008219821115611ddf57611ddf611a39565b500190565b634e487b7160e01b600052603260045260246000fd5b600081611e0957611e09611a39565b506000190190565b60008251611e23818460208701611cad565b919091019291505056fe360894a13ba1a3210667c828492db98dca3e2076cc3735a920a3ca505d382bbc416464726573733a206c6f772d6c6576656c2064656c65676174652063616c6c206661696c6564a2646970667358221220ad01d263ec24cc5640efbf5a5550c7819a9291914ec84b77354ad3a2a7dcac0f64736f6c63430008090033",
  "linkReferences": {},
  "deployedLinkReferences": {}
}