{
  "_format": "hh-sol-artifact-1",
  "contractName": "OttopiaStore",
  "sourceName": "contracts/ottopia/OttopiaStore.sol",
  "abi": [
    {
      "anonymous": false,
      "inputs": [
        {
          "indexed": false,
          "internalType": "address",
          "name": "previousAdmin",
          "type": "address"
        },
        {
          "indexed": false,
          "internalType": "address",
          "name": "newAdmin",
          "type": "address"
        }
      ],
      "name": "AdminChanged",
      "type": "event"
    },
    {
      "anonymous": false,
      "inputs": [
        {
          "indexed": true,
          "internalType": "address",
          "name": "beacon",
          "type": "address"
        }
      ],
      "name": "BeaconUpgraded",
      "type": "event"
    },
    {
      "anonymous": false,
      "inputs": [
        {
          "indexed": true,
          "internalType": "uint256",
          "name": "id",
          "type": "uint256"
        },
        {
          "indexed": true,
          "internalType": "address",
          "name": "buyer",
          "type": "address"
        },
        {
          "indexed": true,
          "internalType": "address",
          "name": "to",
          "type": "address"
        },
        {
          "indexed": false,
          "internalType": "uint256",
          "name": "price",
          "type": "uint256"
        },
        {
          "indexed": false,
          "internalType": "uint256",
          "name": "amount",
          "type": "uint256"
        }
      ],
      "name": "BuyProduct",
      "type": "event"
    },
    {
      "anonymous": false,
      "inputs": [
        {
          "indexed": true,
          "internalType": "uint256",
          "name": "id_",
          "type": "uint256"
        }
      ],
      "name": "CreateProduct",
      "type": "event"
    },
    {
      "anonymous": false,
      "inputs": [
        {
          "indexed": true,
          "internalType": "uint256",
          "name": "id_",
          "type": "uint256"
        }
      ],
      "name": "DeleteProduct",
      "type": "event"
    },
    {
      "anonymous": false,
      "inputs": [
        {
          "indexed": true,
          "internalType": "address",
          "name": "previousOwner",
          "type": "address"
        },
        {
          "indexed": true,
          "internalType": "address",
          "name": "newOwner",
          "type": "address"
        }
      ],
      "name": "OwnershipTransferred",
      "type": "event"
    },
    {
      "anonymous": false,
      "inputs": [
        {
          "indexed": true,
          "internalType": "uint256",
          "name": "id",
          "type": "uint256"
        },
        {
          "indexed": true,
          "internalType": "address",
          "name": "redeemer",
          "type": "address"
        },
        {
          "indexed": false,
          "internalType": "uint256",
          "name": "amount",
          "type": "uint256"
        }
      ],
      "name": "RedeemProduct",
      "type": "event"
    },
    {
      "anonymous": false,
      "inputs": [
        {
          "indexed": true,
          "internalType": "bytes32",
          "name": "role",
          "type": "bytes32"
        },
        {
          "indexed": true,
          "internalType": "bytes32",
          "name": "previousAdminRole",
          "type": "bytes32"
        },
        {
          "indexed": true,
          "internalType": "bytes32",
          "name": "newAdminRole",
          "type": "bytes32"
        }
      ],
      "name": "RoleAdminChanged",
      "type": "event"
    },
    {
      "anonymous": false,
      "inputs": [
        {
          "indexed": true,
          "internalType": "bytes32",
          "name": "role",
          "type": "bytes32"
        },
        {
          "indexed": true,
          "internalType": "address",
          "name": "account",
          "type": "address"
        },
        {
          "indexed": true,
          "internalType": "address",
          "name": "sender",
          "type": "address"
        }
      ],
      "name": "RoleGranted",
      "type": "event"
    },
    {
      "anonymous": false,
      "inputs": [
        {
          "indexed": true,
          "internalType": "bytes32",
          "name": "role",
          "type": "bytes32"
        },
        {
          "indexed": true,
          "internalType": "address",
          "name": "account",
          "type": "address"
        },
        {
          "indexed": true,
          "internalType": "address",
          "name": "sender",
          "type": "address"
        }
      ],
      "name": "RoleRevoked",
      "type": "event"
    },
    {
      "anonymous": false,
      "inputs": [
        {
          "indexed": true,
          "internalType": "uint256",
          "name": "id_",
          "type": "uint256"
        }
      ],
      "name": "UpdateProduct",
      "type": "event"
    },
    {
      "anonymous": false,
      "inputs": [
        {
          "indexed": true,
          "internalType": "address",
          "name": "implementation",
          "type": "address"
        }
      ],
      "name": "Upgraded",
      "type": "event"
    },
    {
      "inputs": [],
      "name": "CLAM",
      "outputs": [
        {
          "internalType": "contract IClamERC20",
          "name": "",
          "type": "address"
        }
      ],
      "stateMutability": "view",
      "type": "function"
    },
    {
      "inputs": [],
      "name": "DAO",
      "outputs": [
        {
          "internalType": "address",
          "name": "",
          "type": "address"
        }
      ],
      "stateMutability": "view",
      "type": "function"
    },
    {
      "inputs": [],
      "name": "DEFAULT_ADMIN_ROLE",
      "outputs": [
        {
          "internalType": "bytes32",
          "name": "",
          "type": "bytes32"
        }
      ],
      "stateMutability": "view",
      "type": "function"
    },
    {
      "inputs": [],
      "name": "ITEM",
      "outputs": [
        {
          "internalType": "contract IOttoItemERC1155",
          "name": "",
          "type": "address"
        }
      ],
      "stateMutability": "view",
      "type": "function"
    },
    {
      "inputs": [],
      "name": "MANAGER_ROLE",
      "outputs": [
        {
          "internalType": "bytes32",
          "name": "",
          "type": "bytes32"
        }
      ],
      "stateMutability": "view",
      "type": "function"
    },
    {
      "inputs": [],
      "name": "OTTO",
      "outputs": [
        {
          "internalType": "contract IERC721",
          "name": "",
          "type": "address"
        }
      ],
      "stateMutability": "view",
      "type": "function"
    },
    {
      "inputs": [],
      "name": "REWARD",
      "outputs": [
        {
          "internalType": "address",
          "name": "",
          "type": "address"
        }
      ],
      "stateMutability": "view",
      "type": "function"
    },
    {
      "inputs": [
        {
          "internalType": "uint256",
          "name": "productId_",
          "type": "uint256"
        },
        {
          "internalType": "uint256[]",
          "name": "ottoIds_",
          "type": "uint256[]"
        }
      ],
      "name": "airdropClaimableAmount",
      "outputs": [
        {
          "internalType": "uint256",
          "name": "",
          "type": "uint256"
        }
      ],
      "stateMutability": "view",
      "type": "function"
    },
    {
      "inputs": [
        {
          "internalType": "uint256",
          "name": "",
          "type": "uint256"
        }
      ],
      "name": "airdropInfos",
      "outputs": [
        {
          "internalType": "uint256",
          "name": "startId",
          "type": "uint256"
        },
        {
          "internalType": "uint256",
          "name": "endId",
          "type": "uint256"
        },
        {
          "internalType": "uint256",
          "name": "amount",
          "type": "uint256"
        }
      ],
      "stateMutability": "view",
      "type": "function"
    },
    {
      "inputs": [
        {
          "internalType": "uint256",
          "name": "id_",
          "type": "uint256"
        }
      ],
      "name": "amountOf",
      "outputs": [
        {
          "internalType": "uint256",
          "name": "",
          "type": "uint256"
        }
      ],
      "stateMutability": "view",
      "type": "function"
    },
    {
      "inputs": [
        {
          "internalType": "address",
          "name": "to_",
          "type": "address"
        },
        {
          "internalType": "uint256",
          "name": "id_",
          "type": "uint256"
        },
        {
          "internalType": "uint256",
          "name": "amount_",
          "type": "uint256"
        }
      ],
      "name": "buyNoChainlink",
      "outputs": [],
      "stateMutability": "nonpayable",
      "type": "function"
    },
    {
      "inputs": [
        {
          "internalType": "uint256",
          "name": "productId_",
          "type": "uint256"
        },
        {
          "internalType": "uint256[]",
          "name": "ottoIds_",
          "type": "uint256[]"
        }
      ],
      "name": "claim",
      "outputs": [],
      "stateMutability": "nonpayable",
      "type": "function"
    },
    {
      "inputs": [
        {
          "internalType": "uint256",
          "name": "productId_",
          "type": "uint256"
        },
        {
          "internalType": "uint256[]",
          "name": "ottoIds_",
          "type": "uint256[]"
        }
      ],
      "name": "claimNoChainlink",
      "outputs": [],
      "stateMutability": "nonpayable",
      "type": "function"
    },
    {
      "inputs": [
        {
          "internalType": "uint256",
          "name": "",
          "type": "uint256"
        },
        {
          "internalType": "uint256",
          "name": "",
          "type": "uint256"
        }
      ],
      "name": "claimed",
      "outputs": [
        {
          "internalType": "uint256",
          "name": "",
          "type": "uint256"
        }
      ],
      "stateMutability": "view",
      "type": "function"
    },
    {
      "inputs": [
        {
          "internalType": "uint256",
          "name": "",
          "type": "uint256"
        }
      ],
      "name": "coupons",
      "outputs": [
        {
          "internalType": "uint256",
          "name": "productId",
          "type": "uint256"
        },
        {
          "internalType": "bool",
          "name": "created",
          "type": "bool"
        }
      ],
      "stateMutability": "view",
      "type": "function"
    },
    {
      "inputs": [
        {
          "internalType": "uint256",
          "name": "itemId_",
          "type": "uint256"
        },
        {
          "internalType": "uint256",
          "name": "productId_",
          "type": "uint256"
        }
      ],
      "name": "createCoupon",
      "outputs": [],
      "stateMutability": "nonpayable",
      "type": "function"
    },
    {
      "inputs": [
        {
          "components": [
            {
              "internalType": "uint256",
              "name": "price",
              "type": "uint256"
            },
            {
              "internalType": "uint256",
              "name": "discountPrice",
              "type": "uint256"
            },
            {
              "internalType": "uint256",
              "name": "amount",
              "type": "uint256"
            },
            {
              "internalType": "string",
              "name": "typ",
              "type": "string"
            }
          ],
          "internalType": "struct IOttopiaStore.Product",
          "name": "product_",
          "type": "tuple"
        },
        {
          "internalType": "address",
          "name": "factory_",
          "type": "address"
        }
      ],
      "name": "createProduct",
      "outputs": [],
      "stateMutability": "nonpayable",
      "type": "function"
    },
    {
      "inputs": [
        {
          "internalType": "uint256",
          "name": "itemId_",
          "type": "uint256"
        }
      ],
      "name": "deleteCoupon",
      "outputs": [],
      "stateMutability": "nonpayable",
      "type": "function"
    },
    {
      "inputs": [
        {
          "internalType": "uint256",
          "name": "id_",
          "type": "uint256"
        }
      ],
      "name": "deleteProduct",
      "outputs": [],
      "stateMutability": "nonpayable",
      "type": "function"
    },
    {
      "inputs": [
        {
          "internalType": "uint256",
          "name": "",
          "type": "uint256"
        }
      ],
      "name": "factories",
      "outputs": [
        {
          "internalType": "address",
          "name": "",
          "type": "address"
        }
      ],
      "stateMutability": "view",
      "type": "function"
    },
    {
      "inputs": [
        {
          "internalType": "bytes32",
          "name": "role",
          "type": "bytes32"
        }
      ],
      "name": "getRoleAdmin",
      "outputs": [
        {
          "internalType": "bytes32",
          "name": "",
          "type": "bytes32"
        }
      ],
      "stateMutability": "view",
      "type": "function"
    },
    {
      "inputs": [
        {
          "internalType": "address",
          "name": "manager_",
          "type": "address"
        }
      ],
      "name": "grantManager",
      "outputs": [],
      "stateMutability": "nonpayable",
      "type": "function"
    },
    {
      "inputs": [
        {
          "internalType": "bytes32",
          "name": "role",
          "type": "bytes32"
        },
        {
          "internalType": "address",
          "name": "account",
          "type": "address"
        }
      ],
      "name": "grantRole",
      "outputs": [],
      "stateMutability": "nonpayable",
      "type": "function"
    },
    {
      "inputs": [
        {
          "internalType": "bytes32",
          "name": "role",
          "type": "bytes32"
        },
        {
          "internalType": "address",
          "name": "account",
          "type": "address"
        }
      ],
      "name": "hasRole",
      "outputs": [
        {
          "internalType": "bool",
          "name": "",
          "type": "bool"
        }
      ],
      "stateMutability": "view",
      "type": "function"
    },
    {
      "inputs": [
        {
          "internalType": "address",
          "name": "clam_",
          "type": "address"
        },
        {
          "internalType": "address",
          "name": "dao_",
          "type": "address"
        },
        {
          "internalType": "address",
          "name": "reward_",
          "type": "address"
        },
        {
          "internalType": "address",
          "name": "otto_",
          "type": "address"
        }
      ],
      "name": "initialize",
      "outputs": [],
      "stateMutability": "nonpayable",
      "type": "function"
    },
    {
      "inputs": [
        {
          "internalType": "address",
          "name": "",
          "type": "address"
        },
        {
          "internalType": "address",
          "name": "",
          "type": "address"
        },
        {
          "internalType": "uint256[]",
          "name": "",
          "type": "uint256[]"
        },
        {
          "internalType": "uint256[]",
          "name": "",
          "type": "uint256[]"
        },
        {
          "internalType": "bytes",
          "name": "",
          "type": "bytes"
        }
      ],
      "name": "onERC1155BatchReceived",
      "outputs": [
        {
          "internalType": "bytes4",
          "name": "",
          "type": "bytes4"
        }
      ],
      "stateMutability": "nonpayable",
      "type": "function"
    },
    {
      "inputs": [
        {
          "internalType": "address",
          "name": "",
          "type": "address"
        },
        {
          "internalType": "address",
          "name": "from_",
          "type": "address"
        },
        {
          "internalType": "uint256",
          "name": "itemId_",
          "type": "uint256"
        },
        {
          "internalType": "uint256",
          "name": "amount_",
          "type": "uint256"
        },
        {
          "internalType": "bytes",
          "name": "_data",
          "type": "bytes"
        }
      ],
      "name": "onERC1155Received",
      "outputs": [
        {
          "internalType": "bytes4",
          "name": "",
          "type": "bytes4"
        }
      ],
      "stateMutability": "nonpayable",
      "type": "function"
    },
    {
      "inputs": [],
      "name": "owner",
      "outputs": [
        {
          "internalType": "address",
          "name": "",
          "type": "address"
        }
      ],
      "stateMutability": "view",
      "type": "function"
    },
    {
      "inputs": [
        {
          "internalType": "uint256",
          "name": "",
          "type": "uint256"
        }
      ],
      "name": "products",
      "outputs": [
        {
          "internalType": "uint256",
          "name": "price",
          "type": "uint256"
        },
        {
          "internalType": "uint256",
          "name": "discountPrice",
          "type": "uint256"
        },
        {
          "internalType": "uint256",
          "name": "amount",
          "type": "uint256"
        },
        {
          "internalType": "string",
          "name": "typ",
          "type": "string"
        }
      ],
      "stateMutability": "view",
      "type": "function"
    },
    {
      "inputs": [],
      "name": "proxiableUUID",
      "outputs": [
        {
          "internalType": "bytes32",
          "name": "",
          "type": "bytes32"
        }
      ],
      "stateMutability": "view",
      "type": "function"
    },
    {
      "inputs": [],
      "name": "renounceOwnership",
      "outputs": [],
      "stateMutability": "nonpayable",
      "type": "function"
    },
    {
      "inputs": [
        {
          "internalType": "bytes32",
          "name": "role",
          "type": "bytes32"
        },
        {
          "internalType": "address",
          "name": "account",
          "type": "address"
        }
      ],
      "name": "renounceRole",
      "outputs": [],
      "stateMutability": "nonpayable",
      "type": "function"
    },
    {
      "inputs": [
        {
          "internalType": "address",
          "name": "manager_",
          "type": "address"
        }
      ],
      "name": "revokeManager",
      "outputs": [],
      "stateMutability": "nonpayable",
      "type": "function"
    },
    {
      "inputs": [
        {
          "internalType": "bytes32",
          "name": "role",
          "type": "bytes32"
        },
        {
          "internalType": "address",
          "name": "account",
          "type": "address"
        }
      ],
      "name": "revokeRole",
      "outputs": [],
      "stateMutability": "nonpayable",
      "type": "function"
    },
    {
      "inputs": [
        {
          "internalType": "uint256",
          "name": "productId_",
          "type": "uint256"
        },
        {
          "internalType": "uint256",
          "name": "startId_",
          "type": "uint256"
        },
        {
          "internalType": "uint256",
          "name": "endId_",
          "type": "uint256"
        },
        {
          "internalType": "uint256",
          "name": "amount_",
          "type": "uint256"
        }
      ],
      "name": "setAirdropInfo",
      "outputs": [],
      "stateMutability": "nonpayable",
      "type": "function"
    },
    {
      "inputs": [
        {
          "internalType": "string",
          "name": "baseURI_",
          "type": "string"
        }
      ],
      "name": "setBaseURI",
      "outputs": [],
      "stateMutability": "nonpayable",
      "type": "function"
    },
    {
      "inputs": [
        {
          "internalType": "address",
          "name": "item_",
          "type": "address"
        }
      ],
      "name": "setItem",
      "outputs": [],
      "stateMutability": "nonpayable",
      "type": "function"
    },
    {
      "inputs": [
        {
          "internalType": "bytes4",
          "name": "interfaceId",
          "type": "bytes4"
        }
      ],
      "name": "supportsInterface",
      "outputs": [
        {
          "internalType": "bool",
          "name": "",
          "type": "bool"
        }
      ],
      "stateMutability": "view",
      "type": "function"
    },
    {
      "inputs": [
        {
          "internalType": "address",
          "name": "newOwner",
          "type": "address"
        }
      ],
      "name": "transferOwnership",
      "outputs": [],
      "stateMutability": "nonpayable",
      "type": "function"
    },
    {
      "inputs": [
        {
          "internalType": "uint256",
          "name": "itemId_",
          "type": "uint256"
        },
        {
          "internalType": "uint256",
          "name": "productId_",
          "type": "uint256"
        }
      ],
      "name": "updateCoupon",
      "outputs": [],
      "stateMutability": "nonpayable",
      "type": "function"
    },
    {
      "inputs": [
        {
          "internalType": "uint256",
          "name": "id_",
          "type": "uint256"
        },
        {
          "components": [
            {
              "internalType": "uint256",
              "name": "price",
              "type": "uint256"
            },
            {
              "internalType": "uint256",
              "name": "discountPrice",
              "type": "uint256"
            },
            {
              "internalType": "uint256",
              "name": "amount",
              "type": "uint256"
            },
            {
              "internalType": "string",
              "name": "typ",
              "type": "string"
            }
          ],
          "internalType": "struct IOttopiaStore.Product",
          "name": "product_",
          "type": "tuple"
        },
        {
          "internalType": "address",
          "name": "factory_",
          "type": "address"
        }
      ],
      "name": "updateProduct",
      "outputs": [],
      "stateMutability": "nonpayable",
      "type": "function"
    },
    {
      "inputs": [
        {
          "internalType": "address",
          "name": "newImplementation",
          "type": "address"
        }
      ],
      "name": "upgradeTo",
      "outputs": [],
      "stateMutability": "nonpayable",
      "type": "function"
    },
    {
      "inputs": [
        {
          "internalType": "address",
          "name": "newImplementation",
          "type": "address"
        },
        {
          "internalType": "bytes",
          "name": "data",
          "type": "bytes"
        }
      ],
      "name": "upgradeToAndCall",
      "outputs": [],
      "stateMutability": "payable",
      "type": "function"
    },
    {
      "inputs": [
        {
          "internalType": "uint256",
          "name": "id_",
          "type": "uint256"
        }
      ],
      "name": "uri",
      "outputs": [
        {
          "internalType": "string",
          "name": "",
          "type": "string"
        }
      ],
      "stateMutability": "view",
      "type": "function"
    }
  ],
  "bytecode": "0x60a06040523060805234801561001457600080fd5b506080516138db61004c60003960008181611106015281816111460152818161130c0152818161134c01526113db01526138db6000f3fe6080604052600436106102675760003560e01c80637acc0b2011610144578063cb10e7d0116100b6578063e8eb22841161007a578063e8eb228414610819578063ec87621c14610839578063ed90c7b71461085b578063f23a6e611461087b578063f2fde38b1461089b578063f8c8765e146108bb57600080fd5b8063cb10e7d014610740578063d1aa357114610760578063d547741f146107b8578063dd57a9bd146107d8578063e3731342146107f857600080fd5b8063a54ab45711610108578063a54ab4571461064c578063b1b6665214610685578063bc197c81146106a5578063c4b95b5c146106de578063c4b9cd46146106fe578063cab34c081461071f57600080fd5b80637acc0b20146105a85780638da5cb5b146105d857806391d14854146105f657806398fabd3a14610616578063a217fddf1461063757600080fd5b806336568abe116101dd5780634f7efc45116101a15780634f7efc45146104ce57806352d1902d1461050757806355f804b31461051c578063672383c41461053c5780636e7226f814610573578063715018a61461059357600080fd5b806336568abe1461043b5780633659cfe61461045b578063377e32e61461047b578063481c16921461049b5780634f1ef286146104bb57600080fd5b8063165ed2761161022f578063165ed27614610330578063182e20a4146103505780632080f4c114610370578063248a9ca31461039e5780632f2ff15d146103ce57806330828e92146103ee57600080fd5b806301ffc9a71461026c5780630a9818a8146102a15780630e89341c146102c35780630fb17d82146102f057806313fe2be914610310575b600080fd5b34801561027857600080fd5b5061028c610287366004612ce5565b6108db565b60405190151581526020015b60405180910390f35b3480156102ad57600080fd5b506102c16102bc366004612d0f565b610912565b005b3480156102cf57600080fd5b506102e36102de366004612d31565b6109c8565b6040516102989190612da2565b3480156102fc57600080fd5b506102c161030b366004612d0f565b610a5c565b34801561031c57600080fd5b506102c161032b366004612db5565b610c0f565b34801561033c57600080fd5b506102c161034b366004612e4f565b610de6565b34801561035c57600080fd5b506102c161036b366004612f9d565b610e14565b34801561037c57600080fd5b5061039061038b366004612db5565b610f2d565b604051908152602001610298565b3480156103aa57600080fd5b506103906103b9366004612d31565b60009081526065602052604090206001015490565b3480156103da57600080fd5b506102c16103e9366004612fea565b611052565b3480156103fa57600080fd5b50610426610409366004612d31565b610137602052600090815260409020805460019091015460ff1682565b60408051928352901515602083015201610298565b34801561044757600080fd5b506102c1610456366004612fea565b61107d565b34801561046757600080fd5b506102c1610476366004612e4f565b6110fb565b34801561048757600080fd5b506102c1610496366004612e4f565b6111db565b3480156104a757600080fd5b506102c16104b636600461300d565b6111fe565b6102c16104c9366004613083565b611301565b3480156104da57600080fd5b50610138546104ef906001600160a01b031681565b6040516001600160a01b039091168152602001610298565b34801561051357600080fd5b506103906113ce565b34801561052857600080fd5b506102c16105373660046130d0565b611481565b34801561054857600080fd5b506104ef610557366004612d31565b61012e602052600090815260409020546001600160a01b031681565b34801561057f57600080fd5b506102c161058e366004613141565b611499565b34801561059f57600080fd5b506102c161153d565b3480156105b457600080fd5b506105c86105c3366004612d31565b6115a3565b6040516102989493929190613173565b3480156105e457600080fd5b506097546001600160a01b03166104ef565b34801561060257600080fd5b5061028c610611366004612fea565b611657565b34801561062257600080fd5b50610130546104ef906001600160a01b031681565b34801561064357600080fd5b50610390600081565b34801561065857600080fd5b50610390610667366004612d0f565b61013660209081526000928352604080842090915290825290205481565b34801561069157600080fd5b506102c16106a0366004612db5565b611682565b3480156106b157600080fd5b506106c56106c0366004613221565b611802565b6040516001600160e01b03199091168152602001610298565b3480156106ea57600080fd5b506102c16106f9366004612e4f565b61186e565b34801561070a57600080fd5b5061012f546104ef906001600160a01b031681565b34801561072b57600080fd5b50610131546104ef906001600160a01b031681565b34801561074c57600080fd5b506102c161075b366004612d31565b611891565b34801561076c57600080fd5b5061079d61077b366004612d31565b6101356020526000908152604090208054600182015460029092015490919083565b60408051938452602084019290925290820152606001610298565b3480156107c457600080fd5b506102c16107d3366004612fea565b6118ed565b3480156107e457600080fd5b506102c16107f33660046132ca565b611913565b34801561080457600080fd5b50610132546104ef906001600160a01b031681565b34801561082557600080fd5b50610390610834366004612d31565b611c10565b34801561084557600080fd5b5061039060008051602061385f83398151915281565b34801561086757600080fd5b506102c1610876366004612d31565b611c84565b34801561088757600080fd5b506106c56108963660046132fd565b611d63565b3480156108a757600080fd5b506102c16108b6366004612e4f565b611f0d565b3480156108c757600080fd5b506102c16108d6366004613361565b611fd5565b60006001600160e01b03198216637965db0b60e01b148061090c57506301ffc9a760e01b6001600160e01b03198316145b92915050565b61091d6000336120e8565b600081815261012d602052604090206002015481901580159061095d5750600081815261012d602052604090206003018054610958906133b5565b151590505b6109825760405162461bcd60e51b8152600401610979906133ea565b60405180910390fd5b6000838152610137602052604090206001015460ff166109b45760405162461bcd60e51b815260040161097990613417565b506000918252610137602052604090912055565b600081815261012d6020526040902060020154606090829015801590610a0b5750600081815261012d602052604090206003018054610a06906133b5565b151590505b610a275760405162461bcd60e51b8152600401610979906133ea565b610134610a338461214c565b604051602001610a4492919061345f565b60405160208183030381529060405291505b50919050565b610a676000336120e8565b600081815261012d6020526040902060020154819015801590610aa75750600081815261012d602052604090206003018054610aa2906133b5565b151590505b610ac35760405162461bcd60e51b8152600401610979906133ea565b610138546040516261a76960e81b8152600481018590526000916001600160a01b0316906361a7690090602401604080518083038186803b158015610b0757600080fd5b505afa158015610b1b573d6000803e3d6000fd5b505050506040513d601f19601f82011682018060405250810190610b3f91906134fd565b5090508060ff1660fe14610b8c5760405162461bcd60e51b815260206004820152601460248201527334ba32b69034b9903737ba10309031b7bab837b760611b6044820152606401610979565b6000848152610137602052604090206001015460ff1615610be85760405162461bcd60e51b815260206004820152601660248201527518dbdd5c1bdb88185b1c9958591e4818dc99585d195960521b6044820152606401610979565b5050600091825261013760205260409091209081556001908101805460ff19169091179055565b323314610c2e5760405162461bcd60e51b815260040161097990613544565b600083815261012d6020526040902060020154839015801590610c6e5750600081815261012d602052604090206003018054610c69906133b5565b151590505b610c8a5760405162461bcd60e51b8152600401610979906133ea565b60008481526101356020526040812090805b84811015610d62576000868683818110610cb857610cb861357b565b90506020020135905080846000015411158015610cd9575083600101548111155b15610d4f576000888152610136602090815260408083208484529091528120546002860154610d0891906135a7565b90508015610d4d5760008981526101366020908152604080832085845290915281208054839290610d3a9084906135be565b90915550610d4a905081856135be565b93505b505b5080610d5a816135d6565b915050610c9c565b508015610dde57600086815261012e60205260409020546001600160a01b031663ce89ab0e3088335b856040518563ffffffff1660e01b8152600401610dab94939291906135f1565b600060405180830381600087803b158015610dc557600080fd5b505af1158015610dd9573d6000803e3d6000fd5b505050505b505050505050565b610df16000336120e8565b61013880546001600160a01b0319166001600160a01b0392909216919091179055565b610e1f6000336120e8565b604082015115801590610e36575060608201515115155b610e7b5760405162461bcd60e51b8152602060048201526016602482015275696e76616c696420616d6f756e74206f72207479706560501b6044820152606401610979565b610133805460009182610e8d836135d6565b90915550600081815261012d602090815260409182902086518155818701516001820155918601516002830155606086015180519394508693610ed69260038501920190612ba2565b505050600081815261012e602052604080822080546001600160a01b0319166001600160a01b0386161790555182917fae24ba5556c2313736aa11cfd95fed7073a2c9c4f3e8252e60044021a8f7300591a2505050565b600083815261012d6020526040812060020154849015801590610f6d5750600081815261012d602052604090206003018054610f68906133b5565b151590505b610f895760405162461bcd60e51b8152600401610979906133ea565b600083815b81811015611046576000878783818110610faa57610faa61357b565b9050602002013590508061013560008b81526020019081526020016000206000015411158015610fec5750600089815261013560205260409020600101548111155b15611033576000898152610136602090815260408083208484528252808320548c84526101359092529091206002015461102691906135a7565b61103090856135be565b93505b508061103e816135d6565b915050610f8e565b50909695505050505050565b60008281526065602052604090206001015461106e81336120e8565b6110788383612251565b505050565b6001600160a01b03811633146110ed5760405162461bcd60e51b815260206004820152602f60248201527f416363657373436f6e74726f6c3a2063616e206f6e6c792072656e6f756e636560448201526e103937b632b9903337b91039b2b63360891b6064820152608401610979565b6110f782826122d7565b5050565b306001600160a01b037f00000000000000000000000000000000000000000000000000000000000000001614156111445760405162461bcd60e51b81526004016109799061361b565b7f00000000000000000000000000000000000000000000000000000000000000006001600160a01b031661118d60008051602061383f833981519152546001600160a01b031690565b6001600160a01b0316146111b35760405162461bcd60e51b815260040161097990613667565b6111bc8161233e565b604080516000808252602082019092526111d891839190612349565b50565b6111e66000336120e8565b6111d860008051602061385f833981519152826122d7565b6112096000336120e8565b600083815261012d60205260409020600201548390158015906112495750600081815261012d602052604090206003018054611244906133b5565b151590505b6112655760405162461bcd60e51b8152600401610979906133ea565b600084815261012d602090815260409182902085518155818601516001820155918501516002830155606085015180518693926112a9926003850192910190612ba2565b505050600084815261012e602052604080822080546001600160a01b0319166001600160a01b0386161790555185917ffe015faaa1a4d82c9b6398d522b03dd6f5da8d583e506ce53fce4bb4142730e791a250505050565b306001600160a01b037f000000000000000000000000000000000000000000000000000000000000000016141561134a5760405162461bcd60e51b81526004016109799061361b565b7f00000000000000000000000000000000000000000000000000000000000000006001600160a01b031661139360008051602061383f833981519152546001600160a01b031690565b6001600160a01b0316146113b95760405162461bcd60e51b815260040161097990613667565b6113c28261233e565b6110f782826001612349565b6000306001600160a01b037f0000000000000000000000000000000000000000000000000000000000000000161461146e5760405162461bcd60e51b815260206004820152603860248201527f555550535570677261646561626c653a206d757374206e6f742062652063616c60448201527f6c6564207468726f7567682064656c656761746563616c6c00000000000000006064820152608401610979565b5060008051602061383f83398151915290565b61148c6000336120e8565b6110786101348383612c26565b600084815261012d60205260409020600201548490158015906114d95750600081815261012d6020526040902060030180546114d4906133b5565b151590505b6114f55760405162461bcd60e51b8152600401610979906133ea565b6115006000336120e8565b5060408051606081018252938452602080850193845284820192835260009586526101359052909320915182555160018201559051600290910155565b6097546001600160a01b031633146115975760405162461bcd60e51b815260206004820181905260248201527f4f776e61626c653a2063616c6c6572206973206e6f7420746865206f776e65726044820152606401610979565b6115a160006124c3565b565b61012d602052600090815260409020805460018201546002830154600384018054939492939192916115d4906133b5565b80601f0160208091040260200160405190810160405280929190818152602001828054611600906133b5565b801561164d5780601f106116225761010080835404028352916020019161164d565b820191906000526020600020905b81548152906001019060200180831161163057829003601f168201915b5050505050905084565b60009182526065602090815260408084206001600160a01b0393909316845291905290205460ff1690565b3233146116a15760405162461bcd60e51b815260040161097990613544565b600083815261012d60205260409020600201548390158015906116e15750600081815261012d6020526040902060030180546116dc906133b5565b151590505b6116fd5760405162461bcd60e51b8152600401610979906133ea565b60008481526101356020526040812090805b848110156117d557600086868381811061172b5761172b61357b565b9050602002013590508084600001541115801561174c575083600101548111155b156117c257600088815261013660209081526040808320848452909152812054600286015461177b91906135a7565b905080156117c057600089815261013660209081526040808320858452909152812080548392906117ad9084906135be565b909155506117bd905081856135be565b93505b505b50806117cd816135d6565b91505061170f565b508015610dde57600086815261012e60205260409020546001600160a01b031663a0314ad6308833610d8b565b610138546000906001600160a01b0316336001600160a01b0316141561185c5760405162461bcd60e51b815260206004820152600f60248201526e1b9bdd081a5b5c1b195b595b9d1959608a1b6044820152606401610979565b5063bc197c8160e01b95945050505050565b6118796000336120e8565b6111d860008051602061385f83398151915282612515565b61189c6000336120e8565b6000818152610137602052604090206001015460ff166118ce5760405162461bcd60e51b815260040161097990613417565b600090815261013760205260408120908155600101805460ff19169055565b60008281526065602052604090206001015461190981336120e8565b61107883836122d7565b3233146119325760405162461bcd60e51b815260040161097990613544565b600082815261012d60205260409020600201548290158015906119725750600081815261012d60205260409020600301805461196d906133b5565b151590505b61198e5760405162461bcd60e51b8152600401610979906133ea565b600061012d60008581526020019081526020016000206040518060800160405290816000820154815260200160018201548152602001600282015481526020016003820180546119dd906133b5565b80601f0160208091040260200160405190810160405280929190818152602001828054611a09906133b5565b8015611a565780601f10611a2b57610100808354040283529160200191611a56565b820191906000526020600020905b815481529060010190602001808311611a3957829003601f168201915b505050919092525050506020810151909150611a7284826136b3565b61012f549091506001600160a01b03166323b872dd336040516001600160e01b031960e084901b1681526001600160a01b03909116600482015230602482015260448101849052606401602060405180830381600087803b158015611ad657600080fd5b505af1158015611aea573d6000803e3d6000fd5b505050506040513d601f19601f82011682018060405250810190611b0e91906136d2565b50600085815261012e60205260409020546001600160a01b031615611ba457600085815261012e602052604090819020549051636744d58760e11b81526001600160a01b039091169063ce89ab0e90611b7190309089908b908a906004016135f1565b600060405180830381600087803b158015611b8b57600080fd5b505af1158015611b9f573d6000803e3d6000fd5b505050505b611bad8161251f565b856001600160a01b0316336001600160a01b0316867f194b8eca5c0199a02024a60e6be47f59e0c47c11b170e5bd47e50cca2fdf46cd856020015188604051611c00929190918252602082015260400190565b60405180910390a4505050505050565b600081815261012d6020526040812060020154829015801590611c505750600081815261012d602052604090206003018054611c4b906133b5565b151590505b611c6c5760405162461bcd60e51b8152600401610979906133ea565b5050600090815261012d602052604090206002015490565b611c8f6000336120e8565b600081815261012d6020526040902060020154819015801590611ccf5750600081815261012d602052604090206003018054611cca906133b5565b151590505b611ceb5760405162461bcd60e51b8152600401610979906133ea565b600082815261012d60205260408120818155600181018290556002810182905590611d196003830182612c9a565b5050600082815261012e602052604080822080546001600160a01b03191690555183917f0e10ee3ece1ddd5966cebc571a843f6af8abd1fa7b2ef3d7279c44873b1e7bf891a25050565b610138546000906001600160a01b0316336001600160a01b03161415611efb57600084815261013760209081526040918290208251808401909352805483526001015460ff161515908201819052611dcd5760405162461bcd60e51b815260040161097990613417565b61013854604051637a94c56560e11b815230600482015260248101879052604481018690526001600160a01b039091169063f5298aca90606401600060405180830381600087803b158015611e2157600080fd5b505af1158015611e35573d6000803e3d6000fd5b50508251600090815261012e6020526040908190205484519151636744d58760e11b81526001600160a01b03909116935063ce89ab0e9250611e7f9130918b908a906004016135f1565b600060405180830381600087803b158015611e9957600080fd5b505af1158015611ead573d6000803e3d6000fd5b50505050856001600160a01b031681600001517f81ad328a007cb55364fb8e89c663afc5559c68391ce6f047ac872ba45ba87b9d86604051611ef191815260200190565b60405180910390a3505b5063f23a6e6160e01b95945050505050565b6097546001600160a01b03163314611f675760405162461bcd60e51b815260206004820181905260248201527f4f776e61626c653a2063616c6c6572206973206e6f7420746865206f776e65726044820152606401610979565b6001600160a01b038116611fcc5760405162461bcd60e51b815260206004820152602660248201527f4f776e61626c653a206e6577206f776e657220697320746865207a65726f206160448201526564647265737360d01b6064820152608401610979565b6111d8816124c3565b600054610100900460ff16611ff05760005460ff1615611ff4565b303b155b6120575760405162461bcd60e51b815260206004820152602e60248201527f496e697469616c697a61626c653a20636f6e747261637420697320616c72656160448201526d191e481a5b9a5d1a585b1a5e995960921b6064820152608401610979565b600054610100900460ff16158015612079576000805461ffff19166101011790555b6120816126cb565b61012f80546001600160a01b038088166001600160a01b0319928316179092556101308054878416908316179055610131805486841690831617905561013280549285169290911691909117905580156120e1576000805461ff00191690555b5050505050565b6120f28282611657565b6110f75761210a816001600160a01b0316601461272d565b61211583602061272d565b6040516020016121269291906136f4565b60408051601f198184030181529082905262461bcd60e51b825261097991600401612da2565b6060816121705750506040805180820190915260018152600360fc1b602082015290565b8160005b811561219a5780612184816135d6565b91506121939050600a8361377f565b9150612174565b6000816001600160401b038111156121b4576121b4612e6a565b6040519080825280601f01601f1916602001820160405280156121de576020820181803683370190505b5090505b8415612249576121f36001836135a7565b9150612200600a86613793565b61220b9060306135be565b60f81b8183815181106122205761222061357b565b60200101906001600160f81b031916908160001a905350612242600a8661377f565b94506121e2565b949350505050565b61225b8282611657565b6110f75760008281526065602090815260408083206001600160a01b03851684529091529020805460ff191660011790556122933390565b6001600160a01b0316816001600160a01b0316837f2f8788117e7eff1d82e926ec794901d17c78024a50270940304540a733656f0d60405160405180910390a45050565b6122e18282611657565b156110f75760008281526065602090815260408083206001600160a01b0385168085529252808320805460ff1916905551339285917ff6391f5c32d9c69d2a47ea670b442974b53935d1edc7fd64eb21e047a839171b9190a45050565b6111d86000336120e8565b7f4910fdfa16fed3260ed0e7147f7cc6da11a60208b5b9406d12a635614ffd91435460ff161561237c57611078836128cf565b826001600160a01b03166352d1902d6040518163ffffffff1660e01b815260040160206040518083038186803b1580156123b557600080fd5b505afa9250505080156123e5575060408051601f3d908101601f191682019092526123e2918101906137a7565b60015b6124485760405162461bcd60e51b815260206004820152602e60248201527f45524331393637557067726164653a206e657720696d706c656d656e7461746960448201526d6f6e206973206e6f74205555505360901b6064820152608401610979565b60008051602061383f83398151915281146124b75760405162461bcd60e51b815260206004820152602960248201527f45524331393637557067726164653a20756e737570706f727465642070726f786044820152681a58589b195555525160ba1b6064820152608401610979565b5061107883838361296b565b609780546001600160a01b038381166001600160a01b0319831681179093556040519116919082907f8be0079c531659141344cd1fd0a4f28419497f9722a3daafe3b4186f6b6457e090600090a35050565b6110f78282612251565b600061252d826103e8612996565b9050600061253d83610fa0612996565b905060008161254c84866135a7565b61255691906135a7565b61012f54604051630852cd8d60e31b8152600481018690529192506001600160a01b0316906342966c6890602401600060405180830381600087803b15801561259e57600080fd5b505af11580156125b2573d6000803e3d6000fd5b505061012f546101305460405163a9059cbb60e01b81526001600160a01b039182166004820152602481018790529116925063a9059cbb9150604401602060405180830381600087803b15801561260857600080fd5b505af115801561261c573d6000803e3d6000fd5b505050506040513d601f19601f8201168201806040525081019061264091906136d2565b5061012f546101315460405163a9059cbb60e01b81526001600160a01b0391821660048201526024810184905291169063a9059cbb90604401602060405180830381600087803b15801561269357600080fd5b505af11580156126a7573d6000803e3d6000fd5b505050506040513d601f19601f820116820180604052508101906120e191906136d2565b600054610100900460ff166126f25760405162461bcd60e51b8152600401610979906137c0565b6126fa6129af565b6127026129d6565b61270a6129af565b612715600033612515565b6115a160008051602061385f83398151915233612515565b6060600061273c8360026136b3565b6127479060026135be565b6001600160401b0381111561275e5761275e612e6a565b6040519080825280601f01601f191660200182016040528015612788576020820181803683370190505b509050600360fc1b816000815181106127a3576127a361357b565b60200101906001600160f81b031916908160001a905350600f60fb1b816001815181106127d2576127d261357b565b60200101906001600160f81b031916908160001a90535060006127f68460026136b3565b6128019060016135be565b90505b6001811115612879576f181899199a1a9b1b9c1cb0b131b232b360811b85600f16601081106128355761283561357b565b1a60f81b82828151811061284b5761284b61357b565b60200101906001600160f81b031916908160001a90535060049490941c936128728161380b565b9050612804565b5083156128c85760405162461bcd60e51b815260206004820181905260248201527f537472696e67733a20686578206c656e67746820696e73756666696369656e746044820152606401610979565b9392505050565b6001600160a01b0381163b61293c5760405162461bcd60e51b815260206004820152602d60248201527f455243313936373a206e657720696d706c656d656e746174696f6e206973206e60448201526c1bdd08184818dbdb9d1c9858dd609a1b6064820152608401610979565b60008051602061383f83398151915280546001600160a01b0319166001600160a01b0392909216919091179055565b61297483612a05565b6000825111806129815750805b15611078576129908383612a45565b50505050565b60006127106129a583856136b3565b6128c8919061377f565b600054610100900460ff166115a15760405162461bcd60e51b8152600401610979906137c0565b600054610100900460ff166129fd5760405162461bcd60e51b8152600401610979906137c0565b6115a1612b39565b612a0e816128cf565b6040516001600160a01b038216907fbc7cd75a20ee27fd9adebab32041f755214dbc6bffa90cc0225b39da2e5c2d3b90600090a250565b60606001600160a01b0383163b612aad5760405162461bcd60e51b815260206004820152602660248201527f416464726573733a2064656c65676174652063616c6c20746f206e6f6e2d636f6044820152651b9d1c9858dd60d21b6064820152608401610979565b600080846001600160a01b031684604051612ac89190613822565b600060405180830381855af49150503d8060008114612b03576040519150601f19603f3d011682016040523d82523d6000602084013e612b08565b606091505b5091509150612b30828260405180606001604052806027815260200161387f60279139612b69565b95945050505050565b600054610100900460ff16612b605760405162461bcd60e51b8152600401610979906137c0565b6115a1336124c3565b60608315612b785750816128c8565b825115612b885782518084602001fd5b8160405162461bcd60e51b81526004016109799190612da2565b828054612bae906133b5565b90600052602060002090601f016020900481019282612bd05760008555612c16565b82601f10612be957805160ff1916838001178555612c16565b82800160010185558215612c16579182015b82811115612c16578251825591602001919060010190612bfb565b50612c22929150612cd0565b5090565b828054612c32906133b5565b90600052602060002090601f016020900481019282612c545760008555612c16565b82601f10612c6d5782800160ff19823516178555612c16565b82800160010185558215612c16579182015b82811115612c16578235825591602001919060010190612c7f565b508054612ca6906133b5565b6000825580601f10612cb6575050565b601f0160209004906000526020600020908101906111d891905b5b80821115612c225760008155600101612cd1565b600060208284031215612cf757600080fd5b81356001600160e01b0319811681146128c857600080fd5b60008060408385031215612d2257600080fd5b50508035926020909101359150565b600060208284031215612d4357600080fd5b5035919050565b60005b83811015612d65578181015183820152602001612d4d565b838111156129905750506000910152565b60008151808452612d8e816020860160208601612d4a565b601f01601f19169290920160200192915050565b6020815260006128c86020830184612d76565b600080600060408486031215612dca57600080fd5b8335925060208401356001600160401b0380821115612de857600080fd5b818601915086601f830112612dfc57600080fd5b813581811115612e0b57600080fd5b8760208260051b8501011115612e2057600080fd5b6020830194508093505050509250925092565b80356001600160a01b0381168114612e4a57600080fd5b919050565b600060208284031215612e6157600080fd5b6128c882612e33565b634e487b7160e01b600052604160045260246000fd5b604051601f8201601f191681016001600160401b0381118282101715612ea857612ea8612e6a565b604052919050565b60006001600160401b03831115612ec957612ec9612e6a565b612edc601f8401601f1916602001612e80565b9050828152838383011115612ef057600080fd5b828260208301376000602084830101529392505050565b600060808284031215612f1957600080fd5b604051608081016001600160401b038282108183111715612f3c57612f3c612e6a565b816040528293508435835260208501356020840152604085013560408401526060850135915080821115612f6f57600080fd5b508301601f81018513612f8157600080fd5b612f9085823560208401612eb0565b6060830152505092915050565b60008060408385031215612fb057600080fd5b82356001600160401b03811115612fc657600080fd5b612fd285828601612f07565b925050612fe160208401612e33565b90509250929050565b60008060408385031215612ffd57600080fd5b82359150612fe160208401612e33565b60008060006060848603121561302257600080fd5b8335925060208401356001600160401b0381111561303f57600080fd5b61304b86828701612f07565b92505061305a60408501612e33565b90509250925092565b600082601f83011261307457600080fd5b6128c883833560208501612eb0565b6000806040838503121561309657600080fd5b61309f83612e33565b915060208301356001600160401b038111156130ba57600080fd5b6130c685828601613063565b9150509250929050565b600080602083850312156130e357600080fd5b82356001600160401b03808211156130fa57600080fd5b818501915085601f83011261310e57600080fd5b81358181111561311d57600080fd5b86602082850101111561312f57600080fd5b60209290920196919550909350505050565b6000806000806080858703121561315757600080fd5b5050823594602084013594506040840135936060013592509050565b8481528360208201528260408201526080606082015260006131986080830184612d76565b9695505050505050565b600082601f8301126131b357600080fd5b813560206001600160401b038211156131ce576131ce612e6a565b8160051b6131dd828201612e80565b92835284810182019282810190878511156131f757600080fd5b83870192505b84831015613216578235825291830191908301906131fd565b979650505050505050565b600080600080600060a0868803121561323957600080fd5b61324286612e33565b945061325060208701612e33565b935060408601356001600160401b038082111561326c57600080fd5b61327889838a016131a2565b9450606088013591508082111561328e57600080fd5b61329a89838a016131a2565b935060808801359150808211156132b057600080fd5b506132bd88828901613063565b9150509295509295909350565b6000806000606084860312156132df57600080fd5b6132e884612e33565b95602085013595506040909401359392505050565b600080600080600060a0868803121561331557600080fd5b61331e86612e33565b945061332c60208701612e33565b9350604086013592506060860135915060808601356001600160401b0381111561335557600080fd5b6132bd88828901613063565b6000806000806080858703121561337757600080fd5b61338085612e33565b935061338e60208601612e33565b925061339c60408601612e33565b91506133aa60608601612e33565b905092959194509250565b600181811c908216806133c957607f821691505b60208210811415610a5657634e487b7160e01b600052602260045260246000fd5b6020808252601390820152721c1c9bd91d58dd081b9bdd0818dc99585d1959606a1b604082015260600190565b60208082526012908201527118dbdd5c1bdb881b9bdd0818dc99585d195960721b604082015260600190565b60008151613455818560208601612d4a565b9290920192915050565b600080845481600182811c91508083168061347b57607f831692505b602080841082141561349b57634e487b7160e01b86526022600452602486fd5b8180156134af57600181146134c0576134ed565b60ff198616895284890196506134ed565b60008b81526020902060005b868110156134e55781548b8201529085019083016134cc565b505084890196505b505050505050612b308185613443565b6000806040838503121561351057600080fd5b825160ff8116811461352157600080fd5b602084015190925061ffff8116811461353957600080fd5b809150509250929050565b6020808252601e908201527f5468652063616c6c657220697320616e6f7468657220636f6e74726163740000604082015260600190565b634e487b7160e01b600052603260045260246000fd5b634e487b7160e01b600052601160045260246000fd5b6000828210156135b9576135b9613591565b500390565b600082198211156135d1576135d1613591565b500190565b60006000198214156135ea576135ea613591565b5060010190565b6001600160a01b039485168152602081019390935292166040820152606081019190915260800190565b6020808252602c908201527f46756e6374696f6e206d7573742062652063616c6c6564207468726f7567682060408201526b19195b1959d85d1958d85b1b60a21b606082015260800190565b6020808252602c908201527f46756e6374696f6e206d7573742062652063616c6c6564207468726f7567682060408201526b6163746976652070726f787960a01b606082015260800190565b60008160001904831182151516156136cd576136cd613591565b500290565b6000602082840312156136e457600080fd5b815180151581146128c857600080fd5b7f416363657373436f6e74726f6c3a206163636f756e742000000000000000000081526000835161372c816017850160208801612d4a565b7001034b99036b4b9b9b4b733903937b6329607d1b601791840191820152835161375d816028840160208801612d4a565b01602801949350505050565b634e487b7160e01b600052601260045260246000fd5b60008261378e5761378e613769565b500490565b6000826137a2576137a2613769565b500690565b6000602082840312156137b957600080fd5b5051919050565b6020808252602b908201527f496e697469616c697a61626c653a20636f6e7472616374206973206e6f74206960408201526a6e697469616c697a696e6760a81b606082015260800190565b60008161381a5761381a613591565b506000190190565b60008251613834818460208701612d4a565b919091019291505056fe360894a13ba1a3210667c828492db98dca3e2076cc3735a920a3ca505d382bbc241ecf16d79d0f8dbfb92cbc07fe17840425976cf0667f022fe9877caa831b08416464726573733a206c6f772d6c6576656c2064656c65676174652063616c6c206661696c6564a2646970667358221220a1f3ca773c75d80b40716b1494685b7ad2db99ada73aecf8e7a1ba7301d1e63564736f6c63430008090033",
  "linkReferences": {},
  "deployedLinkReferences": {}
}