{
  "_format": "hh-sol-artifact-1",
  "contractName": "OttoItemGiveaway",
  "sourceName": "contracts/ottopia/OttoItemGiveaway.sol",
  "abi": [
    {
      "anonymous": false,
      "inputs": [
        {
          "indexed": false,
          "internalType": "address",
          "name": "previousAdmin",
          "type": "address"
        },
        {
          "indexed": false,
          "internalType": "address",
          "name": "newAdmin",
          "type": "address"
        }
      ],
      "name": "AdminChanged",
      "type": "event"
    },
    {
      "anonymous": false,
      "inputs": [
        {
          "indexed": true,
          "internalType": "address",
          "name": "beacon",
          "type": "address"
        }
      ],
      "name": "BeaconUpgraded",
      "type": "event"
    },
    {
      "anonymous": false,
      "inputs": [
        {
          "indexed": true,
          "internalType": "address",
          "name": "sender_",
          "type": "address"
        },
        {
          "indexed": true,
          "internalType": "uint256",
          "name": "itemId_",
          "type": "uint256"
        },
        {
          "indexed": false,
          "internalType": "uint256",
          "name": "amount_",
          "type": "uint256"
        }
      ],
      "name": "ClaimGiveaway",
      "type": "event"
    },
    {
      "anonymous": false,
      "inputs": [
        {
          "indexed": true,
          "internalType": "address",
          "name": "previousOwner",
          "type": "address"
        },
        {
          "indexed": true,
          "internalType": "address",
          "name": "newOwner",
          "type": "address"
        }
      ],
      "name": "OwnershipTransferred",
      "type": "event"
    },
    {
      "anonymous": false,
      "inputs": [
        {
          "indexed": true,
          "internalType": "bytes32",
          "name": "role",
          "type": "bytes32"
        },
        {
          "indexed": true,
          "internalType": "bytes32",
          "name": "previousAdminRole",
          "type": "bytes32"
        },
        {
          "indexed": true,
          "internalType": "bytes32",
          "name": "newAdminRole",
          "type": "bytes32"
        }
      ],
      "name": "RoleAdminChanged",
      "type": "event"
    },
    {
      "anonymous": false,
      "inputs": [
        {
          "indexed": true,
          "internalType": "bytes32",
          "name": "role",
          "type": "bytes32"
        },
        {
          "indexed": true,
          "internalType": "address",
          "name": "account",
          "type": "address"
        },
        {
          "indexed": true,
          "internalType": "address",
          "name": "sender",
          "type": "address"
        }
      ],
      "name": "RoleGranted",
      "type": "event"
    },
    {
      "anonymous": false,
      "inputs": [
        {
          "indexed": true,
          "internalType": "bytes32",
          "name": "role",
          "type": "bytes32"
        },
        {
          "indexed": true,
          "internalType": "address",
          "name": "account",
          "type": "address"
        },
        {
          "indexed": true,
          "internalType": "address",
          "name": "sender",
          "type": "address"
        }
      ],
      "name": "RoleRevoked",
      "type": "event"
    },
    {
      "anonymous": false,
      "inputs": [
        {
          "indexed": true,
          "internalType": "address",
          "name": "implementation",
          "type": "address"
        }
      ],
      "name": "Upgraded",
      "type": "event"
    },
    {
      "inputs": [],
      "name": "DEFAULT_ADMIN_ROLE",
      "outputs": [
        {
          "internalType": "bytes32",
          "name": "",
          "type": "bytes32"
        }
      ],
      "stateMutability": "view",
      "type": "function"
    },
    {
      "inputs": [],
      "name": "ITEM",
      "outputs": [
        {
          "internalType": "contract IOttoItemERC1155",
          "name": "",
          "type": "address"
        }
      ],
      "stateMutability": "view",
      "type": "function"
    },
    {
      "inputs": [],
      "name": "MANAGER_ROLE",
      "outputs": [
        {
          "internalType": "bytes32",
          "name": "",
          "type": "bytes32"
        }
      ],
      "stateMutability": "view",
      "type": "function"
    },
    {
      "inputs": [
        {
          "internalType": "uint256",
          "name": "itemId_",
          "type": "uint256"
        },
        {
          "internalType": "uint256",
          "name": "amount_",
          "type": "uint256"
        },
        {
          "internalType": "string",
          "name": "code_",
          "type": "string"
        },
        {
          "internalType": "string",
          "name": "nonce_",
          "type": "string"
        },
        {
          "internalType": "bytes32",
          "name": "digest_",
          "type": "bytes32"
        },
        {
          "internalType": "bytes",
          "name": "signature_",
          "type": "bytes"
        }
      ],
      "name": "claimGiveaway",
      "outputs": [],
      "stateMutability": "nonpayable",
      "type": "function"
    },
    {
      "inputs": [
        {
          "internalType": "bytes32",
          "name": "role",
          "type": "bytes32"
        }
      ],
      "name": "getRoleAdmin",
      "outputs": [
        {
          "internalType": "bytes32",
          "name": "",
          "type": "bytes32"
        }
      ],
      "stateMutability": "view",
      "type": "function"
    },
    {
      "inputs": [
        {
          "internalType": "address",
          "name": "manager_",
          "type": "address"
        }
      ],
      "name": "grantManager",
      "outputs": [],
      "stateMutability": "nonpayable",
      "type": "function"
    },
    {
      "inputs": [
        {
          "internalType": "bytes32",
          "name": "role",
          "type": "bytes32"
        },
        {
          "internalType": "address",
          "name": "account",
          "type": "address"
        }
      ],
      "name": "grantRole",
      "outputs": [],
      "stateMutability": "nonpayable",
      "type": "function"
    },
    {
      "inputs": [
        {
          "internalType": "bytes32",
          "name": "role",
          "type": "bytes32"
        },
        {
          "internalType": "address",
          "name": "account",
          "type": "address"
        }
      ],
      "name": "hasRole",
      "outputs": [
        {
          "internalType": "bool",
          "name": "",
          "type": "bool"
        }
      ],
      "stateMutability": "view",
      "type": "function"
    },
    {
      "inputs": [
        {
          "internalType": "address",
          "name": "signer_",
          "type": "address"
        },
        {
          "internalType": "address",
          "name": "item_",
          "type": "address"
        }
      ],
      "name": "initialize",
      "outputs": [],
      "stateMutability": "nonpayable",
      "type": "function"
    },
    {
      "inputs": [],
      "name": "owner",
      "outputs": [
        {
          "internalType": "address",
          "name": "",
          "type": "address"
        }
      ],
      "stateMutability": "view",
      "type": "function"
    },
    {
      "inputs": [],
      "name": "proxiableUUID",
      "outputs": [
        {
          "internalType": "bytes32",
          "name": "",
          "type": "bytes32"
        }
      ],
      "stateMutability": "view",
      "type": "function"
    },
    {
      "inputs": [],
      "name": "renounceOwnership",
      "outputs": [],
      "stateMutability": "nonpayable",
      "type": "function"
    },
    {
      "inputs": [
        {
          "internalType": "bytes32",
          "name": "role",
          "type": "bytes32"
        },
        {
          "internalType": "address",
          "name": "account",
          "type": "address"
        }
      ],
      "name": "renounceRole",
      "outputs": [],
      "stateMutability": "nonpayable",
      "type": "function"
    },
    {
      "inputs": [
        {
          "internalType": "address",
          "name": "manager_",
          "type": "address"
        }
      ],
      "name": "revokeManager",
      "outputs": [],
      "stateMutability": "nonpayable",
      "type": "function"
    },
    {
      "inputs": [
        {
          "internalType": "bytes32",
          "name": "role",
          "type": "bytes32"
        },
        {
          "internalType": "address",
          "name": "account",
          "type": "address"
        }
      ],
      "name": "revokeRole",
      "outputs": [],
      "stateMutability": "nonpayable",
      "type": "function"
    },
    {
      "inputs": [
        {
          "internalType": "address",
          "name": "item_",
          "type": "address"
        }
      ],
      "name": "setItem",
      "outputs": [],
      "stateMutability": "nonpayable",
      "type": "function"
    },
    {
      "inputs": [
        {
          "internalType": "address",
          "name": "signer_",
          "type": "address"
        }
      ],
      "name": "setSigner",
      "outputs": [],
      "stateMutability": "nonpayable",
      "type": "function"
    },
    {
      "inputs": [],
      "name": "signer",
      "outputs": [
        {
          "internalType": "address",
          "name": "",
          "type": "address"
        }
      ],
      "stateMutability": "view",
      "type": "function"
    },
    {
      "inputs": [
        {
          "internalType": "bytes4",
          "name": "interfaceId",
          "type": "bytes4"
        }
      ],
      "name": "supportsInterface",
      "outputs": [
        {
          "internalType": "bool",
          "name": "",
          "type": "bool"
        }
      ],
      "stateMutability": "view",
      "type": "function"
    },
    {
      "inputs": [
        {
          "internalType": "address",
          "name": "newOwner",
          "type": "address"
        }
      ],
      "name": "transferOwnership",
      "outputs": [],
      "stateMutability": "nonpayable",
      "type": "function"
    },
    {
      "inputs": [
        {
          "internalType": "address",
          "name": "newImplementation",
          "type": "address"
        }
      ],
      "name": "upgradeTo",
      "outputs": [],
      "stateMutability": "nonpayable",
      "type": "function"
    },
    {
      "inputs": [
        {
          "internalType": "address",
          "name": "newImplementation",
          "type": "address"
        },
        {
          "internalType": "bytes",
          "name": "data",
          "type": "bytes"
        }
      ],
      "name": "upgradeToAndCall",
      "outputs": [],
      "stateMutability": "payable",
      "type": "function"
    },
    {
      "inputs": [
        {
          "internalType": "bytes",
          "name": "",
          "type": "bytes"
        }
      ],
      "name": "usedSignatures",
      "outputs": [
        {
          "internalType": "bool",
          "name": "",
          "type": "bool"
        }
      ],
      "stateMutability": "view",
      "type": "function"
    }
  ],
  "bytecode": "0x60a06040523060805234801561001457600080fd5b50608051611fb761004c600039600081816108410152818161088101528181610a3801528181610a780152610b070152611fb76000f3fe6080604052600436106101405760003560e01c80634f7efc45116100b6578063a217fddf1161006f578063a217fddf1461038f578063c4b95b5c146103a4578063d547741f146103c4578063e949580e146103e4578063ec87621c14610420578063f2fde38b1461044257600080fd5b80634f7efc45146102e657806352d1902d146103075780636c19e7831461031c578063715018a61461033c5780638da5cb5b1461035157806391d148541461036f57600080fd5b80632f2ff15d116101085780632f2ff15d1461023357806336568abe146102535780633659cfe614610273578063377e32e614610293578063485cc955146102b35780634f1ef286146102d357600080fd5b806301ffc9a714610145578063165ed2761461017a578063238ac9331461019c578063248a9ca3146101d55780632bf390e514610213575b600080fd5b34801561015157600080fd5b50610165610160366004611936565b610462565b60405190151581526020015b60405180910390f35b34801561018657600080fd5b5061019a61019536600461197c565b610499565b005b3480156101a857600080fd5b5061012e546101bd906001600160a01b031681565b6040516001600160a01b039091168152602001610171565b3480156101e157600080fd5b506102056101f0366004611997565b60009081526065602052604090206001015490565b604051908152602001610171565b34801561021f57600080fd5b5061019a61022e3660046119f2565b6104c7565b34801561023f57600080fd5b5061019a61024e366004611aab565b61078d565b34801561025f57600080fd5b5061019a61026e366004611aab565b6107b8565b34801561027f57600080fd5b5061019a61028e36600461197c565b610836565b34801561029f57600080fd5b5061019a6102ae36600461197c565b610916565b3480156102bf57600080fd5b5061019a6102ce366004611ad7565b610939565b61019a6102e1366004611ba4565b610a2d565b3480156102f257600080fd5b5061012d546101bd906001600160a01b031681565b34801561031357600080fd5b50610205610afa565b34801561032857600080fd5b5061019a61033736600461197c565b610bad565b34801561034857600080fd5b5061019a610bdb565b34801561035d57600080fd5b506097546001600160a01b03166101bd565b34801561037b57600080fd5b5061016561038a366004611aab565b610c41565b34801561039b57600080fd5b50610205600081565b3480156103b057600080fd5b5061019a6103bf36600461197c565b610c6c565b3480156103d057600080fd5b5061019a6103df366004611aab565b610c8f565b3480156103f057600080fd5b506101656103ff366004611bf2565b805160208183018101805161012f8252928201919093012091525460ff1681565b34801561042c57600080fd5b50610205600080516020611f3b83398151915281565b34801561044e57600080fd5b5061019a61045d36600461197c565b610cb5565b60006001600160e01b03198216637965db0b60e01b148061049357506301ffc9a760e01b6001600160e01b03198316145b92915050565b6104a4600033610d7d565b61012d80546001600160a01b0319166001600160a01b0392909216919091179055565b32331461051b5760405162461bcd60e51b815260206004820152601e60248201527f5468652063616c6c657220697320616e6f7468657220636f6e7472616374000060448201526064015b60405180910390fd5b600033308b8b8b8b8b8b60405160200161053c989796959493929190611c2f565b60405160208183030381529060405280519060200120905061012f8383604051610567929190611c8e565b9081526040519081900360200190205460ff16156105c05760405162461bcd60e51b81526020600482015260166024820152751cda59db985d1d5c9948185b1c9958591e481d5cd95960521b6044820152606401610512565b61060b83838080601f0160208091040260200160405190810160405280939291908181526020018383808284376000920191909152506106059250859150610de19050565b90610e34565b61012e546001600160a01b0390811691161461065f5760405162461bcd60e51b81526020600482015260136024820152720e6d2cedcc2e8eae4ca40dcdee840dac2e8c6d606b1b6044820152606401610512565b8381146106a05760405162461bcd60e51b815260206004820152600f60248201526e0c8d2cecae6e840dad2e6dac2e8c6d608b1b6044820152606401610512565b61012d5460405163731133e960e01b8152336004820152602481018c9052604481018b905260806064820152600060848201526001600160a01b039091169063731133e99060a401600060405180830381600087803b15801561070257600080fd5b505af1158015610716573d6000803e3d6000fd5b50505050600161012f848460405161072f929190611c8e565b90815260405160209181900382018120805460ff1916931515939093179092558a82528b9133917f88c3cf684843e1bbcafe174eb290547dbee8582941fb0b516466790c1aa79140910160405180910390a350505050505050505050565b6000828152606560205260409020600101546107a98133610d7d565b6107b38383610e58565b505050565b6001600160a01b03811633146108285760405162461bcd60e51b815260206004820152602f60248201527f416363657373436f6e74726f6c3a2063616e206f6e6c792072656e6f756e636560448201526e103937b632b9903337b91039b2b63360891b6064820152608401610512565b6108328282610ede565b5050565b306001600160a01b037f000000000000000000000000000000000000000000000000000000000000000016141561087f5760405162461bcd60e51b815260040161051290611c9e565b7f00000000000000000000000000000000000000000000000000000000000000006001600160a01b03166108c8600080516020611f1b833981519152546001600160a01b031690565b6001600160a01b0316146108ee5760405162461bcd60e51b815260040161051290611cea565b6108f781610f45565b6040805160008082526020820190925261091391839190610f50565b50565b610921600033610d7d565b610913600080516020611f3b83398151915282610ede565b600054610100900460ff166109545760005460ff1615610958565b303b155b6109bb5760405162461bcd60e51b815260206004820152602e60248201527f496e697469616c697a61626c653a20636f6e747261637420697320616c72656160448201526d191e481a5b9a5d1a585b1a5e995960921b6064820152608401610512565b600054610100900460ff161580156109dd576000805461ffff19166101011790555b6109e56110ca565b61012e80546001600160a01b038086166001600160a01b03199283161790925561012d80549285169290911691909117905580156107b3576000805461ff0019169055505050565b306001600160a01b037f0000000000000000000000000000000000000000000000000000000000000000161415610a765760405162461bcd60e51b815260040161051290611c9e565b7f00000000000000000000000000000000000000000000000000000000000000006001600160a01b0316610abf600080516020611f1b833981519152546001600160a01b031690565b6001600160a01b031614610ae55760405162461bcd60e51b815260040161051290611cea565b610aee82610f45565b61083282826001610f50565b6000306001600160a01b037f00000000000000000000000000000000000000000000000000000000000000001614610b9a5760405162461bcd60e51b815260206004820152603860248201527f555550535570677261646561626c653a206d757374206e6f742062652063616c60448201527f6c6564207468726f7567682064656c656761746563616c6c00000000000000006064820152608401610512565b50600080516020611f1b83398151915290565b610bb8600033610d7d565b61012e80546001600160a01b0319166001600160a01b0392909216919091179055565b6097546001600160a01b03163314610c355760405162461bcd60e51b815260206004820181905260248201527f4f776e61626c653a2063616c6c6572206973206e6f7420746865206f776e65726044820152606401610512565b610c3f600061112c565b565b60009182526065602090815260408084206001600160a01b0393909316845291905290205460ff1690565b610c77600033610d7d565b610913600080516020611f3b8339815191528261117e565b600082815260656020526040902060010154610cab8133610d7d565b6107b38383610ede565b6097546001600160a01b03163314610d0f5760405162461bcd60e51b815260206004820181905260248201527f4f776e61626c653a2063616c6c6572206973206e6f7420746865206f776e65726044820152606401610512565b6001600160a01b038116610d745760405162461bcd60e51b815260206004820152602660248201527f4f776e61626c653a206e6577206f776e657220697320746865207a65726f206160448201526564647265737360d01b6064820152608401610512565b6109138161112c565b610d878282610c41565b61083257610d9f816001600160a01b03166014611188565b610daa836020611188565b604051602001610dbb929190611d62565b60408051601f198184030181529082905262461bcd60e51b825261051291600401611dd7565b6040517f19457468657265756d205369676e6564204d6573736167653a0a3332000000006020820152603c8101829052600090605c01604051602081830303815290604052805190602001209050919050565b6000806000610e43858561132b565b91509150610e508161139b565b509392505050565b610e628282610c41565b6108325760008281526065602090815260408083206001600160a01b03851684529091529020805460ff19166001179055610e9a3390565b6001600160a01b0316816001600160a01b0316837f2f8788117e7eff1d82e926ec794901d17c78024a50270940304540a733656f0d60405160405180910390a45050565b610ee88282610c41565b156108325760008281526065602090815260408083206001600160a01b0385168085529252808320805460ff1916905551339285917ff6391f5c32d9c69d2a47ea670b442974b53935d1edc7fd64eb21e047a839171b9190a45050565b610913600033610d7d565b7f4910fdfa16fed3260ed0e7147f7cc6da11a60208b5b9406d12a635614ffd91435460ff1615610f83576107b383611556565b826001600160a01b03166352d1902d6040518163ffffffff1660e01b815260040160206040518083038186803b158015610fbc57600080fd5b505afa925050508015610fec575060408051601f3d908101601f19168201909252610fe991810190611e0a565b60015b61104f5760405162461bcd60e51b815260206004820152602e60248201527f45524331393637557067726164653a206e657720696d706c656d656e7461746960448201526d6f6e206973206e6f74205555505360901b6064820152608401610512565b600080516020611f1b83398151915281146110be5760405162461bcd60e51b815260206004820152602960248201527f45524331393637557067726164653a20756e737570706f727465642070726f786044820152681a58589b195555525160ba1b6064820152608401610512565b506107b38383836115f2565b600054610100900460ff166110f15760405162461bcd60e51b815260040161051290611e23565b6110f961161d565b611101611644565b61110961161d565b61111460003361117e565b610c3f600080516020611f3b8339815191523361117e565b609780546001600160a01b038381166001600160a01b0319831681179093556040519116919082907f8be0079c531659141344cd1fd0a4f28419497f9722a3daafe3b4186f6b6457e090600090a35050565b6108328282610e58565b60606000611197836002611e84565b6111a2906002611ea3565b67ffffffffffffffff8111156111ba576111ba611b01565b6040519080825280601f01601f1916602001820160405280156111e4576020820181803683370190505b509050600360fc1b816000815181106111ff576111ff611ebb565b60200101906001600160f81b031916908160001a905350600f60fb1b8160018151811061122e5761122e611ebb565b60200101906001600160f81b031916908160001a9053506000611252846002611e84565b61125d906001611ea3565b90505b60018111156112d5576f181899199a1a9b1b9c1cb0b131b232b360811b85600f166010811061129157611291611ebb565b1a60f81b8282815181106112a7576112a7611ebb565b60200101906001600160f81b031916908160001a90535060049490941c936112ce81611ed1565b9050611260565b5083156113245760405162461bcd60e51b815260206004820181905260248201527f537472696e67733a20686578206c656e67746820696e73756666696369656e746044820152606401610512565b9392505050565b6000808251604114156113625760208301516040840151606085015160001a61135687828585611673565b94509450505050611394565b82516040141561138c5760208301516040840151611381868383611760565b935093505050611394565b506000905060025b9250929050565b60008160048111156113af576113af611ee8565b14156113b85750565b60018160048111156113cc576113cc611ee8565b141561141a5760405162461bcd60e51b815260206004820152601860248201527f45434453413a20696e76616c6964207369676e617475726500000000000000006044820152606401610512565b600281600481111561142e5761142e611ee8565b141561147c5760405162461bcd60e51b815260206004820152601f60248201527f45434453413a20696e76616c6964207369676e6174757265206c656e677468006044820152606401610512565b600381600481111561149057611490611ee8565b14156114e95760405162461bcd60e51b815260206004820152602260248201527f45434453413a20696e76616c6964207369676e6174757265202773272076616c604482015261756560f01b6064820152608401610512565b60048160048111156114fd576114fd611ee8565b14156109135760405162461bcd60e51b815260206004820152602260248201527f45434453413a20696e76616c6964207369676e6174757265202776272076616c604482015261756560f01b6064820152608401610512565b6001600160a01b0381163b6115c35760405162461bcd60e51b815260206004820152602d60248201527f455243313936373a206e657720696d706c656d656e746174696f6e206973206e60448201526c1bdd08184818dbdb9d1c9858dd609a1b6064820152608401610512565b600080516020611f1b83398151915280546001600160a01b0319166001600160a01b0392909216919091179055565b6115fb83611799565b6000825111806116085750805b156107b35761161783836117d9565b50505050565b600054610100900460ff16610c3f5760405162461bcd60e51b815260040161051290611e23565b600054610100900460ff1661166b5760405162461bcd60e51b815260040161051290611e23565b610c3f6118cd565b6000807f7fffffffffffffffffffffffffffffff5d576e7357a4501ddfe92f46681b20a08311156116aa5750600090506003611757565b8460ff16601b141580156116c257508460ff16601c14155b156116d35750600090506004611757565b6040805160008082526020820180845289905260ff881692820192909252606081018690526080810185905260019060a0016020604051602081039080840390855afa158015611727573d6000803e3d6000fd5b5050604051601f1901519150506001600160a01b03811661175057600060019250925050611757565b9150600090505b94509492505050565b6000806001600160ff1b0383168161177d60ff86901c601b611ea3565b905061178b87828885611673565b935093505050935093915050565b6117a281611556565b6040516001600160a01b038216907fbc7cd75a20ee27fd9adebab32041f755214dbc6bffa90cc0225b39da2e5c2d3b90600090a250565b60606001600160a01b0383163b6118415760405162461bcd60e51b815260206004820152602660248201527f416464726573733a2064656c65676174652063616c6c20746f206e6f6e2d636f6044820152651b9d1c9858dd60d21b6064820152608401610512565b600080846001600160a01b03168460405161185c9190611efe565b600060405180830381855af49150503d8060008114611897576040519150601f19603f3d011682016040523d82523d6000602084013e61189c565b606091505b50915091506118c48282604051806060016040528060278152602001611f5b602791396118fd565b95945050505050565b600054610100900460ff166118f45760405162461bcd60e51b815260040161051290611e23565b610c3f3361112c565b6060831561190c575081611324565b82511561191c5782518084602001fd5b8160405162461bcd60e51b81526004016105129190611dd7565b60006020828403121561194857600080fd5b81356001600160e01b03198116811461132457600080fd5b80356001600160a01b038116811461197757600080fd5b919050565b60006020828403121561198e57600080fd5b61132482611960565b6000602082840312156119a957600080fd5b5035919050565b60008083601f8401126119c257600080fd5b50813567ffffffffffffffff8111156119da57600080fd5b60208301915083602082850101111561139457600080fd5b600080600080600080600080600060c08a8c031215611a1057600080fd5b8935985060208a0135975060408a013567ffffffffffffffff80821115611a3657600080fd5b611a428d838e016119b0565b909950975060608c0135915080821115611a5b57600080fd5b611a678d838e016119b0565b909750955060808c0135945060a08c0135915080821115611a8757600080fd5b50611a948c828d016119b0565b915080935050809150509295985092959850929598565b60008060408385031215611abe57600080fd5b82359150611ace60208401611960565b90509250929050565b60008060408385031215611aea57600080fd5b611af383611960565b9150611ace60208401611960565b634e487b7160e01b600052604160045260246000fd5b600082601f830112611b2857600080fd5b813567ffffffffffffffff80821115611b4357611b43611b01565b604051601f8301601f19908116603f01168101908282118183101715611b6b57611b6b611b01565b81604052838152866020858801011115611b8457600080fd5b836020870160208301376000602085830101528094505050505092915050565b60008060408385031215611bb757600080fd5b611bc083611960565b9150602083013567ffffffffffffffff811115611bdc57600080fd5b611be885828601611b17565b9150509250929050565b600060208284031215611c0457600080fd5b813567ffffffffffffffff811115611c1b57600080fd5b611c2784828501611b17565b949350505050565b60006bffffffffffffffffffffffff19808b60601b168352808a60601b16601484015250876028830152866048830152848660688401378482016068810160008152848682375060009301606801928352509098975050505050505050565b8183823760009101908152919050565b6020808252602c908201527f46756e6374696f6e206d7573742062652063616c6c6564207468726f7567682060408201526b19195b1959d85d1958d85b1b60a21b606082015260800190565b6020808252602c908201527f46756e6374696f6e206d7573742062652063616c6c6564207468726f7567682060408201526b6163746976652070726f787960a01b606082015260800190565b60005b83811015611d51578181015183820152602001611d39565b838111156116175750506000910152565b7f416363657373436f6e74726f6c3a206163636f756e7420000000000000000000815260008351611d9a816017850160208801611d36565b7001034b99036b4b9b9b4b733903937b6329607d1b6017918401918201528351611dcb816028840160208801611d36565b01602801949350505050565b6020815260008251806020840152611df6816040850160208701611d36565b601f01601f19169190910160400192915050565b600060208284031215611e1c57600080fd5b5051919050565b6020808252602b908201527f496e697469616c697a61626c653a20636f6e7472616374206973206e6f74206960408201526a6e697469616c697a696e6760a81b606082015260800190565b634e487b7160e01b600052601160045260246000fd5b6000816000190483118215151615611e9e57611e9e611e6e565b500290565b60008219821115611eb657611eb6611e6e565b500190565b634e487b7160e01b600052603260045260246000fd5b600081611ee057611ee0611e6e565b506000190190565b634e487b7160e01b600052602160045260246000fd5b60008251611f10818460208701611d36565b919091019291505056fe360894a13ba1a3210667c828492db98dca3e2076cc3735a920a3ca505d382bbc241ecf16d79d0f8dbfb92cbc07fe17840425976cf0667f022fe9877caa831b08416464726573733a206c6f772d6c6576656c2064656c65676174652063616c6c206661696c6564a2646970667358221220473bff6961906761f615d9e213da489d0f6a1c2fc9087b7dd2e8892369773be064736f6c63430008090033",
  "linkReferences": {},
  "deployedLinkReferences": {}
}