{
  "_format": "hh-sol-artifact-1",
  "contractName": "PearlBank",
  "sourceName": "contracts/PearlBank.sol",
  "abi": [
    {
      "anonymous": false,
      "inputs": [
        {
          "indexed": true,
          "internalType": "address",
          "name": "_contract",
          "type": "address"
        }
      ],
      "name": "AddToContractWhitelist",
      "type": "event"
    },
    {
      "anonymous": false,
      "inputs": [
        {
          "indexed": false,
          "internalType": "address",
          "name": "previousAdmin",
          "type": "address"
        },
        {
          "indexed": false,
          "internalType": "address",
          "name": "newAdmin",
          "type": "address"
        }
      ],
      "name": "AdminChanged",
      "type": "event"
    },
    {
      "anonymous": false,
      "inputs": [
        {
          "indexed": true,
          "internalType": "address",
          "name": "owner",
          "type": "address"
        },
        {
          "indexed": true,
          "internalType": "address",
          "name": "spender",
          "type": "address"
        },
        {
          "indexed": false,
          "internalType": "uint256",
          "name": "value",
          "type": "uint256"
        }
      ],
      "name": "Approval",
      "type": "event"
    },
    {
      "anonymous": false,
      "inputs": [
        {
          "indexed": true,
          "internalType": "address",
          "name": "beacon",
          "type": "address"
        }
      ],
      "name": "BeaconUpgraded",
      "type": "event"
    },
    {
      "anonymous": false,
      "inputs": [
        {
          "indexed": true,
          "internalType": "address",
          "name": "_contract",
          "type": "address"
        }
      ],
      "name": "RemoveFromContractWhitelist",
      "type": "event"
    },
    {
      "anonymous": false,
      "inputs": [
        {
          "indexed": true,
          "internalType": "address",
          "name": "token",
          "type": "address"
        },
        {
          "indexed": false,
          "internalType": "uint256",
          "name": "amount",
          "type": "uint256"
        },
        {
          "indexed": false,
          "internalType": "uint256",
          "name": "rps",
          "type": "uint256"
        }
      ],
      "name": "RewardAdded",
      "type": "event"
    },
    {
      "anonymous": false,
      "inputs": [
        {
          "indexed": true,
          "internalType": "address",
          "name": "token",
          "type": "address"
        },
        {
          "indexed": true,
          "internalType": "address",
          "name": "staker",
          "type": "address"
        },
        {
          "indexed": false,
          "internalType": "uint256",
          "name": "amount",
          "type": "uint256"
        }
      ],
      "name": "RewardClaimed",
      "type": "event"
    },
    {
      "anonymous": false,
      "inputs": [
        {
          "indexed": false,
          "internalType": "address",
          "name": "newRewardManager",
          "type": "address"
        }
      ],
      "name": "RewardManagerUpdated",
      "type": "event"
    },
    {
      "anonymous": false,
      "inputs": [
        {
          "indexed": true,
          "internalType": "bytes32",
          "name": "role",
          "type": "bytes32"
        },
        {
          "indexed": true,
          "internalType": "bytes32",
          "name": "previousAdminRole",
          "type": "bytes32"
        },
        {
          "indexed": true,
          "internalType": "bytes32",
          "name": "newAdminRole",
          "type": "bytes32"
        }
      ],
      "name": "RoleAdminChanged",
      "type": "event"
    },
    {
      "anonymous": false,
      "inputs": [
        {
          "indexed": true,
          "internalType": "bytes32",
          "name": "role",
          "type": "bytes32"
        },
        {
          "indexed": true,
          "internalType": "address",
          "name": "account",
          "type": "address"
        },
        {
          "indexed": true,
          "internalType": "address",
          "name": "sender",
          "type": "address"
        }
      ],
      "name": "RoleGranted",
      "type": "event"
    },
    {
      "anonymous": false,
      "inputs": [
        {
          "indexed": true,
          "internalType": "bytes32",
          "name": "role",
          "type": "bytes32"
        },
        {
          "indexed": true,
          "internalType": "address",
          "name": "account",
          "type": "address"
        },
        {
          "indexed": true,
          "internalType": "address",
          "name": "sender",
          "type": "address"
        }
      ],
      "name": "RoleRevoked",
      "type": "event"
    },
    {
      "anonymous": false,
      "inputs": [
        {
          "indexed": true,
          "internalType": "address",
          "name": "addr",
          "type": "address"
        },
        {
          "indexed": false,
          "internalType": "uint256",
          "name": "amount",
          "type": "uint256"
        },
        {
          "indexed": false,
          "internalType": "uint256",
          "name": "multipliedAmount",
          "type": "uint256"
        }
      ],
      "name": "Stake",
      "type": "event"
    },
    {
      "anonymous": false,
      "inputs": [
        {
          "indexed": true,
          "internalType": "address",
          "name": "addr",
          "type": "address"
        },
        {
          "indexed": true,
          "internalType": "address",
          "name": "nft",
          "type": "address"
        },
        {
          "indexed": true,
          "internalType": "uint256",
          "name": "tokenId",
          "type": "uint256"
        },
        {
          "indexed": false,
          "internalType": "uint256",
          "name": "multipliedAmount",
          "type": "uint256"
        }
      ],
      "name": "StakeMultiplier",
      "type": "event"
    },
    {
      "anonymous": false,
      "inputs": [
        {
          "indexed": true,
          "internalType": "address",
          "name": "from",
          "type": "address"
        },
        {
          "indexed": true,
          "internalType": "address",
          "name": "to",
          "type": "address"
        },
        {
          "indexed": false,
          "internalType": "uint256",
          "name": "value",
          "type": "uint256"
        }
      ],
      "name": "Transfer",
      "type": "event"
    },
    {
      "anonymous": false,
      "inputs": [
        {
          "indexed": true,
          "internalType": "address",
          "name": "implementation",
          "type": "address"
        }
      ],
      "name": "Upgraded",
      "type": "event"
    },
    {
      "anonymous": false,
      "inputs": [
        {
          "indexed": true,
          "internalType": "address",
          "name": "addr",
          "type": "address"
        },
        {
          "indexed": false,
          "internalType": "uint256",
          "name": "amount",
          "type": "uint256"
        },
        {
          "indexed": false,
          "internalType": "uint256",
          "name": "fee",
          "type": "uint256"
        }
      ],
      "name": "Withdraw",
      "type": "event"
    },
    {
      "anonymous": false,
      "inputs": [
        {
          "indexed": true,
          "internalType": "address",
          "name": "addr",
          "type": "address"
        },
        {
          "indexed": true,
          "internalType": "address",
          "name": "nft",
          "type": "address"
        },
        {
          "indexed": true,
          "internalType": "uint256",
          "name": "tokenId",
          "type": "uint256"
        },
        {
          "indexed": false,
          "internalType": "uint256",
          "name": "multipliedAmount",
          "type": "uint256"
        }
      ],
      "name": "WithdrawMultiplier",
      "type": "event"
    },
    {
      "inputs": [],
      "name": "BASE",
      "outputs": [
        {
          "internalType": "uint256",
          "name": "",
          "type": "uint256"
        }
      ],
      "stateMutability": "view",
      "type": "function"
    },
    {
      "inputs": [],
      "name": "CLAM",
      "outputs": [
        {
          "internalType": "address",
          "name": "",
          "type": "address"
        }
      ],
      "stateMutability": "view",
      "type": "function"
    },
    {
      "inputs": [],
      "name": "DEFAULT_ADMIN_ROLE",
      "outputs": [
        {
          "internalType": "bytes32",
          "name": "",
          "type": "bytes32"
        }
      ],
      "stateMutability": "view",
      "type": "function"
    },
    {
      "inputs": [],
      "name": "MANAGER_ROLE",
      "outputs": [
        {
          "internalType": "bytes32",
          "name": "",
          "type": "bytes32"
        }
      ],
      "stateMutability": "view",
      "type": "function"
    },
    {
      "inputs": [],
      "name": "SCALE",
      "outputs": [
        {
          "internalType": "uint256",
          "name": "",
          "type": "uint256"
        }
      ],
      "stateMutability": "view",
      "type": "function"
    },
    {
      "inputs": [
        {
          "internalType": "address",
          "name": "token",
          "type": "address"
        },
        {
          "internalType": "uint256",
          "name": "amount",
          "type": "uint256"
        }
      ],
      "name": "addReward",
      "outputs": [],
      "stateMutability": "nonpayable",
      "type": "function"
    },
    {
      "inputs": [
        {
          "internalType": "address",
          "name": "token",
          "type": "address"
        }
      ],
      "name": "addRewardToken",
      "outputs": [],
      "stateMutability": "nonpayable",
      "type": "function"
    },
    {
      "inputs": [
        {
          "internalType": "address",
          "name": "_contract",
          "type": "address"
        }
      ],
      "name": "addToContractWhitelist",
      "outputs": [
        {
          "internalType": "bool",
          "name": "",
          "type": "bool"
        }
      ],
      "stateMutability": "nonpayable",
      "type": "function"
    },
    {
      "inputs": [
        {
          "internalType": "address",
          "name": "owner",
          "type": "address"
        },
        {
          "internalType": "address",
          "name": "spender",
          "type": "address"
        }
      ],
      "name": "allowance",
      "outputs": [
        {
          "internalType": "uint256",
          "name": "",
          "type": "uint256"
        }
      ],
      "stateMutability": "view",
      "type": "function"
    },
    {
      "inputs": [
        {
          "internalType": "address",
          "name": "spender",
          "type": "address"
        },
        {
          "internalType": "uint256",
          "name": "amount",
          "type": "uint256"
        }
      ],
      "name": "approve",
      "outputs": [
        {
          "internalType": "bool",
          "name": "",
          "type": "bool"
        }
      ],
      "stateMutability": "nonpayable",
      "type": "function"
    },
    {
      "inputs": [
        {
          "internalType": "address",
          "name": "account",
          "type": "address"
        }
      ],
      "name": "balanceOf",
      "outputs": [
        {
          "internalType": "uint256",
          "name": "",
          "type": "uint256"
        }
      ],
      "stateMutability": "view",
      "type": "function"
    },
    {
      "inputs": [],
      "name": "claimRewards",
      "outputs": [],
      "stateMutability": "nonpayable",
      "type": "function"
    },
    {
      "inputs": [],
      "name": "decimals",
      "outputs": [
        {
          "internalType": "uint8",
          "name": "",
          "type": "uint8"
        }
      ],
      "stateMutability": "view",
      "type": "function"
    },
    {
      "inputs": [
        {
          "internalType": "address",
          "name": "spender",
          "type": "address"
        },
        {
          "internalType": "uint256",
          "name": "subtractedValue",
          "type": "uint256"
        }
      ],
      "name": "decreaseAllowance",
      "outputs": [
        {
          "internalType": "bool",
          "name": "",
          "type": "bool"
        }
      ],
      "stateMutability": "nonpayable",
      "type": "function"
    },
    {
      "inputs": [],
      "name": "depositLimit",
      "outputs": [
        {
          "internalType": "uint256",
          "name": "",
          "type": "uint256"
        }
      ],
      "stateMutability": "view",
      "type": "function"
    },
    {
      "inputs": [
        {
          "internalType": "address",
          "name": "staker",
          "type": "address"
        },
        {
          "internalType": "address",
          "name": "token",
          "type": "address"
        }
      ],
      "name": "getAvailableTokenRewards",
      "outputs": [
        {
          "internalType": "uint256",
          "name": "totalRewards",
          "type": "uint256"
        }
      ],
      "stateMutability": "view",
      "type": "function"
    },
    {
      "inputs": [
        {
          "internalType": "bytes32",
          "name": "role",
          "type": "bytes32"
        }
      ],
      "name": "getRoleAdmin",
      "outputs": [
        {
          "internalType": "bytes32",
          "name": "",
          "type": "bytes32"
        }
      ],
      "stateMutability": "view",
      "type": "function"
    },
    {
      "inputs": [
        {
          "internalType": "bytes32",
          "name": "role",
          "type": "bytes32"
        },
        {
          "internalType": "address",
          "name": "account",
          "type": "address"
        }
      ],
      "name": "grantRole",
      "outputs": [],
      "stateMutability": "nonpayable",
      "type": "function"
    },
    {
      "inputs": [
        {
          "internalType": "bytes32",
          "name": "role",
          "type": "bytes32"
        },
        {
          "internalType": "address",
          "name": "account",
          "type": "address"
        }
      ],
      "name": "hasRole",
      "outputs": [
        {
          "internalType": "bool",
          "name": "",
          "type": "bool"
        }
      ],
      "stateMutability": "view",
      "type": "function"
    },
    {
      "inputs": [
        {
          "internalType": "address",
          "name": "spender",
          "type": "address"
        },
        {
          "internalType": "uint256",
          "name": "addedValue",
          "type": "uint256"
        }
      ],
      "name": "increaseAllowance",
      "outputs": [
        {
          "internalType": "bool",
          "name": "",
          "type": "bool"
        }
      ],
      "stateMutability": "nonpayable",
      "type": "function"
    },
    {
      "inputs": [
        {
          "internalType": "address",
          "name": "CLAM_",
          "type": "address"
        },
        {
          "internalType": "string",
          "name": "name_",
          "type": "string"
        },
        {
          "internalType": "string",
          "name": "symbol_",
          "type": "string"
        },
        {
          "internalType": "uint256",
          "name": "depositLimit_",
          "type": "uint256"
        }
      ],
      "name": "initialize",
      "outputs": [],
      "stateMutability": "nonpayable",
      "type": "function"
    },
    {
      "inputs": [
        {
          "internalType": "address",
          "name": "addr",
          "type": "address"
        }
      ],
      "name": "isContract",
      "outputs": [
        {
          "internalType": "bool",
          "name": "",
          "type": "bool"
        }
      ],
      "stateMutability": "view",
      "type": "function"
    },
    {
      "inputs": [
        {
          "internalType": "address",
          "name": "",
          "type": "address"
        }
      ],
      "name": "isRewardToken",
      "outputs": [
        {
          "internalType": "bool",
          "name": "",
          "type": "bool"
        }
      ],
      "stateMutability": "view",
      "type": "function"
    },
    {
      "inputs": [
        {
          "internalType": "address",
          "name": "addr",
          "type": "address"
        }
      ],
      "name": "isWhitelisted",
      "outputs": [
        {
          "internalType": "bool",
          "name": "",
          "type": "bool"
        }
      ],
      "stateMutability": "view",
      "type": "function"
    },
    {
      "inputs": [
        {
          "internalType": "address",
          "name": "addr",
          "type": "address"
        }
      ],
      "name": "isWhitelistedContract",
      "outputs": [
        {
          "internalType": "bool",
          "name": "",
          "type": "bool"
        }
      ],
      "stateMutability": "view",
      "type": "function"
    },
    {
      "inputs": [],
      "name": "multiplierStakingEnabled",
      "outputs": [
        {
          "internalType": "bool",
          "name": "",
          "type": "bool"
        }
      ],
      "stateMutability": "view",
      "type": "function"
    },
    {
      "inputs": [],
      "name": "name",
      "outputs": [
        {
          "internalType": "string",
          "name": "",
          "type": "string"
        }
      ],
      "stateMutability": "view",
      "type": "function"
    },
    {
      "inputs": [
        {
          "internalType": "address",
          "name": "",
          "type": "address"
        },
        {
          "internalType": "address",
          "name": "",
          "type": "address"
        },
        {
          "internalType": "uint256",
          "name": "",
          "type": "uint256"
        },
        {
          "internalType": "bytes",
          "name": "",
          "type": "bytes"
        }
      ],
      "name": "onERC721Received",
      "outputs": [
        {
          "internalType": "bytes4",
          "name": "",
          "type": "bytes4"
        }
      ],
      "stateMutability": "pure",
      "type": "function"
    },
    {
      "inputs": [
        {
          "internalType": "address",
          "name": "",
          "type": "address"
        }
      ],
      "name": "otterInfo",
      "outputs": [
        {
          "internalType": "uint256",
          "name": "amount",
          "type": "uint256"
        },
        {
          "internalType": "uint256",
          "name": "multipliedAmount",
          "type": "uint256"
        },
        {
          "internalType": "uint256",
          "name": "timestamp",
          "type": "uint256"
        }
      ],
      "stateMutability": "view",
      "type": "function"
    },
    {
      "inputs": [
        {
          "internalType": "address",
          "name": "",
          "type": "address"
        },
        {
          "internalType": "address",
          "name": "",
          "type": "address"
        }
      ],
      "name": "paidTokenRewardsPerStake",
      "outputs": [
        {
          "internalType": "uint256",
          "name": "",
          "type": "uint256"
        }
      ],
      "stateMutability": "view",
      "type": "function"
    },
    {
      "inputs": [],
      "name": "payRewardsEnabled",
      "outputs": [
        {
          "internalType": "bool",
          "name": "",
          "type": "bool"
        }
      ],
      "stateMutability": "view",
      "type": "function"
    },
    {
      "inputs": [],
      "name": "proxiableUUID",
      "outputs": [
        {
          "internalType": "bytes32",
          "name": "",
          "type": "bytes32"
        }
      ],
      "stateMutability": "view",
      "type": "function"
    },
    {
      "inputs": [
        {
          "internalType": "address",
          "name": "_contract",
          "type": "address"
        }
      ],
      "name": "removeFromContractWhitelist",
      "outputs": [
        {
          "internalType": "bool",
          "name": "",
          "type": "bool"
        }
      ],
      "stateMutability": "nonpayable",
      "type": "function"
    },
    {
      "inputs": [
        {
          "internalType": "address",
          "name": "token",
          "type": "address"
        }
      ],
      "name": "removeRewardToken",
      "outputs": [],
      "stateMutability": "nonpayable",
      "type": "function"
    },
    {
      "inputs": [
        {
          "internalType": "bytes32",
          "name": "role",
          "type": "bytes32"
        },
        {
          "internalType": "address",
          "name": "account",
          "type": "address"
        }
      ],
      "name": "renounceRole",
      "outputs": [],
      "stateMutability": "nonpayable",
      "type": "function"
    },
    {
      "inputs": [
        {
          "internalType": "bytes32",
          "name": "role",
          "type": "bytes32"
        },
        {
          "internalType": "address",
          "name": "account",
          "type": "address"
        }
      ],
      "name": "revokeRole",
      "outputs": [],
      "stateMutability": "nonpayable",
      "type": "function"
    },
    {
      "inputs": [],
      "name": "rewardManager",
      "outputs": [
        {
          "internalType": "address",
          "name": "",
          "type": "address"
        }
      ],
      "stateMutability": "view",
      "type": "function"
    },
    {
      "inputs": [
        {
          "internalType": "uint256",
          "name": "",
          "type": "uint256"
        }
      ],
      "name": "rewardTokens",
      "outputs": [
        {
          "internalType": "address",
          "name": "",
          "type": "address"
        }
      ],
      "stateMutability": "view",
      "type": "function"
    },
    {
      "inputs": [
        {
          "internalType": "uint256",
          "name": "limit",
          "type": "uint256"
        }
      ],
      "name": "setDepositLimit",
      "outputs": [],
      "stateMutability": "nonpayable",
      "type": "function"
    },
    {
      "inputs": [
        {
          "internalType": "bool",
          "name": "enabled",
          "type": "bool"
        }
      ],
      "name": "setMultiplierStakeEnabled",
      "outputs": [],
      "stateMutability": "nonpayable",
      "type": "function"
    },
    {
      "inputs": [
        {
          "internalType": "bool",
          "name": "enabled",
          "type": "bool"
        }
      ],
      "name": "setPayRewardsEnabled",
      "outputs": [],
      "stateMutability": "nonpayable",
      "type": "function"
    },
    {
      "inputs": [
        {
          "internalType": "address",
          "name": "rewardManager_",
          "type": "address"
        }
      ],
      "name": "setRewardManager",
      "outputs": [],
      "stateMutability": "nonpayable",
      "type": "function"
    },
    {
      "inputs": [
        {
          "internalType": "uint256",
          "name": "_scale",
          "type": "uint256"
        }
      ],
      "name": "setScale",
      "outputs": [],
      "stateMutability": "nonpayable",
      "type": "function"
    },
    {
      "inputs": [
        {
          "internalType": "bool",
          "name": "enabled",
          "type": "bool"
        }
      ],
      "name": "setStakeEnabled",
      "outputs": [],
      "stateMutability": "nonpayable",
      "type": "function"
    },
    {
      "inputs": [
        {
          "internalType": "bool",
          "name": "enabled",
          "type": "bool"
        }
      ],
      "name": "setStakingWithdrawEnabled",
      "outputs": [],
      "stateMutability": "nonpayable",
      "type": "function"
    },
    {
      "inputs": [
        {
          "internalType": "bool",
          "name": "enabled",
          "type": "bool"
        }
      ],
      "name": "setTransferEnabled",
      "outputs": [],
      "stateMutability": "nonpayable",
      "type": "function"
    },
    {
      "inputs": [
        {
          "internalType": "uint256",
          "name": "duration",
          "type": "uint256"
        }
      ],
      "name": "setWithdrawFeeDuration",
      "outputs": [],
      "stateMutability": "nonpayable",
      "type": "function"
    },
    {
      "inputs": [
        {
          "internalType": "uint256",
          "name": "rate",
          "type": "uint256"
        }
      ],
      "name": "setWithdrawFeeRate",
      "outputs": [],
      "stateMutability": "nonpayable",
      "type": "function"
    },
    {
      "inputs": [
        {
          "internalType": "uint256",
          "name": "amount_",
          "type": "uint256"
        }
      ],
      "name": "stake",
      "outputs": [],
      "stateMutability": "nonpayable",
      "type": "function"
    },
    {
      "inputs": [],
      "name": "stakeEnabled",
      "outputs": [
        {
          "internalType": "bool",
          "name": "",
          "type": "bool"
        }
      ],
      "stateMutability": "view",
      "type": "function"
    },
    {
      "inputs": [
        {
          "internalType": "bytes4",
          "name": "interfaceId",
          "type": "bytes4"
        }
      ],
      "name": "supportsInterface",
      "outputs": [
        {
          "internalType": "bool",
          "name": "",
          "type": "bool"
        }
      ],
      "stateMutability": "view",
      "type": "function"
    },
    {
      "inputs": [],
      "name": "symbol",
      "outputs": [
        {
          "internalType": "string",
          "name": "",
          "type": "string"
        }
      ],
      "stateMutability": "view",
      "type": "function"
    },
    {
      "inputs": [
        {
          "internalType": "address",
          "name": "",
          "type": "address"
        },
        {
          "internalType": "address",
          "name": "",
          "type": "address"
        }
      ],
      "name": "toBePaid",
      "outputs": [
        {
          "internalType": "uint256",
          "name": "",
          "type": "uint256"
        }
      ],
      "stateMutability": "view",
      "type": "function"
    },
    {
      "inputs": [],
      "name": "totalMultipliedStaked",
      "outputs": [
        {
          "internalType": "uint256",
          "name": "",
          "type": "uint256"
        }
      ],
      "stateMutability": "view",
      "type": "function"
    },
    {
      "inputs": [],
      "name": "totalStaked",
      "outputs": [
        {
          "internalType": "uint256",
          "name": "",
          "type": "uint256"
        }
      ],
      "stateMutability": "view",
      "type": "function"
    },
    {
      "inputs": [],
      "name": "totalSupply",
      "outputs": [
        {
          "internalType": "uint256",
          "name": "",
          "type": "uint256"
        }
      ],
      "stateMutability": "view",
      "type": "function"
    },
    {
      "inputs": [
        {
          "internalType": "address",
          "name": "",
          "type": "address"
        }
      ],
      "name": "totalTokenRewardsPerStake",
      "outputs": [
        {
          "internalType": "uint256",
          "name": "",
          "type": "uint256"
        }
      ],
      "stateMutability": "view",
      "type": "function"
    },
    {
      "inputs": [
        {
          "internalType": "address",
          "name": "to",
          "type": "address"
        },
        {
          "internalType": "uint256",
          "name": "amount",
          "type": "uint256"
        }
      ],
      "name": "transfer",
      "outputs": [
        {
          "internalType": "bool",
          "name": "",
          "type": "bool"
        }
      ],
      "stateMutability": "nonpayable",
      "type": "function"
    },
    {
      "inputs": [],
      "name": "transferEnabled",
      "outputs": [
        {
          "internalType": "bool",
          "name": "",
          "type": "bool"
        }
      ],
      "stateMutability": "view",
      "type": "function"
    },
    {
      "inputs": [
        {
          "internalType": "address",
          "name": "from",
          "type": "address"
        },
        {
          "internalType": "address",
          "name": "to",
          "type": "address"
        },
        {
          "internalType": "uint256",
          "name": "amount",
          "type": "uint256"
        }
      ],
      "name": "transferFrom",
      "outputs": [
        {
          "internalType": "bool",
          "name": "",
          "type": "bool"
        }
      ],
      "stateMutability": "nonpayable",
      "type": "function"
    },
    {
      "inputs": [
        {
          "internalType": "address",
          "name": "newImplementation",
          "type": "address"
        }
      ],
      "name": "upgradeTo",
      "outputs": [],
      "stateMutability": "nonpayable",
      "type": "function"
    },
    {
      "inputs": [
        {
          "internalType": "address",
          "name": "newImplementation",
          "type": "address"
        },
        {
          "internalType": "bytes",
          "name": "data",
          "type": "bytes"
        }
      ],
      "name": "upgradeToAndCall",
      "outputs": [],
      "stateMutability": "payable",
      "type": "function"
    },
    {
      "inputs": [
        {
          "internalType": "address",
          "name": "",
          "type": "address"
        }
      ],
      "name": "whitelistedContracts",
      "outputs": [
        {
          "internalType": "bool",
          "name": "",
          "type": "bool"
        }
      ],
      "stateMutability": "view",
      "type": "function"
    },
    {
      "inputs": [
        {
          "internalType": "uint256",
          "name": "amount_",
          "type": "uint256"
        }
      ],
      "name": "withdraw",
      "outputs": [
        {
          "internalType": "uint256",
          "name": "",
          "type": "uint256"
        }
      ],
      "stateMutability": "nonpayable",
      "type": "function"
    },
    {
      "inputs": [],
      "name": "withdrawEnabled",
      "outputs": [
        {
          "internalType": "bool",
          "name": "",
          "type": "bool"
        }
      ],
      "stateMutability": "view",
      "type": "function"
    },
    {
      "inputs": [
        {
          "internalType": "address",
          "name": "otter_",
          "type": "address"
        },
        {
          "internalType": "uint256",
          "name": "amount_",
          "type": "uint256"
        }
      ],
      "name": "withdrawFee",
      "outputs": [
        {
          "internalType": "uint256",
          "name": "",
          "type": "uint256"
        }
      ],
      "stateMutability": "view",
      "type": "function"
    },
    {
      "inputs": [],
      "name": "withdrawFeeDuration",
      "outputs": [
        {
          "internalType": "uint256",
          "name": "",
          "type": "uint256"
        }
      ],
      "stateMutability": "view",
      "type": "function"
    },
    {
      "inputs": [],
      "name": "withdrawFeeRate",
      "outputs": [
        {
          "internalType": "uint256",
          "name": "",
          "type": "uint256"
        }
      ],
      "stateMutability": "view",
      "type": "function"
    }
  ],
  "bytecode": "0x60a06040523060805234801561001457600080fd5b5060805161430061004c6000396000818161142b0152818161146b015281816118af015281816118ef015261197e01526143006000f3fe6080604052600436106103ef5760003560e01c80635f46c8cc11610208578063bc35e3fa11610118578063d547741f116100ab578063ec342ad01161007a578063ec342ad014610cd3578063ec87621c14610ce9578063eced552614610d1d578063ecf7085814610d34578063fd9be52214610d4b57600080fd5b8063d547741f14610c32578063db0e9d6614610c52578063dd62ed3e14610c75578063ea99e68914610cbc57600080fd5b8063c3d9ed39116100e7578063c3d9ed3914610bb1578063c4b9cd4614610bd1578063c5644c8614610bf2578063cff3c73914610c1257600080fd5b8063bc35e3fa14610aff578063bdc8144b14610b38578063bfd994ce14610b58578063bfe0bc9814610b7857600080fd5b806395d89b411161019b578063a457c2d71161016a578063a457c2d714610a4e578063a694fc3a14610a6e578063a9059cbb14610a8e578063acc3a00614610aae578063b5fd73f814610ace57600080fd5b806395d89b41146109e45780639fe9f623146109f95780639feb8f5014610a19578063a217fddf14610a3957600080fd5b80637bb7bed1116101d75780637bb7bed11461096d578063817b1cd21461098d57806382461948146109a457806391d14854146109c457600080fd5b80635f46c8cc146108df5780636580221f146108f6578063700d27cf1461091657806370a082311461093657600080fd5b806336568abe116103035780633d509c97116102965780634e878a85116102655780634e878a85146108285780634f1ef2861461083f57806352d1902d146108525780635867e866146108675780635d80dbe9146108bf57600080fd5b80633d509c97146107a65780633edc3519146107c65780634cd412d5146107e65780634d12d4b61461080857600080fd5b806339509351116102d257806339509351146107115780633af32abf146107315780633b17c736146107515780633b9589a91461076c57600080fd5b806336568abe1461068b5780633659cfe6146106ab578063372500ab146106cb578063391feebb146106e057600080fd5b8063162790551161038657806323b872dd1161035557806323b872dd146105df578063248a9ca3146105ff5780632e1a7d4d1461062f5780632f2ff15d1461064f578063313ce5671461066f57600080fd5b8063162790551461056757806318160ddd146105885780631c03e6cc1461059e5780632287e96a146105be57600080fd5b8063096015b0116103c2578063096015b0146104a75780630f4ef8a6146104c9578063150b7a0214610502578063153ee5541461054757600080fd5b806301b6c969146103f457806301ffc9a71461043557806306fdde0314610465578063095ea7b314610487575b600080fd5b34801561040057600080fd5b5061042261040f366004613b6b565b6101926020526000908152604090205481565b6040519081526020015b60405180910390f35b34801561044157600080fd5b50610455610450366004613b86565b610d6b565b604051901515815260200161042c565b34801561047157600080fd5b5061047a610da2565b60405161042c9190613bdc565b34801561049357600080fd5b506104556104a2366004613c0f565b610e35565b3480156104b357600080fd5b506104c76104c2366004613c39565b610e4d565b005b3480156104d557600080fd5b506101a0546104ea906001600160a01b031681565b6040516001600160a01b03909116815260200161042c565b34801561050e57600080fd5b5061052e61051d366004613c52565b630a85bd0160e11b95945050505050565b6040516001600160e01b0319909116815260200161042c565b34801561055357600080fd5b506104c7610562366004613b6b565b610e5e565b34801561057357600080fd5b50610455610582366004613b6b565b3b151590565b34801561059457600080fd5b5061016254610422565b3480156105aa57600080fd5b506104c76105b9366004613b6b565b610ebe565b3480156105ca57600080fd5b50610198546104559062010000900460ff1681565b3480156105eb57600080fd5b506104556105fa366004613ced565b610f96565b34801561060b57600080fd5b5061042261061a366004613c39565b60009081526065602052604090206001015490565b34801561063b57600080fd5b5061042261064a366004613c39565b610fbc565b34801561065b57600080fd5b506104c761066a366004613d29565b611377565b34801561067b57600080fd5b506040516009815260200161042c565b34801561069757600080fd5b506104c76106a6366004613d29565b6113a2565b3480156106b757600080fd5b506104c76106c6366004613b6b565b611420565b3480156106d757600080fd5b506104c7611500565b3480156106ec57600080fd5b506104556106fb366004613b6b565b61012d6020526000908152604090205460ff1681565b34801561071d57600080fd5b5061045561072c366004613c0f565b611544565b34801561073d57600080fd5b5061045561074c366004613b6b565b611584565b34801561075d57600080fd5b50610198546104559060ff1681565b34801561077857600080fd5b50610455610787366004613b6b565b6001600160a01b0316600090815261012d602052604090205460ff1690565b3480156107b257600080fd5b506104c76107c1366004613b6b565b6115b5565b3480156107d257600080fd5b506104c76107e1366004613c39565b611754565b3480156107f257600080fd5b5061019854610455906301000000900460ff1681565b34801561081457600080fd5b506104c7610823366004613e01565b611765565b34801561083457600080fd5b5061042261019e5481565b6104c761084d366004613e7d565b6118a4565b34801561085e57600080fd5b50610422611971565b34801561087357600080fd5b506108a4610882366004613b6b565b6101956020526000908152604090208054600182015460029092015490919083565b6040805193845260208401929092529082015260600161042c565b3480156108cb57600080fd5b506104c76108da366004613eed565b611a24565b3480156108eb57600080fd5b5061042261019a5481565b34801561090257600080fd5b506104c7610911366004613eed565b611a4a565b34801561092257600080fd5b506101985461045590610100900460ff1681565b34801561094257600080fd5b50610422610951366004613b6b565b6001600160a01b03166000908152610160602052604090205490565b34801561097957600080fd5b506104ea610988366004613c39565b611a72565b34801561099957600080fd5b506104226101995481565b3480156109b057600080fd5b506104c76109bf366004613eed565b611a9d565b3480156109d057600080fd5b506104556109df366004613d29565b611abc565b3480156109f057600080fd5b5061047a611ae7565b348015610a0557600080fd5b506104c7610a14366004613eed565b611af7565b348015610a2557600080fd5b506104c7610a34366004613c0f565b611b21565b348015610a4557600080fd5b50610422600081565b348015610a5a57600080fd5b50610455610a69366004613c0f565b611da9565b348015610a7a57600080fd5b506104c7610a89366004613c39565b611e47565b348015610a9a57600080fd5b50610455610aa9366004613c0f565b61214d565b348015610aba57600080fd5b50610455610ac9366004613b6b565b61215b565b348015610ada57600080fd5b50610455610ae9366004613b6b565b6101946020526000908152604090205460ff1681565b348015610b0b57600080fd5b50610422610b1a366004613f0a565b61019660209081526000928352604080842090915290825290205481565b348015610b4457600080fd5b506104c7610b53366004613c39565b6122a8565b348015610b6457600080fd5b506104c7610b73366004613eed565b6122b9565b348015610b8457600080fd5b50610422610b93366004613f0a565b61019360209081526000928352604080842090915290825290205481565b348015610bbd57600080fd5b50610455610bcc366004613b6b565b6122e5565b348015610bdd57600080fd5b5061019d546104ea906001600160a01b031681565b348015610bfe57600080fd5b50610422610c0d366004613f0a565b6123bd565b348015610c1e57600080fd5b506104c7610c2d366004613c39565b61248c565b348015610c3e57600080fd5b506104c7610c4d366004613d29565b61249d565b348015610c5e57600080fd5b506101985461045590640100000000900460ff1681565b348015610c8157600080fd5b50610422610c90366004613f0a565b6001600160a01b0391821660009081526101616020908152604080832093909416825291909152205490565b348015610cc857600080fd5b5061042261019f5481565b348015610cdf57600080fd5b5061042261271081565b348015610cf557600080fd5b506104227f241ecf16d79d0f8dbfb92cbc07fe17840425976cf0667f022fe9877caa831b0881565b348015610d2957600080fd5b5061042261019b5481565b348015610d4057600080fd5b5061042261019c5481565b348015610d5757600080fd5b50610422610d66366004613c0f565b6124c3565b60006001600160e01b03198216637965db0b60e01b1480610d9c57506301ffc9a760e01b6001600160e01b03198316145b92915050565b60606101638054610db290613f34565b80601f0160208091040260200160405190810160405280929190818152602001828054610dde90613f34565b8015610e2b5780601f10610e0057610100808354040283529160200191610e2b565b820191906000526020600020905b815481529060010190602001808311610e0e57829003601f168201915b5050505050905090565b600033610e43818585612570565b5060019392505050565b610e58600033612695565b61019f55565b610e69600033612695565b6101a080546001600160a01b0319166001600160a01b0383169081179091556040519081527f3d94d9e8342a65edb95eef4f65059294d45e5192603632d8dddb2344e70780539060200160405180910390a150565b610ec9600033612695565b6001600160a01b0381166000908152610194602052604090205460ff1615610f2e5760405162461bcd60e51b815260206004820152601360248201527252657761726420746f6b656e2065786973747360681b60448201526064015b60405180910390fd5b6001600160a01b0316600081815261019460205260408120805460ff19166001908117909155610197805491820181559091527f3ea4d693734e62a1b4642df418cf4aae0e5ba336a2d6024b2d33585611a4e2eb0180546001600160a01b0319169091179055565b600033610fa48582856126f9565b610faf85858561278c565b60019150505b9392505050565b6000610fc733611584565b610fe35760405162461bcd60e51b8152600401610f2590613f6f565b600261012e5414156110075760405162461bcd60e51b8152600401610f2590613fbe565b600261012e556101985462010000900460ff1661105d5760405162461bcd60e51b815260206004820152601460248201527315da5d1a191c985dc81b9bdd08195b98589b195960621b6044820152606401610f25565b33600090815261019560209081526040918290208251606081018452815481526001820154928101839052600290910154928101929092526110d55760405162461bcd60e51b81526020600482015260116024820152704e6f207374616b65642062616c616e636560781b6044820152606401610f25565b80518311156111265760405162461bcd60e51b815260206004820152601960248201527f4e6f7420656e6f756768207374616b65642062616c616e6365000000000000006044820152606401610f25565b61112f3361296d565b611138336129bf565b600061114433856124c3565b905060006111528533612b80565b90508061019a6000828254611167919061400b565b92505081905550846101996000828254611181919061400b565b909155505082518514156111b257336000908152610195602052604081208181556001810182905560020155611217565b60405180606001604052808685600001516111cd919061400b565b81526020018285602001516111e2919061400b565b815260408086015160209283015233600090815261019583528190208351815591830151600183015591909101516002909101555b811561127d5761019d54604051630852cd8d60e31b8152600481018490526001600160a01b03909116906342966c6890602401600060405180830381600087803b15801561126457600080fd5b505af1158015611278573d6000803e3d6000fd5b505050505b61019d546001600160a01b031663a9059cbb3361129a858961400b565b6040516001600160e01b031960e085901b1681526001600160a01b0390921660048301526024820152604401602060405180830381600087803b1580156112e057600080fd5b505af11580156112f4573d6000803e3d6000fd5b505050506040513d601f19601f820116820180604052508101906113189190614022565b506113233386612ba5565b604080518681526020810184905233917ff279e6a1f5e320cca91135676d9cb6e44ca8a08c0b88342bcdb1144f6511b568910160405180910390a2611368828661400b565b600161012e5595945050505050565b6000828152606560205260409020600101546113938133612695565b61139d8383612d09565b505050565b6001600160a01b03811633146114125760405162461bcd60e51b815260206004820152602f60248201527f416363657373436f6e74726f6c3a2063616e206f6e6c792072656e6f756e636560448201526e103937b632b9903337b91039b2b63360891b6064820152608401610f25565b61141c8282612d8f565b5050565b306001600160a01b037f00000000000000000000000000000000000000000000000000000000000000001614156114695760405162461bcd60e51b8152600401610f259061403f565b7f00000000000000000000000000000000000000000000000000000000000000006001600160a01b03166114b2600080516020614284833981519152546001600160a01b031690565b6001600160a01b0316146114d85760405162461bcd60e51b8152600401610f259061408b565b6114e181612df6565b604080516000808252602082019092526114fd91839190612e01565b50565b600261012e5414156115245760405162461bcd60e51b8152600401610f2590613fbe565b600261012e556115333361296d565b61153c336129bf565b600161012e55565b336000818152610161602090815260408083206001600160a01b0387168452909152812054909190610e43908290869061157f9087906140d7565b612570565b6000813b156115ad57506001600160a01b0316600090815261012d602052604090205460ff1690565b506001919050565b6115c0600033612695565b6001600160a01b0381166000908152610194602052604090205460ff166116295760405162461bcd60e51b815260206004820152601b60248201527f52657761726420746f6b656e20646f6573206e6f7420657869737400000000006044820152606401610f25565b60005b6101975481101561141c57816001600160a01b03166101978281548110611655576116556140ef565b6000918252602090912001546001600160a01b031614156117425761019780546116819060019061400b565b81548110611691576116916140ef565b60009182526020909120015461019780546001600160a01b0390921691839081106116be576116be6140ef565b9060005260206000200160006101000a8154816001600160a01b0302191690836001600160a01b031602179055506101978054806116fe576116fe614105565b60008281526020808220830160001990810180546001600160a01b03191690559092019092556001600160a01b0384168252610194905260409020805460ff191690555b8061174c8161411b565b91505061162c565b61175f600033612695565b61019b55565b600054610100900460ff166117805760005460ff1615611784565b303b155b6117e75760405162461bcd60e51b815260206004820152602e60248201527f496e697469616c697a61626c653a20636f6e747261637420697320616c72656160448201526d191e481a5b9a5d1a585b1a5e995960921b6064820152608401610f25565b600054610100900460ff16158015611809576000805461ffff19166101011790555b611811612f7b565b611819612fe9565b6118238484613018565b61019d80546001600160a01b0319166001600160a01b038716179055610198805464ffffffffff191664010101010117905561019c829055600061019981905561019a55701d6329f1c35ca4bfabb9f561000000000061019b5562278d0061019e55606461019f55801561189d576000805461ff00191690555b5050505050565b306001600160a01b037f00000000000000000000000000000000000000000000000000000000000000001614156118ed5760405162461bcd60e51b8152600401610f259061403f565b7f00000000000000000000000000000000000000000000000000000000000000006001600160a01b0316611936600080516020614284833981519152546001600160a01b031690565b6001600160a01b03161461195c5760405162461bcd60e51b8152600401610f259061408b565b61196582612df6565b61141c82826001612e01565b6000306001600160a01b037f00000000000000000000000000000000000000000000000000000000000000001614611a115760405162461bcd60e51b815260206004820152603860248201527f555550535570677261646561626c653a206d757374206e6f742062652063616c60448201527f6c6564207468726f7567682064656c656761746563616c6c00000000000000006064820152608401610f25565b5060008051602061428483398151915290565b611a2f600033612695565b61019880549115156101000261ff0019909216919091179055565b611a55600033612695565b6101988054911515620100000262ff000019909216919091179055565b6101978181548110611a8357600080fd5b6000918252602090912001546001600160a01b0316905081565b611aa8600033612695565b610198805460ff1916911515919091179055565b60009182526065602090815260408084206001600160a01b0393909316845291905290205460ff1690565b60606101648054610db290613f34565b611b02600033612695565b610198805491151563010000000263ff00000019909216919091179055565b6101a0546001600160a01b03163314611b865760405162461bcd60e51b815260206004820152602160248201527f6f6e6c7920726577617264206d616e616765722063616e2063616c6c207468696044820152607360f81b6064820152608401610f25565b6001600160a01b0382166000908152610194602052604090205460ff16611be75760405162461bcd60e51b8152602060048201526015602482015274151bdad95b881a5cc81b9bdd08185c1c1c9bdd9959605a1b6044820152606401610f25565b600061019a5411611c3a5760405162461bcd60e51b815260206004820152601c60248201527f546f74616c206d756c7469706c696564207374616b6564207a65726f000000006044820152606401610f25565b6040516323b872dd60e01b8152336004820152306024820152604481018290526001600160a01b038316906323b872dd90606401602060405180830381600087803b158015611c8857600080fd5b505af1158015611c9c573d6000803e3d6000fd5b505050506040513d601f19601f82011682018060405250810190611cc09190614022565b50600061019a5461019b5483611cd69190614136565b611ce09190614155565b905060008111611d325760405162461bcd60e51b815260206004820152601d60248201527f496e73756666696369656e742072657761726420706572207374616b650000006044820152606401610f25565b6001600160a01b0383166000908152610192602052604081208054839290611d5b9084906140d7565b909155505060408051838152602081018390526001600160a01b038516917f6a6f77044107a33658235d41bedbbaf2fe9ccdceb313143c947a5e76e1ec8474910160405180910390a2505050565b336000818152610161602090815260408083206001600160a01b038716845290915281205490919083811015611e2f5760405162461bcd60e51b815260206004820152602560248201527f45524332303a2064656372656173656420616c6c6f77616e63652062656c6f77604482015264207a65726f60d81b6064820152608401610f25565b611e3c8286868403612570565b506001949350505050565b611e5033611584565b611e6c5760405162461bcd60e51b8152600401610f2590613f6f565b600261012e541415611e905760405162461bcd60e51b8152600401610f2590613fbe565b600261012e556101985460ff16611edf5760405162461bcd60e51b815260206004820152601360248201527214dd185ada5b99c81b9bdd08195b98589b1959606a1b6044820152606401610f25565b60008111611f265760405162461bcd60e51b8152602060048201526014602482015273125b9d985b1a59081cdd185ad948185b5bdd5b9d60621b6044820152606401610f25565b61019c546101995410611f7b5760405162461bcd60e51b815260206004820152601860248201527f4465706f736974206361706163697479207265616368656400000000000000006044820152606401610f25565b33600090815261019560209081526040918290208251606081018452815480825260018301549382019390935260029091015492810192909252611fc757611fc233613049565b611fd0565b611fd03361296d565b61019d546040516323b872dd60e01b8152336004820152306024820152604481018490526001600160a01b03909116906323b872dd90606401602060405180830381600087803b15801561202357600080fd5b505af1158015612037573d6000803e3d6000fd5b505050506040513d601f19601f8201168201806040525081019061205b9190614022565b5061206633836130ba565b60006120728333612b80565b9050604051806060016040528084846000015161208f91906140d7565b81526020018284602001516120a491906140d7565b8152426020918201523360009081526101958252604080822084518155928401516001840155929092015160029091015561019980548592906120e89084906140d7565b925050819055508061019a600082825461210291906140d7565b9091555050604080518481526020810183905233917f5af417134f72a9d41143ace85b0a26dce6f550f894f2cbc1eeee8810603d91b6910160405180910390a25050600161012e5550565b600033610e4381858561278c565b60006121678133612695565b813b6121d35760405162461bcd60e51b815260206004820152603560248201527f436f6e747261637457686974656c6973743a2041646472657373206d757374206044820152746265206120636f6e7472616374206164647265737360581b6064820152608401610f25565b6001600160a01b038216600090815261012d602052604090205460ff16156122555760405162461bcd60e51b815260206004820152602f60248201527f436f6e747261637457686974656c6973743a20436f6e747261637420616c726560448201526e18591e481dda1a5d195b1a5cdd1959608a1b6064820152608401610f25565b6001600160a01b038216600081815261012d6020526040808220805460ff19166001179055517ffbd3cde7ff522a917e485c8ed2a6e87590887ab399f5ac312307903f498543079190a25060015b919050565b6122b3600033612695565b61019c55565b6122c4600033612695565b61019880549115156401000000000264ff0000000019909216919091179055565b60006122f18133612695565b6001600160a01b038216600090815261012d602052604090205460ff1661236e5760405162461bcd60e51b815260206004820152602b60248201527f436f6e747261637457686974656c6973743a20436f6e7472616374206e6f742060448201526a1dda1a5d195b1a5cdd195960aa1b6064820152608401610f25565b6001600160a01b038216600081815261012d6020526040808220805460ff19169055517f8e81447740597754af5db3e176253a36f7981a9549f48ace3f0cb233913f9d859190a2506001919050565b6001600160a01b0380831660008181526101956020908152604080832081516060810183528154815260018201548185015260029091015481830152948616808452610193835281842094845293825280832054938352610192909152812054909291839161242c919061400b565b9050600061019b548284602001516124449190614136565b61244e9190614155565b6001600160a01b03808716600090815261019660209081526040808320938b168352929052205490915061248290826140d7565b9695505050505050565b612497600033612695565b61019e55565b6000828152606560205260409020600101546124b98133612695565b61139d8383612d8f565b6001600160a01b038216600090815261012d602052604081205460ff16156124ed57506000610d9c565b6001600160a01b038316600090815261019560209081526040918290208251606081018452815481526001820154928101929092526002015491810182905261019e54909161253c904261400b565b111561254c576000915050610d9c565b61271061019f548461255e9190614136565b6125689190614155565b949350505050565b6001600160a01b0383166125d25760405162461bcd60e51b8152602060048201526024808201527f45524332303a20617070726f76652066726f6d20746865207a65726f206164646044820152637265737360e01b6064820152608401610f25565b6001600160a01b0382166126335760405162461bcd60e51b815260206004820152602260248201527f45524332303a20617070726f766520746f20746865207a65726f206164647265604482015261737360f01b6064820152608401610f25565b6001600160a01b038381166000818152610161602090815260408083209487168084529482529182902085905590518481527f8c5be1e5ebec7d5bd14f71427d1e84f3dd0314c0f7b2291e5b200ac8c7c3b925910160405180910390a3505050565b61269f8282611abc565b61141c576126b7816001600160a01b031660146131af565b6126c28360206131af565b6040516020016126d3929190614177565b60408051601f198184030181529082905262461bcd60e51b8252610f2591600401613bdc565b6001600160a01b0383811660009081526101616020908152604080832093861683529290522054600019811461278657818110156127795760405162461bcd60e51b815260206004820152601d60248201527f45524332303a20696e73756666696369656e7420616c6c6f77616e63650000006044820152606401610f25565b6127868484848403612570565b50505050565b6001600160a01b0383166127f05760405162461bcd60e51b815260206004820152602560248201527f45524332303a207472616e736665722066726f6d20746865207a65726f206164604482015264647265737360d81b6064820152608401610f25565b6001600160a01b0382166128525760405162461bcd60e51b815260206004820152602360248201527f45524332303a207472616e7366657220746f20746865207a65726f206164647260448201526265737360e81b6064820152608401610f25565b61285d83838361334b565b6001600160a01b03831660009081526101606020526040902054818110156128d65760405162461bcd60e51b815260206004820152602660248201527f45524332303a207472616e7366657220616d6f756e7420657863656564732062604482015265616c616e636560d01b6064820152608401610f25565b6001600160a01b038085166000908152610160602052604080822085850390559185168152908120805484929061290e9084906140d7565b92505081905550826001600160a01b0316846001600160a01b03167fddf252ad1be2c89b69c2b068fc378daa952ba7f163c4a11628f55a4df523b3ef8460405161295a91815260200190565b60405180910390a361278684848461343e565b60005b6101975481101561141c576129ad6101978281548110612992576129926140ef565b6000918252602090912001546001600160a01b0316836136d6565b806129b78161411b565b915050612970565b61019854640100000000900460ff16612a115760405162461bcd60e51b815260206004820152601460248201527314185e481c995dd85c991cc8191a5cd8589b195960621b6044820152606401610f25565b60005b6101975481101561141c5760006101978281548110612a3557612a356140ef565b60009182526020808320909101546001600160a01b0390811680845261019683526040808520928816855291909252909120549091508015612b6b5760405163a9059cbb60e01b81526001600160a01b0385811660048301526024820183905283169063a9059cbb90604401602060405180830381600087803b158015612abb57600080fd5b505af1158015612acf573d6000803e3d6000fd5b505050506040513d601f19601f82011682018060405250810190612af39190614022565b50836001600160a01b0316826001600160a01b03167f0aa4d283470c904c551d18bb894d37e17674920f3261a7f854be501e25f421b783604051612b3991815260200190565b60405180910390a36001600160a01b038083166000908152610196602090815260408083209388168352929052908120555b50508080612b789061411b565b915050612a14565b6000612b8b82611584565b612b9757506000610d9c565b6127108061255e8186614136565b6001600160a01b038216612c055760405162461bcd60e51b815260206004820152602160248201527f45524332303a206275726e2066726f6d20746865207a65726f206164647265736044820152607360f81b6064820152608401610f25565b612c118260008361334b565b6001600160a01b0382166000908152610160602052604090205481811015612c865760405162461bcd60e51b815260206004820152602260248201527f45524332303a206275726e20616d6f756e7420657863656564732062616c616e604482015261636560f01b6064820152608401610f25565b6001600160a01b03831660009081526101606020526040812083830390556101628054849290612cb790849061400b565b90915550506040518281526000906001600160a01b038516907fddf252ad1be2c89b69c2b068fc378daa952ba7f163c4a11628f55a4df523b3ef9060200160405180910390a361139d8360008461343e565b612d138282611abc565b61141c5760008281526065602090815260408083206001600160a01b03851684529091529020805460ff19166001179055612d4b3390565b6001600160a01b0316816001600160a01b0316837f2f8788117e7eff1d82e926ec794901d17c78024a50270940304540a733656f0d60405160405180910390a45050565b612d998282611abc565b1561141c5760008281526065602090815260408083206001600160a01b0385168085529252808320805460ff1916905551339285917ff6391f5c32d9c69d2a47ea670b442974b53935d1edc7fd64eb21e047a839171b9190a45050565b6114fd600033612695565b7f4910fdfa16fed3260ed0e7147f7cc6da11a60208b5b9406d12a635614ffd91435460ff1615612e345761139d836137e5565b826001600160a01b03166352d1902d6040518163ffffffff1660e01b815260040160206040518083038186803b158015612e6d57600080fd5b505afa925050508015612e9d575060408051601f3d908101601f19168201909252612e9a918101906141ec565b60015b612f005760405162461bcd60e51b815260206004820152602e60248201527f45524331393637557067726164653a206e657720696d706c656d656e7461746960448201526d6f6e206973206e6f74205555505360901b6064820152608401610f25565b6000805160206142848339815191528114612f6f5760405162461bcd60e51b815260206004820152602960248201527f45524331393637557067726164653a20756e737570706f727465642070726f786044820152681a58589b195555525160ba1b6064820152608401610f25565b5061139d838383613881565b600054610100900460ff16612fa25760405162461bcd60e51b8152600401610f2590614205565b612faa6138a6565b612fb26138a6565b612fbd6000336138cd565b612fe77f241ecf16d79d0f8dbfb92cbc07fe17840425976cf0667f022fe9877caa831b08336138cd565b565b600054610100900460ff166130105760405162461bcd60e51b8152600401610f2590614205565b612fe76138d7565b600054610100900460ff1661303f5760405162461bcd60e51b8152600401610f2590614205565b61141c82826138fe565b60005b6101975481101561141c576000610197828154811061306d5761306d6140ef565b60009182526020808320909101546001600160a01b0390811683526101928252604080842054610193845281852092881685529190925291205550806130b28161411b565b91505061304c565b6001600160a01b0382166131105760405162461bcd60e51b815260206004820152601f60248201527f45524332303a206d696e7420746f20746865207a65726f2061646472657373006044820152606401610f25565b61311c6000838361334b565b80610162600082825461312f91906140d7565b90915550506001600160a01b038216600090815261016060205260408120805483929061315d9084906140d7565b90915550506040518181526001600160a01b038316906000907fddf252ad1be2c89b69c2b068fc378daa952ba7f163c4a11628f55a4df523b3ef9060200160405180910390a361141c6000838361343e565b606060006131be836002614136565b6131c99060026140d7565b67ffffffffffffffff8111156131e1576131e1613d55565b6040519080825280601f01601f19166020018201604052801561320b576020820181803683370190505b509050600360fc1b81600081518110613226576132266140ef565b60200101906001600160f81b031916908160001a905350600f60fb1b81600181518110613255576132556140ef565b60200101906001600160f81b031916908160001a9053506000613279846002614136565b6132849060016140d7565b90505b60018111156132fc576f181899199a1a9b1b9c1cb0b131b232b360811b85600f16601081106132b8576132b86140ef565b1a60f81b8282815181106132ce576132ce6140ef565b60200101906001600160f81b031916908160001a90535060049490941c936132f581614250565b9050613287565b508315610fb55760405162461bcd60e51b815260206004820181905260248201527f537472696e67733a20686578206c656e67746820696e73756666696369656e746044820152606401610f25565b610198546301000000900460ff166133995760405162461bcd60e51b8152602060048201526011602482015270151c985b9cd9995c88191a5cd8589b1959607a1b6044820152606401610f25565b6001600160a01b03831615806133b657506001600160a01b038216155b156133c057505050565b6001600160a01b0382166000908152610195602090815260409182902082516060810184528154808252600183015493820193909352600290910154928101929092526134105761341083613049565b61341984611584565b15613427576134278461296d565b61343083611584565b15612786576127868361296d565b6001600160a01b038316158061345b57506001600160a01b038216155b1561346557505050565b6001600160a01b0383811660008181526101606020908152604080832054948716808452818420549484526101958084528285208351606080820186528254825260018084015483890152600293840154838801529488529286528487208551938401865280548452938401549583019590955291909101549181019190915290916134f18589612b80565b905060006134ff8589612b80565b905061350a89611584565b801561351a575061351a88611584565b15613572578260200151846020015161353391906140d7565b61019a6000828254613545919061400b565b90915550613555905081836140d7565b61019a600082825461356791906140d7565b909155506135fa9050565b61357b88611584565b6135b657836020015161019a6000828254613596919061400b565b925050819055508161019a60008282546135b091906140d7565b90915550505b6135bf89611584565b6135fa57826020015161019a60008282546135da919061400b565b925050819055508061019a60008282546135f491906140d7565b90915550505b6040518060600160405280878152602001838152602001856040015181525061019560008b6001600160a01b03166001600160a01b0316815260200190815260200160002060008201518160000155602082015181600101556040820151816002015590505060405180606001604052808681526020018281526020018460400151866040015111613690578460400151613696565b85604001515b90526001600160a01b0389166000908152610195602090815260409182902083518155908301516001820155910151600290910155505050505050505050565b6001600160a01b038116600090815261019560209081526040918290208251606081018452815481526001820154928101839052600290910154928101929092521561139d576001600160a01b0380841660008181526101936020908152604080832094871683529381528382205492825261019290529182205461375b919061400b565b9050600061019b548284602001516137739190614136565b61377d9190614155565b6001600160a01b03808716600081815261019260209081526040808320546101938352818420958b16808552958352818420559282526101968152828220938252929092528120805492935083929091906137d99084906140d7565b90915550505050505050565b6001600160a01b0381163b6138525760405162461bcd60e51b815260206004820152602d60248201527f455243313936373a206e657720696d706c656d656e746174696f6e206973206e60448201526c1bdd08184818dbdb9d1c9858dd609a1b6064820152608401610f25565b60008051602061428483398151915280546001600160a01b0319166001600160a01b0392909216919091179055565b61388a8361394e565b6000825111806138975750805b1561139d57612786838361398e565b600054610100900460ff16612fe75760405162461bcd60e51b8152600401610f2590614205565b61141c8282612d09565b600054610100900460ff1661153c5760405162461bcd60e51b8152600401610f2590614205565b600054610100900460ff166139255760405162461bcd60e51b8152600401610f2590614205565b815161393990610163906020850190613abb565b50805161139d90610164906020840190613abb565b613957816137e5565b6040516001600160a01b038216907fbc7cd75a20ee27fd9adebab32041f755214dbc6bffa90cc0225b39da2e5c2d3b90600090a250565b60606001600160a01b0383163b6139f65760405162461bcd60e51b815260206004820152602660248201527f416464726573733a2064656c65676174652063616c6c20746f206e6f6e2d636f6044820152651b9d1c9858dd60d21b6064820152608401610f25565b600080846001600160a01b031684604051613a119190614267565b600060405180830381855af49150503d8060008114613a4c576040519150601f19603f3d011682016040523d82523d6000602084013e613a51565b606091505b5091509150613a7982826040518060600160405280602781526020016142a460279139613a82565b95945050505050565b60608315613a91575081610fb5565b825115613aa15782518084602001fd5b8160405162461bcd60e51b8152600401610f259190613bdc565b828054613ac790613f34565b90600052602060002090601f016020900481019282613ae95760008555613b2f565b82601f10613b0257805160ff1916838001178555613b2f565b82800160010185558215613b2f579182015b82811115613b2f578251825591602001919060010190613b14565b50613b3b929150613b3f565b5090565b5b80821115613b3b5760008155600101613b40565b80356001600160a01b03811681146122a357600080fd5b600060208284031215613b7d57600080fd5b610fb582613b54565b600060208284031215613b9857600080fd5b81356001600160e01b031981168114610fb557600080fd5b60005b83811015613bcb578181015183820152602001613bb3565b838111156127865750506000910152565b6020815260008251806020840152613bfb816040850160208701613bb0565b601f01601f19169190910160400192915050565b60008060408385031215613c2257600080fd5b613c2b83613b54565b946020939093013593505050565b600060208284031215613c4b57600080fd5b5035919050565b600080600080600060808688031215613c6a57600080fd5b613c7386613b54565b9450613c8160208701613b54565b935060408601359250606086013567ffffffffffffffff80821115613ca557600080fd5b818801915088601f830112613cb957600080fd5b813581811115613cc857600080fd5b896020828501011115613cda57600080fd5b9699959850939650602001949392505050565b600080600060608486031215613d0257600080fd5b613d0b84613b54565b9250613d1960208501613b54565b9150604084013590509250925092565b60008060408385031215613d3c57600080fd5b82359150613d4c60208401613b54565b90509250929050565b634e487b7160e01b600052604160045260246000fd5b600067ffffffffffffffff80841115613d8657613d86613d55565b604051601f8501601f19908116603f01168101908282118183101715613dae57613dae613d55565b81604052809350858152868686011115613dc757600080fd5b858560208301376000602087830101525050509392505050565b600082601f830112613df257600080fd5b610fb583833560208501613d6b565b60008060008060808587031215613e1757600080fd5b613e2085613b54565b9350602085013567ffffffffffffffff80821115613e3d57600080fd5b613e4988838901613de1565b94506040870135915080821115613e5f57600080fd5b50613e6c87828801613de1565b949793965093946060013593505050565b60008060408385031215613e9057600080fd5b613e9983613b54565b9150602083013567ffffffffffffffff811115613eb557600080fd5b8301601f81018513613ec657600080fd5b613ed585823560208401613d6b565b9150509250929050565b80151581146114fd57600080fd5b600060208284031215613eff57600080fd5b8135610fb581613edf565b60008060408385031215613f1d57600080fd5b613f2683613b54565b9150613d4c60208401613b54565b600181811c90821680613f4857607f821691505b60208210811415613f6957634e487b7160e01b600052602260045260246000fd5b50919050565b6020808252602f908201527f436f6e747261637457686974656c6973743a20436f6e7472616374206d75737460408201526e081899481dda1a5d195b1a5cdd1959608a1b606082015260800190565b6020808252601f908201527f5265656e7472616e637947756172643a207265656e7472616e742063616c6c00604082015260600190565b634e487b7160e01b600052601160045260246000fd5b60008282101561401d5761401d613ff5565b500390565b60006020828403121561403457600080fd5b8151610fb581613edf565b6020808252602c908201527f46756e6374696f6e206d7573742062652063616c6c6564207468726f7567682060408201526b19195b1959d85d1958d85b1b60a21b606082015260800190565b6020808252602c908201527f46756e6374696f6e206d7573742062652063616c6c6564207468726f7567682060408201526b6163746976652070726f787960a01b606082015260800190565b600082198211156140ea576140ea613ff5565b500190565b634e487b7160e01b600052603260045260246000fd5b634e487b7160e01b600052603160045260246000fd5b600060001982141561412f5761412f613ff5565b5060010190565b600081600019048311821515161561415057614150613ff5565b500290565b60008261417257634e487b7160e01b600052601260045260246000fd5b500490565b7f416363657373436f6e74726f6c3a206163636f756e74200000000000000000008152600083516141af816017850160208801613bb0565b7001034b99036b4b9b9b4b733903937b6329607d1b60179184019182015283516141e0816028840160208801613bb0565b01602801949350505050565b6000602082840312156141fe57600080fd5b5051919050565b6020808252602b908201527f496e697469616c697a61626c653a20636f6e7472616374206973206e6f74206960408201526a6e697469616c697a696e6760a81b606082015260800190565b60008161425f5761425f613ff5565b506000190190565b60008251614279818460208701613bb0565b919091019291505056fe360894a13ba1a3210667c828492db98dca3e2076cc3735a920a3ca505d382bbc416464726573733a206c6f772d6c6576656c2064656c65676174652063616c6c206661696c6564a26469706673582212208901bbbc6059da260695bd1fc599a40cdfda412d696b59942bff943decbf8f6c64736f6c63430008090033",
  "linkReferences": {},
  "deployedLinkReferences": {}
}